{"abi":[{"type":"constructor","inputs":[{"name":"accessManager_","type":"address","internalType":"address"}],"stateMutability":"nonpayable"},{"type":"function","name":"accessManager","inputs":[],"outputs":[{"name":"","type":"address","internalType":"address"}],"stateMutability":"view"},{"type":"function","name":"canCall","inputs":[{"name":"caller","type":"address","internalType":"address"},{"name":"target","type":"address","internalType":"address"},{"name":"selector","type":"bytes4","internalType":"bytes4"}],"outputs":[{"name":"immediate","type":"bool","internalType":"bool"},{"name":"delay","type":"uint32","internalType":"uint32"}],"stateMutability":"view"},{"type":"function","name":"hasRole","inputs":[{"name":"caller","type":"address","internalType":"address"},{"name":"target","type":"address","internalType":"address"},{"name":"selector","type":"bytes4","internalType":"bytes4"}],"outputs":[{"name":"","type":"bool","internalType":"bool"}],"stateMutability":"view"}],"bytecode":{"object":"0x60a03461007857601f61039c38819003918201601f19168301916001600160401b0383118484101761007d5780849260209460405283398101031261007857516001600160a01b03811690819003610078576080526040516103089081610094823960805181818160560152818160d801526101b10152f35b600080fd5b634e487b7160e01b600052604160045260246000fdfe60806040818152600436101561001457600080fd5b600091823560e01c9081632c91a4261461015f57508063b7009613146100895763fdcb60681461004357600080fd5b34610085578160031936011261008557517f00000000000000000000000000000000000000000000000000000000000000006001600160a01b03168152602090f35b5080fd5b50903461015c578161009a36610222565b835163b700961360e01b81526001600160a01b03938416600482015291831660248301526001600160e01b03191660448201529190829060649082907f0000000000000000000000000000000000000000000000000000000000000000165afa90811561015257829161011d575b508251911515825263ffffffff166020820152f35b63ffffffff92506101449150833d851161014b575b61013c818361026d565b8101906102a5565b9091610108565b503d610132565b83513d84823e3d90fd5b80fd5b9190503461021e578082806101ad61017636610222565b63b700961360e01b85526001600160a01b039283166004860152911660248401526001600160e01b03191660448301526064820190565b03817f00000000000000000000000000000000000000000000000000000000000000006001600160a01b03165afa91821561021457602093926101f4575b50519015158152f35b8161020c9293503d841161014b5761013c818361026d565b5090386101eb565b81513d85823e3d90fd5b8280fd5b6060906003190112610268576001600160a01b039060043582811681036102685791602435908116810361026857906044356001600160e01b0319811681036102685790565b600080fd5b90601f8019910116810190811067ffffffffffffffff82111761028f57604052565b634e487b7160e01b600052604160045260246000fd5b919082604091031261026857815180151581036102685760209092015163ffffffff81168103610268579056fea2646970667358221220356584f636d4af6f4d96c08301206881ad7bb298e75c31bc3dfd3fecef4cc42264736f6c63430008110033","linkReferences":{}},"methodIdentifiers":{"accessManager()":"fdcb6068","canCall(address,address,bytes4)":"b7009613","hasRole(address,address,bytes4)":"2c91a426"},"id":119}