{"abi":[{"type":"constructor","inputs":[{"name":"initialManagementKey","type":"address","internalType":"address"}],"stateMutability":"nonpayable"},{"type":"function","name":"addClaim","inputs":[{"name":"_topic","type":"uint256","internalType":"uint256"},{"name":"_scheme","type":"uint256","internalType":"uint256"},{"name":"_issuer","type":"address","internalType":"address"},{"name":"_signature","type":"bytes","internalType":"bytes"},{"name":"_data","type":"bytes","internalType":"bytes"},{"name":"_uri","type":"string","internalType":"string"}],"outputs":[{"name":"claimRequestId","type":"bytes32","internalType":"bytes32"}],"stateMutability":"nonpayable"},{"type":"function","name":"addKey","inputs":[{"name":"_key","type":"bytes32","internalType":"bytes32"},{"name":"_purpose","type":"uint256","internalType":"uint256"},{"name":"_type","type":"uint256","internalType":"uint256"}],"outputs":[{"name":"success","type":"bool","internalType":"bool"}],"stateMutability":"nonpayable"},{"type":"function","name":"approve","inputs":[{"name":"_id","type":"uint256","internalType":"uint256"},{"name":"_approve","type":"bool","internalType":"bool"}],"outputs":[{"name":"success","type":"bool","internalType":"bool"}],"stateMutability":"nonpayable"},{"type":"function","name":"execute","inputs":[{"name":"_to","type":"address","internalType":"address"},{"name":"_value","type":"uint256","internalType":"uint256"},{"name":"_data","type":"bytes","internalType":"bytes"}],"outputs":[{"name":"executionId","type":"uint256","internalType":"uint256"}],"stateMutability":"payable"},{"type":"function","name":"getClaim","inputs":[{"name":"_claimId","type":"bytes32","internalType":"bytes32"}],"outputs":[{"name":"topic","type":"uint256","internalType":"uint256"},{"name":"scheme","type":"uint256","internalType":"uint256"},{"name":"issuer","type":"address","internalType":"address"},{"name":"signature","type":"bytes","internalType":"bytes"},{"name":"data","type":"bytes","internalType":"bytes"},{"name":"uri","type":"string","internalType":"string"}],"stateMutability":"view"},{"type":"function","name":"getClaimIdsByTopic","inputs":[{"name":"_topic","type":"uint256","internalType":"uint256"}],"outputs":[{"name":"claimIds","type":"bytes32[]","internalType":"bytes32[]"}],"stateMutability":"view"},{"type":"function","name":"getKey","inputs":[{"name":"_key","type":"bytes32","internalType":"bytes32"}],"outputs":[{"name":"purposes","type":"uint256[]","internalType":"uint256[]"},{"name":"keyType","type":"uint256","internalType":"uint256"},{"name":"key","type":"bytes32","internalType":"bytes32"}],"stateMutability":"view"},{"type":"function","name":"getKeyPurposes","inputs":[{"name":"_key","type":"bytes32","internalType":"bytes32"}],"outputs":[{"name":"_purposes","type":"uint256[]","internalType":"uint256[]"}],"stateMutability":"view"},{"type":"function","name":"getKeysByPurpose","inputs":[{"name":"_purpose","type":"uint256","internalType":"uint256"}],"outputs":[{"name":"keys","type":"bytes32[]","internalType":"bytes32[]"}],"stateMutability":"view"},{"type":"function","name":"getRecoveredAddress","inputs":[{"name":"sig","type":"bytes","internalType":"bytes"},{"name":"dataHash","type":"bytes32","internalType":"bytes32"}],"outputs":[{"name":"addr","type":"address","internalType":"address"}],"stateMutability":"pure"},{"type":"function","name":"initialize","inputs":[{"name":"initialManagementKey","type":"address","internalType":"address"}],"outputs":[],"stateMutability":"nonpayable"},{"type":"function","name":"isClaimRevoked","inputs":[{"name":"_sig","type":"bytes","internalType":"bytes"}],"outputs":[{"name":"","type":"bool","internalType":"bool"}],"stateMutability":"view"},{"type":"function","name":"isClaimValid","inputs":[{"name":"_identity","type":"address","internalType":"contract IIdentity"},{"name":"claimTopic","type":"uint256","internalType":"uint256"},{"name":"sig","type":"bytes","internalType":"bytes"},{"name":"data","type":"bytes","internalType":"bytes"}],"outputs":[{"name":"claimValid","type":"bool","internalType":"bool"}],"stateMutability":"view"},{"type":"function","name":"keyHasPurpose","inputs":[{"name":"_key","type":"bytes32","internalType":"bytes32"},{"name":"_purpose","type":"uint256","internalType":"uint256"}],"outputs":[{"name":"result","type":"bool","internalType":"bool"}],"stateMutability":"view"},{"type":"function","name":"removeClaim","inputs":[{"name":"_claimId","type":"bytes32","internalType":"bytes32"}],"outputs":[{"name":"success","type":"bool","internalType":"bool"}],"stateMutability":"nonpayable"},{"type":"function","name":"removeKey","inputs":[{"name":"_key","type":"bytes32","internalType":"bytes32"},{"name":"_purpose","type":"uint256","internalType":"uint256"}],"outputs":[{"name":"success","type":"bool","internalType":"bool"}],"stateMutability":"nonpayable"},{"type":"function","name":"revokeClaim","inputs":[{"name":"_claimId","type":"bytes32","internalType":"bytes32"},{"name":"_identity","type":"address","internalType":"address"}],"outputs":[{"name":"","type":"bool","internalType":"bool"}],"stateMutability":"nonpayable"},{"type":"function","name":"revokeClaimBySignature","inputs":[{"name":"signature","type":"bytes","internalType":"bytes"}],"outputs":[],"stateMutability":"nonpayable"},{"type":"function","name":"revokedClaims","inputs":[{"name":"","type":"bytes","internalType":"bytes"}],"outputs":[{"name":"","type":"bool","internalType":"bool"}],"stateMutability":"view"},{"type":"function","name":"version","inputs":[],"outputs":[{"name":"","type":"string","internalType":"string"}],"stateMutability":"pure"},{"type":"event","name":"Approved","inputs":[{"name":"executionId","type":"uint256","indexed":true,"internalType":"uint256"},{"name":"approved","type":"bool","indexed":false,"internalType":"bool"}],"anonymous":false},{"type":"event","name":"ClaimAdded","inputs":[{"name":"claimId","type":"bytes32","indexed":true,"internalType":"bytes32"},{"name":"topic","type":"uint256","indexed":true,"internalType":"uint256"},{"name":"scheme","type":"uint256","indexed":false,"internalType":"uint256"},{"name":"issuer","type":"address","indexed":true,"internalType":"address"},{"name":"signature","type":"bytes","indexed":false,"internalType":"bytes"},{"name":"data","type":"bytes","indexed":false,"internalType":"bytes"},{"name":"uri","type":"string","indexed":false,"internalType":"string"}],"anonymous":false},{"type":"event","name":"ClaimChanged","inputs":[{"name":"claimId","type":"bytes32","indexed":true,"internalType":"bytes32"},{"name":"topic","type":"uint256","indexed":true,"internalType":"uint256"},{"name":"scheme","type":"uint256","indexed":false,"internalType":"uint256"},{"name":"issuer","type":"address","indexed":true,"internalType":"address"},{"name":"signature","type":"bytes","indexed":false,"internalType":"bytes"},{"name":"data","type":"bytes","indexed":false,"internalType":"bytes"},{"name":"uri","type":"string","indexed":false,"internalType":"string"}],"anonymous":false},{"type":"event","name":"ClaimRemoved","inputs":[{"name":"claimId","type":"bytes32","indexed":true,"internalType":"bytes32"},{"name":"topic","type":"uint256","indexed":true,"internalType":"uint256"},{"name":"scheme","type":"uint256","indexed":false,"internalType":"uint256"},{"name":"issuer","type":"address","indexed":true,"internalType":"address"},{"name":"signature","type":"bytes","indexed":false,"internalType":"bytes"},{"name":"data","type":"bytes","indexed":false,"internalType":"bytes"},{"name":"uri","type":"string","indexed":false,"internalType":"string"}],"anonymous":false},{"type":"event","name":"ClaimRevoked","inputs":[{"name":"signature","type":"bytes","indexed":true,"internalType":"bytes"}],"anonymous":false},{"type":"event","name":"Executed","inputs":[{"name":"executionId","type":"uint256","indexed":true,"internalType":"uint256"},{"name":"to","type":"address","indexed":true,"internalType":"address"},{"name":"value","type":"uint256","indexed":true,"internalType":"uint256"},{"name":"data","type":"bytes","indexed":false,"internalType":"bytes"}],"anonymous":false},{"type":"event","name":"ExecutionFailed","inputs":[{"name":"executionId","type":"uint256","indexed":true,"internalType":"uint256"},{"name":"to","type":"address","indexed":true,"internalType":"address"},{"name":"value","type":"uint256","indexed":true,"internalType":"uint256"},{"name":"data","type":"bytes","indexed":false,"internalType":"bytes"}],"anonymous":false},{"type":"event","name":"ExecutionRequested","inputs":[{"name":"executionId","type":"uint256","indexed":true,"internalType":"uint256"},{"name":"to","type":"address","indexed":true,"internalType":"address"},{"name":"value","type":"uint256","indexed":true,"internalType":"uint256"},{"name":"data","type":"bytes","indexed":false,"internalType":"bytes"}],"anonymous":false},{"type":"event","name":"KeyAdded","inputs":[{"name":"key","type":"bytes32","indexed":true,"internalType":"bytes32"},{"name":"purpose","type":"uint256","indexed":true,"internalType":"uint256"},{"name":"keyType","type":"uint256","indexed":true,"internalType":"uint256"}],"anonymous":false},{"type":"event","name":"KeyRemoved","inputs":[{"name":"key","type":"bytes32","indexed":true,"internalType":"bytes32"},{"name":"purpose","type":"uint256","indexed":true,"internalType":"uint256"},{"name":"keyType","type":"uint256","indexed":true,"internalType":"uint256"}],"anonymous":false}],"bytecode":{"object":"0x60803462000227576001600160401b0390601f62002f5138819003918201601f19168301929184841183851017620001cd57808392604095865283396020928391810103126200022757516001600160a01b03811690819003620002275760065461ffff19168115620001e357610101176006558251918083019182528083528383019183831086841117620001cd5782855283519020916000958387526060600195868552856002898b20015501908282109082111762000179578552838152828652838252848620908154858355808610620001a3575b509086528186209084875b8181106200018d575050505081855282808587200155828552600281528385209081549168010000000000000000831015620001795784830180825583101562000165577f480000bb1edad8ca1470381cc334b1917fbd51c6531f3a623ea8e0ec7e38a6e99287928592879899528320015580a451612d2490816200022d8239f35b634e487b7160e01b87526032600452602487fd5b634e487b7160e01b87526041600452602487fd5b8460ff84511693019281850155018590620000e3565b8288528580858a2092830192015b828110620001c1575050620000d8565b898155018690620001b1565b634e487b7160e01b600052604160045260246000fd5b835162461bcd60e51b815260048101849052601f60248201527f696e76616c696420617267756d656e74202d207a65726f2061646472657373006044820152606490fd5b600080fdfe60806040526004361015610013575b600080fd5b60003560e01c806312aaac70146101a35780631d3812401461019a5780632646b264146101915780634eee424a1461018857806353d413c51461017f57806354fd4d501461017657806373c337081461016d578063747442d31461016457806380e9e9e11461015b5780639010f726146101525780639f7f9edd14610149578063b1a34e0d14610140578063b61d27f614610137578063c0969a6e1461012e578063c3b129e314610125578063c4d66de81461011c578063c9100bcb14610113578063d202158d1461010a578063d2345249146101015763fb307b34146100f957600080fd5b61000e611621565b5061000e6115e1565b5061000e611599565b5061000e61150e565b5061000e611313565b5061000e6112c2565b5061000e61125b565b5061000e6110a2565b5061000e610fff565b5061000e610ef2565b5061000e610e87565b5061000e610e10565b5061000e610d94565b5061000e610bbb565b5061000e610b63565b5061000e610865565b5061000e6105bc565b5061000e610599565b5061000e610244565b5061000e6101e0565b90815180825260208080930193019160005b8281106101cc575050505090565b8351855293810193928101926001016101be565b503461000e57602036600319011261000e576004356000526001602052610235604060002060016040600020015461022060026040600020015492611ae7565b916040519384936060855260608501906101ac565b91602084015260408301520390f35b503461000e57606036600319011261000e5760048035906024356044359160019061027a8260ff60065460081c16151514611662565b3033148015610428575b61028d906116ca565b838560026102a5826000526001602052604060002090565b0154036103ca57506102c96102c4866000526001602052604060002090565b611ae7565b6000835b610341575b505050506102f3816102ee856000526001602052604060002090565b611bf7565b61030b836102ee836000526002602052604060002090565b604051927f480000bb1edad8ca1470381cc334b1917fbd51c6531f3a623ea8e0ec7e38a6e9600080a460018152602090f35b0390f35b81518110156103c557846103558284611baf565b511461036a5761036490611aba565b836102cd565b6103c18360405191829162461bcd60e51b8352820160809060208152602160208201527f436f6e666c6963743a204b657920616c72656164792068617320707572706f736040820152606560f81b60608201520190565b0390fd5b6102d2565b9190508460026103e4826000526001602052604060002090565b015561040d6103f16104d1565b848152610408876000526001602052604060002090565b611b60565b610421856000526001602052604060002090565b01556102f3565b5061028d61044f60405160208101903382526020815261044781610495565b5190206128e9565b9050610284565b50634e487b7160e01b600052604160045260246000fd5b606081019081106001600160401b0382111761048857604052565b610490610456565b604052565b604081019081106001600160401b0382111761048857604052565b90601f801991011681019081106001600160401b0382111761048857604052565b60405190602082018281106001600160401b0382111761048857604052565b6020906001600160401b03811161050d575b601f01601f19160190565b610515610456565b610502565b929192610526826104f0565b9161053460405193846104b0565b82948184528183011161000e578281602093846000960137010152565b9080601f8301121561000e5781602061056c9335910161051a565b90565b602060031982011261000e57600435906001600160401b03821161000e5761056c91600401610551565b503461000e5760206105b26105ad3661056f565b6118fb565b6040519015158152f35b503461000e57602036600319011261000e5760043560016105e88160ff60065460081c16151514611662565b3033148015610837575b6105fb906126d8565b61060f826000526004602052604060002090565b549081156107de5760008161062e846000526005602052604060002090565b54905b610799575b9161069a849261069461067a61067061078d999761066a6106646107889b6000526005602052604060002090565b9161233b565b90611bd1565b90549060031b1c90565b9161068f866000526005602052604060002090565b611bd1565b9061194b565b6106b66106b1836000526005602052604060002090565b6123e7565b6106ca836000526004602052604060002090565b015490827f3cf57863a89432c61c4a27073c6ee39e8a764bff5a05aebfbcdcdc80b2e6130a6107166002610708846000526004602052604060002090565b01546001600160a01b031690565b600361072c846000526004602052604060002090565b01906107756004610747866000526004602052604060002090565b01600561075e876000526004602052604060002090565b019060405194859460018060a01b031699856127f6565b0390a46000526004602052604060002090565b61287e565b60405160018152602090f35b90846107b66106708361068f886000526005602052604060002090565b146107d8576107c490611aba565b90808210156107d35782610631565b610636565b90610636565b60405162461bcd60e51b815260206004820152602b60248201527f4e6f6e4578697374696e673a205468657265206973206e6f20636c61696d207760448201526a1a5d1a081d1a1a5cc8125160aa1b6064820152608490fd5b506105fb61085e60405160208101903382526020815261085681610495565b519020612985565b90506105f2565b503461000e5760408060031936011261000e5760048035916024359060016108988160ff60065460081c16151514611662565b3033148015610af6575b6108ab906116ca565b6108cd8560026108c5826000526001602052604060002090565b0154146122e5565b806108e56102c4876000526001602052604060002090565b946000915b610a67575b5061090e610906610900875161233b565b87611baf565b519186611baf565b5261092c84610927876000526001602052604060002090565b612352565b6109436106b1866000526001602052604060002090565b80600061095a856000526002602052604060002090565b54925b610a2a575b61099f9061069461098a6106706109d39661066a6106648b6000526002602052604060002090565b9161068f886000526002602052604060002090565b6109b66106b1856000526002602052604060002090565b6109ca866000526001602052604060002090565b0154935161233b565b15610a09575b51927f585a4aef50f8267a92b32412b331b20f7f8b96f2245b253b9cc50dcc621d3397600080a460018152602090f35b610a25610a20856000526001602052604060002090565b612427565b6109d9565b86610a466106708361068f896000526002602052604060002090565b14610a6257610a5490611aba565b82811015610a62578161095d565b610962565b9084610a738288611baf565b5114610af057610a8290611aba565b9081865114610a9157826108ea565b6103c190845191829162461bcd60e51b8352820160809060208152602a60208201527f4e6f6e4578697374696e673a204b657920646f65736e27742068617665207375604082015269636820707572706f736560b01b60608201520190565b906108ef565b506108ab610b14835160208101903382526020815261044781610495565b90506108a2565b60005b838110610b2e5750506000910152565b8181015183820152602001610b1e565b90602091610b5781518092818552858086019101610b1b565b601f01601f1916010190565b503461000e57600036600319011261000e5761033d604051610b8481610495565b6005815264322e322e3160d81b6020820152604051918291602083526020830190610b3e565b6001600160a01b0381160361000e57565b503461000e57604036600319011261000e57602435610bd981610baa565b610bef600160ff60065460081c16151514611662565b3033148015610d64575b610c02906116ca565b60405163c9100bcb60e01b815260048035908201526000918290829060249082906001600160a01b03165afa8015610d57575b8290610cb1575b610c819150610c63610c5e610c5a610c53846115bb565b5460ff1690565b1590565b61172f565b610c7c610c6f826115bb565b805460ff19166001179055565b6117ee565b7f7f484e37f24c0a92f81dd74afa3027b3ea31f2e9fb6b9fa29fe9865f81ac55696040519280a260018152602090f35b503d8083833e610cc181836104b0565b81019060c081830312610d5357610cdb6040820151610baa565b60608101516001600160401b0390818111610d4b5783610cfc9184016117c7565b916080810151828111610d4f5784610d159183016117c7565b5060a0810151918211610d4b570182601f82011215610d4757610c8192816020610d4193519101611790565b50610c3c565b8380fd5b8480fd5b8580fd5b8280fd5b610d5f6117e1565b610c35565b50610c02610d8360405160208101903382526020815261044781610495565b9050610bf9565b8015150361000e57565b503461000e57604036600319011261000e5760206105b2602435610db781610d8a565b610dcd600160ff60065460081c16151514611662565b6004356121c8565b6020908160408183019282815285518094520193019160005b828110610dfc575050505090565b835185529381019392810192600101610dee565b503461000e5760208060031936011261000e5760043560005260058152604060002090604051908181845491828152019360005281600020916000905b828210610e705761033d85610e64818903826104b0565b60405191829182610dd5565b835486529485019460019384019390910190610e4d565b503461000e5760208060031936011261000e5760043560005260028152604060002090604051908181845491828152019360005281600020916000905b828210610edb5761033d85610e64818903826104b0565b835486529485019460019384019390910190610ec4565b503461000e57602036600319011261000e576004356001600160401b0380821161000e573660238301121561000e57816004013590811161000e576024820191602482369201011161000e57610fb291610f58600160ff60065460081c16151514611662565b3033148015610fd9575b610f6b906116ca565b610f8d60ff60405184848237602081868101603881520301902054161561172f565b604051828282376020818481016038815203019020600160ff1982541617905561177b565b7f7f484e37f24c0a92f81dd74afa3027b3ea31f2e9fb6b9fa29fe9865f81ac5569600080a2005b50610f6b610ff860405160208101903382526020815261044781610495565b9050610f62565b503461000e5760c036600319011261000e5760443561101d81610baa565b6001600160401b0360643581811161000e5761103d903690600401610551565b9160843582811161000e57611056903690600401610551565b60a43592831161000e573660238401121561000e5761033d9361108661109294369060248160040135910161051a565b9260243560043561245b565b6040519081529081906020820190565b50606036600319011261000e576004356110bb81610baa565b602435906044356001600160401b03811161000e5761033d927f8afcfabcb00e47a53a8fc3e9f23ff47ee1926194bb1350dd007c50b412a6cee8926111076111bd933690600401610551565b9061111e600160ff60065460081c16151514611662565b600054948161115b879361113c856000526003602052604060002090565b80546001600160a01b0319166001600160a01b03909216919091179055565b846001611172856000526003602052604060002090565b015561119484600261118e866000526003602052604060002090565b016119c7565b61119f600054611aba565b6000556040516001600160a01b039190911695869482919082611ad6565b0390a4604080513360208083019182528252601f1993926111e3929061044790826104b0565b156112045750506111f381611c3f565b506040519081529081906020820190565b3014159081611223575b50156110925761121d81611c3f565b50611092565b604080513360208201908152611255945092909161124d9190839081015b039081018352826104b0565b519020612a16565b3861120e565b503461000e57608036600319011261000e5760043561127981610baa565b6001600160401b0360443581811161000e57611299903690600401610551565b9160643591821161000e576020926112b86105b2933690600401610551565b916024359061180e565b503461000e57604036600319011261000e576004356001600160401b03811161000e576113016112f86020923690600401610551565b60243590612be3565b6040516001600160a01b039091168152f35b503461000e57602036600319011261000e5760043561133181610baa565b6001600160a01b0381161561147857600654600191829160ff1615801561146f575b61135c90612c67565b61136e600160ff196006541617600655565b61138261010061ff00196006541617600655565b604080516001600160a01b039092166020830190815291906113b190829081015b03601f1981018352826104b0565b5190208060026113cb826000526001602052604060002090565b01556113f56113d86104d1565b600181526113f0836000526001602052604060002090565b612cb3565b6114148261140d836000526001602052604060002090565b0160019055565b60016000526002602052611448817fe90b7bceb6e7df5418fb78d8ee546e97c83a08bbccc01a0644d599ccd2a7c2e0611bf7565b7f480000bb1edad8ca1470381cc334b1917fbd51c6531f3a623ea8e0ec7e38a6e9600080a4005b50303b15611353565b60405162461bcd60e51b815260206004820152601f60248201527f696e76616c696420617267756d656e74202d207a65726f2061646472657373006044820152606490fd5b9491936115009361056c97956114f2938852602088015260018060a01b0316604087015260c0606087015260c0860190610b3e565b908482036080860152610b3e565b9160a0818403910152610b3e565b503461000e57602036600319011261000e57600480356000908152602082905260409081902080546001820154600283015484519195929461033d9490936005820193926001600160a01b03169161158e91611588919081019061158390869061157c908290600301611e5d565b03866104b0565b6128ce565b936128ce565b9351968796876114bd565b503461000e57604036600319011261000e5760206105b2602435600435612b4e565b60206115d4918160405193828580945193849201610b1b565b8101603881520301902090565b503461000e57602060ff61160b826115f83661056f565b8160405193828580945193849201610b1b565b8101603881520301902054166040519015158152f35b503461000e57602036600319011261000e57600435600052600160205261033d61164e6040600020611ae7565b6040519182916020835260208301906101ac565b1561166957565b60405162461bcd60e51b815260206004820152603360248201527f496e746572616374696e67207769746820746865206c69627261727920636f6e6044820152723a3930b1ba1034b9903337b93134b23232b71760691b6064820152608490fd5b156116d157565b60405162461bcd60e51b815260206004820152603060248201527f5065726d697373696f6e733a2053656e64657220646f6573206e6f742068617660448201526f65206d616e6167656d656e74206b657960801b6064820152608490fd5b1561173657565b60405162461bcd60e51b815260206004820152601f60248201527f436f6e666c6963743a20436c61696d20616c7265616479207265766f6b6564006044820152606490fd5b81604051928392833781016000815203902090565b9092919261179d816104f0565b916117ab60405193846104b0565b82948284528282011161000e5760206117c5930190610b1b565b565b9080601f8301121561000e57815161056c92602001611790565b506040513d6000823e3d90fd5b61180690602060405192828480945193849201610b1b565b810103902090565b6118b0906118d4939492611845604051948592602084019460018060a01b0316855260408401526060808401526080830190610b3e565b0392611859601f19948581018352826104b0565b5190206040516118a78161189b602082019485603c917f19457468657265756d205369676e6564204d6573736167653a0a3332000000008252601c8201520190565b038581018352826104b0565b51902084612be3565b604080516001600160a01b0390921660208301908152926108569183908101611241565b90816118ea575b506118e557600090565b600190565b6118f491506118fb565b15386118db565b61190660ff916115bb565b54166118e557600090565b90600182811c92168015611941575b602083101461192b57565b634e487b7160e01b600052602260045260246000fd5b91607f1691611920565b916119679183549060031b600019811b9283911b169119161790565b9055565b818110611976575050565b6000815560010161196b565b9190601f811161199157505050565b6117c5926000526020600020906020601f840160051c830193106119bd575b601f0160051c019061196b565b90915081906119b0565b91909182516001600160401b038111611a96575b6119ef816119e98454611911565b84611982565b602080601f8311600114611a2b575081929394600092611a20575b50508160011b916000199060031b1c1916179055565b015190503880611a0a565b90601f19831695611a4185600052602060002090565b926000905b888210611a7e57505083600195969710611a65575b505050811b019055565b015160001960f88460031b161c19169055388080611a5b565b80600185968294968601518155019501930190611a46565b611a9e610456565b6119db565b50634e487b7160e01b600052601160045260246000fd5b6001906000198114611aca570190565b611ad2611aa3565b0190565b90602061056c928181520190610b3e565b9060405191828154918282526020928383019160005283600020936000905b828210611b1c575050506117c5925003836104b0565b855484526001958601958895509381019390910190611b06565b80546001825580600110611b48575050565b6117c59160005260016020600020918201910161196b565b90611b6a82611b36565b906000526020908160002060005b60018110611b865750505050565b82518282015591830191600101611b78565b50634e487b7160e01b600052603260045260246000fd5b6020918151811015611bc4575b60051b010190565b611bcc611b98565b611bbc565b8054821015611bea575b60005260206000200190600090565b611bf2611b98565b611bdb565b611c1961196791805490600160401b821015611c32575b600182018155611bd1565b819391549060031b600019811b9283911b169119161790565b611c3a610456565b611c0e565b61056c90611c59600160ff60065460081c16151514611662565b611f03565b15611c6557565b60405162461bcd60e51b815260206004820152602760248201527f43616e6e6f7420617070726f76652061206e6f6e2d6578697374696e6720657860448201526632b1baba34b7b760c91b6064820152608490fd5b15611cc157565b60405162461bcd60e51b815260206004820152601860248201527f5265717565737420616c726561647920657865637574656400000000000000006044820152606490fd5b15611d0d57565b60405162461bcd60e51b815260206004820152601f60248201527f53656e64657220646f6573206e6f74206861766520616374696f6e206b6579006044820152606490fd5b15611d5957565b60405162461bcd60e51b815260206004820152602360248201527f53656e64657220646f6573206e6f742068617665206d616e6167656d656e74206044820152626b657960e81b6064820152608490fd5b600092918154611db981611911565b92600191808316908115611e125750600114611dd6575b50505050565b90919293945060005260209081600020906000915b858310611e015750505050019038808080611dd0565b805485840152918301918101611deb565b60ff1916845250505081151590910201915038808080611dd0565b3d15611e58573d90611e3e826104f0565b91611e4c60405193846104b0565b82523d6000602084013e565b606090565b9060009291805491611e6e83611911565b918282526001938481169081600014611ecf5750600114611e8f5750505050565b90919394506000526020928360002092846000945b838610611ebb575050505001019038808080611dd0565b805485870183015294019385908201611ea4565b9294505050602093945060ff191683830152151560051b01019038808080611dd0565b90602061056c928181520190611e5d565b611f106000548210611c5e565b611f3f611f3a610c5a6003611f2f856000526003602052604060002090565b015460081c60ff1690565b611cba565b611f63611f56826000526003602052604060002090565b546001600160a01b031690565b6001600160a01b0391908216300361219457604080513360208201908152611f9c92611f97929061044790829081016113a3565b611d52565b807fb3932da477fe5d6c8ff2eafef050c0f3a1af18fc07121001482600f36f3715d860405180611fd181906001602083019252565b0390a2611ffb6003611fed836000526003602052604060002090565b01805460ff19166001179055565b600080612015611f56846000526003602052604060002090565b612053600161202e866000526003602052604060002090565b01546002612046876000526003602052604060002090565b0160405192838092611daa565b03925af161205f611e2d565b50156121115761208e600361207e836000526003602052604060002090565b01805461ff001916610100179055565b6120a5611f56826000526003602052604060002090565b907f1f920dbda597d7bf95035464170fa58d0a4b57f13a1c315ace6793b9f63688b860016120dd836000526003602052604060002090565b01549360026120f6846000526003602052604060002090565b0193612109604051928392169582611ef2565b0390a4600190565b612128611f56826000526003602052604060002090565b907fe10c49d9f7c71da23262367013434763cfdb2332267641728d25cd712c5c6a686001612160836000526003602052604060002090565b0154936002612179846000526003602052604060002090565b019361218c604051928392169582611ef2565b0390a4600090565b6040805133602082019081526121c3926121be92906121b690829081016113a3565b519020612ab9565b611d06565b611f9c565b6121d56000548210611c5e565b6121f4611f3a610c5a6003611f2f856000526003602052604060002090565b600161220d611f56836000526003602052604060002090565b92818060a01b039384309116146000146122be5760408051336020820190815261224392611f97929061044790829081016113a3565b604051811515815283907fb3932da477fe5d6c8ff2eafef050c0f3a1af18fc07121001482600f36f3715d890602090a215150361229357611ffb6003611fed836000526003602052604060002090565b6122b991506122ae6003916000526003602052604060002090565b01805460ff19169055565b600090565b6040805133602082019081526122e0926121be92906121b690829081016113a3565b612243565b156122ec57565b60405162461bcd60e51b815260206004820152602160248201527f4e6f6e4578697374696e673a204b65792069736e2774207265676973746572656044820152601960fa1b6064820152608490fd5b60001981019190821161234a57565b6117c5611aa3565b8151916001600160401b0383116123da575b600160401b83116123cd575b81548383558084106123af575b50602080910191600052806000209060005b84811061239d575050505050565b8351838201559281019260010161238f565b6123c79083600052846020600020918201910161196b565b3861237d565b6123d5610456565b612370565b6123e2610456565b612364565b805490811561241157600019918201916124018383611bd1565b909182549160031b1b1916905555565b634e487b7160e01b600052603160045260246000fd5b6002600091805483825580612442575b508260018201550155565b818452602084206124559181019061196b565b38612437565b9294909394612476600160ff60065460081c16151514611662565b30331480156126b2575b612489906126d8565b6001600160a01b03831694308603612632575b604080516001600160a01b038616602082019081529181018790526124c481606081016113a3565b519020968794866124df876000526004602052604060002090565b558260016124f7886000526004602052604060002090565b015561251384600361118e896000526004602052604060002090565b61252d82600461118e896000526004602052604060002090565b61254785600561118e896000526004602052604060002090565b8761257061256460026107088a6000526004602052604060002090565b6001600160a01b031690565b146125ff57936125f9916125ed7f46149b18aa084502c3f12bc75e19eda8bda8d102b82cce8474677a6d0d5f43c5966125b7896102ee8c6000526005602052604060002090565b60026125cd8a6000526004602052604060002090565b0180546001600160a01b0319166001600160a01b03909216919091179055565b604051948594856127c8565b0390a490565b507f3bab293fc00db832d7619a9299914251b8747c036867ec056cbd506f60135b13936125f991604051948594856127c8565b60405163604b4d3760e11b815261267290602081806126578c888c3060048601612754565b03818b5afa9081156126a5575b600091612677575b5061278c565b61249c565b612698915060203d811161269e575b61269081836104b0565b81019061273f565b3861266c565b503d612686565b6126ad6117e1565b612664565b506124896126d160405160208101903382526020815261085681610495565b9050612480565b156126df57565b60405162461bcd60e51b815260206004820152603260248201527f5065726d697373696f6e733a2053656e64657220646f6573206e6f74206861766044820152716520636c61696d207369676e6572206b657960701b6064820152608490fd5b9081602091031261000e575161056c81610d8a565b9261056c949261277e9260018060a01b031685526020850152608060408501526080840190610b3e565b916060818403910152610b3e565b1561279357565b60405162461bcd60e51b815260206004820152600d60248201526c696e76616c696420636c61696d60981b6044820152606490fd5b926127e861056c959361277e938652608060208701526080860190610b3e565b908482036040860152610b3e565b9261281661056c9593612824938652608060208701526080860190611e5d565b908482036040860152611e5d565b916060818403910152611e5d565b61283c8154611911565b9081612846575050565b81601f60009311600114612858575055565b8183526020832061287491601f0160051c81019060010161196b565b8160208120915555565b600560009182815582600182015582600282015561289e60038201612832565b6128aa60048201612832565b016128b58154611911565b806128bf57505050565b601f8111600114612858575055565b906117c56128e29260405193848092611e5d565b03836104b0565b60005260018060205260406000206002604051916129068361046d565b61290f81611ae7565b835283810154602084015201548060408301521561297e57600090825b612939575b505050600090565b80519182518110156129785783612951828295611baf565b51148015612973575b61296d5761296790611aba565b9161292c565b50505090565b61295a565b50612931565b5050600090565b60005260018060205260406000206002604051916129a28361046d565b6129ab81611ae7565b835283810154602084015201548060408301521561297e57600090825b6129d457505050600090565b8051918251811015612978576129eb818594611baf565b51838114908115612a0b575b5061296d57612a0590611aba565b916129c8565b6003915014386129f7565b600052600180602052604060002060405190612a318261046d565b612a3a81611ae7565b82528281015460208301526002809101548060408401521561293157600091835b612a69575b50505050600090565b8051928351811015612ab357612a80818695611baf565b5183858214918215612aa9575b5050612aa257612a9c90611aba565b92612a5b565b5050505090565b1490508338612a8d565b50612a60565b600052600180602052604060002060405190612ad48261046d565b612add81611ae7565b82528281015460208301526002809101548060408401521561293157600091835b612b0b5750505050600090565b8051928351811015612ab357612b22818695611baf565b5183858214918215612b44575b5050612aa257612b3e90611aba565b92612afe565b1490508338612b2f565b60005260019081602052604060002090600260405192612b6d8461046d565b612b7681611ae7565b845284810154602085015201548060408401521561293157600091835b612ba05750505050600090565b8051928351811015612ab357612bb7818695611baf565b5183858214918215612bd9575b5050612aa257612bd390611aba565b92612b93565b1490508338612bc4565b906000916041815103612c62576000918160209460ff8660809501519160606040850151940151901a601b8110612c4a575b60405194855216868401526040830152606082015282805260015afa15612c3d575b60005190565b612c456117e1565b612c37565b601b0181811115612c1557612c5d611aa3565b612c15565b505090565b15612c6e57565b60405162461bcd60e51b815260206004820152601e60248201527f496e697469616c206b65792077617320616c72656164792073657475702e00006044820152606490fd5b90612cbd82611b36565b906000526020908160002060005b60018110612cd95750505050565b825160ff168282015591830191600101612ccb56fea2646970667358221220fc1d1491787220f406a4b1aab65c67bcc73f5b409921d50c7d07e2ccfc796fe364736f6c63430008110033","linkReferences":{}},"methodIdentifiers":{"addClaim(uint256,uint256,address,bytes,bytes,string)":"b1a34e0d","addKey(bytes32,uint256,uint256)":"1d381240","approve(uint256,bool)":"747442d3","execute(address,uint256,bytes)":"b61d27f6","getClaim(bytes32)":"c9100bcb","getClaimIdsByTopic(uint256)":"80e9e9e1","getKey(bytes32)":"12aaac70","getKeyPurposes(bytes32)":"fb307b34","getKeysByPurpose(uint256)":"9010f726","getRecoveredAddress(bytes,bytes32)":"c3b129e3","initialize(address)":"c4d66de8","isClaimRevoked(bytes)":"2646b264","isClaimValid(address,uint256,bytes,bytes)":"c0969a6e","keyHasPurpose(bytes32,uint256)":"d202158d","removeClaim(bytes32)":"4eee424a","removeKey(bytes32,uint256)":"53d413c5","revokeClaim(bytes32,address)":"73c33708","revokeClaimBySignature(bytes)":"9f7f9edd","revokedClaims(bytes)":"d2345249","version()":"54fd4d50"},"id":97}