{"abi":[{"type":"constructor","inputs":[{"name":"decimals_","type":"uint8","internalType":"uint8"},{"name":"initialPrice","type":"int256","internalType":"int256"}],"stateMutability":"nonpayable"},{"type":"function","name":"decimals","inputs":[],"outputs":[{"name":"","type":"uint8","internalType":"uint8"}],"stateMutability":"view"},{"type":"function","name":"description","inputs":[],"outputs":[{"name":"","type":"string","internalType":"string"}],"stateMutability":"pure"},{"type":"function","name":"getRoundData","inputs":[{"name":"_roundId","type":"uint80","internalType":"uint80"}],"outputs":[{"name":"roundId","type":"uint80","internalType":"uint80"},{"name":"answer","type":"int256","internalType":"int256"},{"name":"startedAt","type":"uint256","internalType":"uint256"},{"name":"updatedAt","type":"uint256","internalType":"uint256"},{"name":"answeredInRound","type":"uint80","internalType":"uint80"}],"stateMutability":"view"},{"type":"function","name":"latestRoundData","inputs":[],"outputs":[{"name":"roundId","type":"uint80","internalType":"uint80"},{"name":"answer","type":"int256","internalType":"int256"},{"name":"startedAt","type":"uint256","internalType":"uint256"},{"name":"updatedAt","type":"uint256","internalType":"uint256"},{"name":"answeredInRound","type":"uint80","internalType":"uint80"}],"stateMutability":"view"},{"type":"function","name":"updatePrice","inputs":[{"name":"newPrice","type":"int256","internalType":"int256"}],"outputs":[],"stateMutability":"nonpayable"},{"type":"function","name":"updateTimestamp","inputs":[{"name":"newTimestamp","type":"uint256","internalType":"uint256"}],"outputs":[],"stateMutability":"nonpayable"},{"type":"function","name":"version","inputs":[],"outputs":[{"name":"","type":"uint256","internalType":"uint256"}],"stateMutability":"pure"}],"bytecode":{"object":"0x60a03461008557601f61037438819003918201601f19168301916001600160401b0383118484101761008a5780849260409485528339810103126100855780519060ff821682036100855760200151608091909152600055600180546001600160501b03191681179055426002556040516102d390816100a18239608051816102790152f35b600080fd5b634e487b7160e01b600052604160045260246000fdfe60806040908082526004908136101561001757600080fd5b600091823560e01c918263313ce567146102605750816351ab28a91461024657816354fd4d501461022a5781637284e4161461017f5781639a6fc8f514610122578163d4c19bda146100c1575063feaf968c1461007357600080fd5b346100be57806003193601126100be57600154905460025492516001600160501b0390921680835260208301919091524260408301526060820192909252608081019190915260a090f35b80fd5b90503461011e57602036600319011261011e5780358255600154906001600160501b03908183169082821461010b575060010116906001600160501b031916176001554260025580f35b634e487b7160e01b855260119052602484fd5b5080fd5b90503461011e57602036600319011261011e5735906001600160501b03821682036100be575460025492516001600160501b039290921680835260208301919091524260408301526060820192909252608081019190915260a090f35b839150346102265782600319360112610226578151908282019082821067ffffffffffffffff83111761021357508252600f81526020906e26b7b1b59020b3b3b932b3b0ba37b960891b8282015282519382859384528251928382860152825b8481106101fd57505050828201840152601f01601f19168101030190f35b81810183015188820188015287955082016101df565b634e487b7160e01b855260419052602484fd5b8280fd5b82843461011e578160031936011261011e576020905160018152f35b90503461011e57602036600319011261011e573560025580f35b83903461011e578160031936011261011e5760209060ff7f0000000000000000000000000000000000000000000000000000000000000000168152f3fea26469706673582212206c3fcd5803e8373f0d255bb6e1082ed107e431dcb48afbeb9673fa404e13580264736f6c63430008110033","linkReferences":{}},"methodIdentifiers":{"decimals()":"313ce567","description()":"7284e416","getRoundData(uint80)":"9a6fc8f5","latestRoundData()":"feaf968c","updatePrice(int256)":"d4c19bda","updateTimestamp(uint256)":"51ab28a9","version()":"54fd4d50"},"id":11}