{"abi":[{"type":"function","name":"createShare","inputs":[{"name":"_name","type":"string","internalType":"string"},{"name":"_symbol","type":"string","internalType":"string"},{"name":"_decimals","type":"uint8","internalType":"uint8"},{"name":"_owner","type":"address","internalType":"address"},{"name":"_tokenAgents","type":"address[]","internalType":"address[]"},{"name":"_irAgents","type":"address[]","internalType":"address[]"},{"name":"_irs","type":"address","internalType":"address"},{"name":"_claimTopics","type":"uint256[]","internalType":"uint256[]"},{"name":"_issuers","type":"address[]","internalType":"address[]"},{"name":"_issuerClaims","type":"uint256[][]","internalType":"uint256[][]"},{"name":"_maxSupply","type":"uint256","internalType":"uint256"}],"outputs":[{"name":"","type":"address","internalType":"address"}],"stateMutability":"nonpayable"},{"type":"function","name":"deployShareSuite","inputs":[{"name":"_salt","type":"string","internalType":"string"},{"name":"_tokenDetails","type":"tuple","internalType":"struct ITREXFactory.TokenDetails","components":[{"name":"owner","type":"address","internalType":"address"},{"name":"name","type":"string","internalType":"string"},{"name":"symbol","type":"string","internalType":"string"},{"name":"decimals","type":"uint8","internalType":"uint8"},{"name":"irs","type":"address","internalType":"address"},{"name":"ONCHAINID","type":"address","internalType":"address"},{"name":"irAgents","type":"address[]","internalType":"address[]"},{"name":"tokenAgents","type":"address[]","internalType":"address[]"},{"name":"complianceModules","type":"address[]","internalType":"address[]"},{"name":"complianceSettings","type":"bytes[]","internalType":"bytes[]"}]},{"name":"_claimDetails","type":"tuple","internalType":"struct ITREXFactory.ClaimDetails","components":[{"name":"claimTopics","type":"uint256[]","internalType":"uint256[]"},{"name":"issuers","type":"address[]","internalType":"address[]"},{"name":"issuerClaims","type":"uint256[][]","internalType":"uint256[][]"}]}],"outputs":[{"name":"","type":"address","internalType":"address"}],"stateMutability":"nonpayable"},{"type":"function","name":"editMaxSupplyModule","inputs":[{"name":"_module","type":"address","internalType":"address"}],"outputs":[],"stateMutability":"nonpayable"},{"type":"function","name":"governance","inputs":[],"outputs":[{"name":"","type":"address","internalType":"contract IGovernance"}],"stateMutability":"view"},{"type":"function","name":"idToShare","inputs":[{"name":"","type":"uint256","internalType":"uint256"}],"outputs":[{"name":"","type":"address","internalType":"address"}],"stateMutability":"view"},{"type":"function","name":"initialize","inputs":[{"name":"_trexFactoryAddr","type":"address","internalType":"address"},{"name":"_salesManagerAddr","type":"address","internalType":"address"},{"name":"_maxSupplyModuleAddr","type":"address","internalType":"address"},{"name":"_governance","type":"address","internalType":"address"}],"outputs":[],"stateMutability":"nonpayable"},{"type":"function","name":"isContractTrexFactoryOwner","inputs":[],"outputs":[{"name":"","type":"bool","internalType":"bool"}],"stateMutability":"view"},{"type":"function","name":"maxSupplyModule","inputs":[],"outputs":[{"name":"","type":"address","internalType":"address"}],"stateMutability":"view"},{"type":"function","name":"proxiableUUID","inputs":[],"outputs":[{"name":"","type":"bytes32","internalType":"bytes32"}],"stateMutability":"view"},{"type":"function","name":"salesManagerAddress","inputs":[],"outputs":[{"name":"","type":"address","internalType":"address"}],"stateMutability":"view"},{"type":"function","name":"shareIdIndex","inputs":[],"outputs":[{"name":"","type":"uint256","internalType":"uint256"}],"stateMutability":"view"},{"type":"function","name":"shareToId","inputs":[{"name":"","type":"address","internalType":"address"}],"outputs":[{"name":"","type":"uint256","internalType":"uint256"}],"stateMutability":"view"},{"type":"function","name":"trexFactory","inputs":[],"outputs":[{"name":"","type":"address","internalType":"address"}],"stateMutability":"view"},{"type":"function","name":"upgradeTo","inputs":[{"name":"newImplementation","type":"address","internalType":"address"}],"outputs":[],"stateMutability":"nonpayable"},{"type":"function","name":"upgradeToAndCall","inputs":[{"name":"newImplementation","type":"address","internalType":"address"},{"name":"data","type":"bytes","internalType":"bytes"}],"outputs":[],"stateMutability":"payable"},{"type":"event","name":"AdminChanged","inputs":[{"name":"previousAdmin","type":"address","indexed":false,"internalType":"address"},{"name":"newAdmin","type":"address","indexed":false,"internalType":"address"}],"anonymous":false},{"type":"event","name":"BeaconUpgraded","inputs":[{"name":"beacon","type":"address","indexed":true,"internalType":"address"}],"anonymous":false},{"type":"event","name":"EditMaxSupplyModule","inputs":[{"name":"maxSupplyModule","type":"address","indexed":false,"internalType":"address"}],"anonymous":false},{"type":"event","name":"Initialized","inputs":[{"name":"version","type":"uint8","indexed":false,"internalType":"uint8"}],"anonymous":false},{"type":"event","name":"ShareCreated","inputs":[{"name":"shareId","type":"uint256","indexed":true,"internalType":"uint256"},{"name":"shareAddress","type":"address","indexed":true,"internalType":"address"},{"name":"shareName","type":"string","indexed":false,"internalType":"string"},{"name":"shareSymbol","type":"string","indexed":false,"internalType":"string"},{"name":"shareDecimals","type":"uint8","indexed":false,"internalType":"uint8"}],"anonymous":false},{"type":"event","name":"Upgraded","inputs":[{"name":"implementation","type":"address","indexed":true,"internalType":"address"}],"anonymous":false}],"bytecode":{"object":"0x60a080604052346100315730608052612525908161003782396080518181816111de015281816112ce01526116220152f35b600080fdfe6101e080604052600436101561001457600080fd5b60003560e01c90816303c19ca0146118fd575080633659cfe6146115fe5780634f1ef2861461128f57806352d1902d146111cb5780635aa6e675146111a2578063915575b0146111685780639a44f1b21461113f5780639b937d4714611068578063b22f103b1461104a578063c89b023e14611016578063cc672215146107d4578063d58f5d7b146107ab578063ea248e9514610786578063ee04562d146103f85763f8c8765e146100c557600080fd5b346103f35760803660031901126103f3576100de611921565b6024906001600160a01b0390823582811691908290036103f3576044918235928484168094036103f357610110611937565b956000549560ff8760081c1615968780986103e6575b80156103cf575b156103755760ff19811660011760005587610363575b506000549760ff8960081c161561030c5781169485156102c9571691821561027c57831561022e5785156101dd5750506001600160601b0360a01b9283606c541617606c5582606554161760655581606654161760665560675416176067556101a857005b61ff0019166000557f7f26b83ff96e1f2b6a682f133852f6798a09c465da95921460cefb3847402498602060405160018152a1005b907f466163746f72795f496e76616c69644d6178537570706c794d6f64756c65416460849260256040519362461bcd60e51b85526020600486015284015282015264647265737360d81b6064820152fd5b907f466163746f72795f496e76616c696453616c65734d616e61676572416464726560849260226040519362461bcd60e51b85526020600486015284015282015261737360f01b6064820152fd5b907f466163746f72795f496e76616c696454524558466163746f727941646472657360849260216040519362461bcd60e51b855260206004860152840152820152607360f81b6064820152fd5b60405162461bcd60e51b8152602060048201819052818501527f466163746f72795f496e76616c6964476f7665726e616e63654164647265737381860152606490fd5b60405162461bcd60e51b815260206004820152602b818501527f496e697469616c697a61626c653a20636f6e7472616374206973206e6f742069818601526a6e697469616c697a696e6760a81b6064820152608490fd5b61ffff19166101011760005538610143565b60405162461bcd60e51b815260206004820152602e818501527f496e697469616c697a61626c653a20636f6e747261637420697320616c726561818601526d191e481a5b9a5d1a585b1a5e995960921b6064820152608490fd5b50303b15801561012d5750600160ff82161461012d565b50600160ff821610610126565b600080fd5b346103f3576003196060368201126103f3576001600160401b036004358181116103f35761042a903690600401611a0a565b6024928335918383116103f35761014090818385360301126103f35760405191820182811086821117610771576040526104668460040161194d565b8252858401358581116103f3576104839060043691870101611a0a565b946020958684015260448501358181116103f3576104a79060043691880101611a0a565b6040840152606485013560ff811681036103f35760608401526104cc6084860161194d565b60808401526104dd60a4860161194d565b60a084015260c48501358181116103f3576104fe9060043691880101611af2565b60c084015260e48501358181116103f35761051f9060043691880101611af2565b9460e084019586526101048101358281116103f3576105449060043691840101611af2565b610100850152610124810135908282116103f35701366023820112156103f35760048101359061057382611a85565b916105816040519384611997565b808352898984019160051b830101913683116103f3578a8101915b83831061074b5750505050610120840152604435938185116103f35760609085360301126103f357604051936105d185611961565b80600401358281116103f3576105ed9060043691840101611b5b565b8552878101358281116103f35761060a9060043691840101611af2565b8786015260448101359182116103f35701366023820112156103f3576106399036908860048201359101611b76565b604084810191909152606c549051631648d21360e11b81523360048201523060248201526001600160e01b03196000351660448201526001600160a01b039590918790839060649082908a165afa91821561073f576005926106a391600091610712575b50611bfd565b6106b36106ae611d07565b611c41565b5151116106ce57906106c59291611e1e565b60405191168152f35b60405162461bcd60e51b8152600481018690526017818801527f466163746f72795f4d617835546f6b656e4167656e74730000000000000000006044820152606490fd5b6107329150893d8b11610738575b61072a8183611997565b810190611be5565b8a61069d565b503d610720565b6040513d6000823e3d90fd5b82358681116103f3578b9161076683928f3691870101611a0a565b81520192019161059c565b86634e487b7160e01b60005260416004526000fd5b346103f35760003660031901126103f35760206107a1611d07565b6040519015158152f35b346103f35760003660031901126103f3576067546040516001600160a01b039091168152602090f35b346103f3576101603660031901126103f3576004356001600160401b0381116103f357610805903690600401611a28565b61018052610120526024356001600160401b0381116103f35761082c903690600401611a28565b60e05260c05260443560ff811681036103f357610847611937565b6084356001600160401b0381116103f357610866903690600401611a55565b610160526101a0526001600160401b0360a435116103f35761088d3660a435600401611a55565b909260c4356001600160a01b03811690036103f3576001600160401b0360e435116103f3576108c13660e435600401611a55565b60a0526001600160401b0361010435116103f3576108e53661010435600401611a55565b9590936001600160401b0361012435116103f3576109093661012435600401611a55565b608091909152606c54604051631648d21360e11b81523360048201523060248201526001600160e01b031960003516604482015291929190602090829060649082906001600160a01b03165afa801561073f5761096d91600091610ffd5750611bfd565b6109786106ae611d07565b6101443515610fb8576067546001600160a01b0316958615610f735760046101605111610f2e5760058211610ef25760c4356001600160a01b0316158015610e7b575b15610e2a57600560a05111610de55760058911610daa57888303610d5b5761016051600181018111610ac2576109f66001610a039201611a85565b6040518061010052611997565b600161016051016101005152601f19610a2160016101605101611a85565b013660206101005101376066546001600160a01b03166101405260005b610160518060ff83161015610b2e576101405190610a73610a6e60018060a01b039260ff8616906101a051611cac565b611cd2565b1614610ad857610a90610a6e60ff8316610160516101a051611cac565b610aa060ff831661010051611cf3565b6001600160a01b03909116905260ff81811614610ac25760ff16600101610a3e565b634e487b7160e01b600052601160045260246000fd5b60405162461bcd60e51b815260206004820152602860248201527f466163746f72795f53616c65734d616e61676572416c7265616479496e546f6b604482015267656e4167656e747360c01b6064820152608490fd5b505088886101005180519081600019810111610ac257610b579061014051926000190190611cf3565b5260405198610b658a61197c565b60018a52602036818c013760405190610b7d8261197c565b6001825260005b60208110610d4a5750604051998a6101c0528a6101408101106001600160401b036101408d011117610d345760209b610c3c610cd49a610cc69960ff610d229f9586610ca29a610140610c6a990160405260018060a01b03169052610bf03661018051610120516119d3565b60206101c0510152610c073660e05160c0516119d3565b60406101c05101521660606101c051015260018060a01b0360c4351660806101c0510152600060a06101c05101523691611a9c565b60c06101c05101526101005160e06101c0510152806101006101c05101526101206101c05101938452611ce6565b52604051906306f8b44b60e41b8b83015261014435602483015260248252610c9182611961565b5190610c9c82611ce6565b52611ce6565b50610cbd60405196610cb388611961565b60a0513691611b0d565b86523691611a9c565b858401523690608051611b76565b6040820152604051610180516101205185830137610d1884826101805181018281016000815260e0519060c051903760e05101600083820152038084520182611997565b6101c05190611e1e565b6040516001600160a01b039091168152f35b634e487b7160e01b600052604160045260246000fd5b806060602080938601015201610b84565b60405162461bcd60e51b815260206004820152602160248201527f466163746f72795f436c61696d4973737565724c656e6774684d69736d6174636044820152600d60fb1b6064820152608490fd5b60405162461bcd60e51b8152602060048201526013602482015272466163746f72795f4d6178354973737565727360681b6044820152606490fd5b60405162461bcd60e51b815260206004820152601760248201527f466163746f72795f4d617835436c61696d546f706963730000000000000000006044820152606490fd5b60405162461bcd60e51b815260206004820152602360248201527f466163746f72795f4952534e6f74304f724f776e6564427954524558466163746044820152626f727960e81b6064820152608490fd5b50604051638da5cb5b60e01b815260208160048160c4356001600160a01b03165afa90811561073f57600091610ec3575b506065546001600160a01b039182169116146109bb565b610ee5915060203d602011610eeb575b610edd8183611997565b810190611c8d565b8a610eac565b503d610ed3565b60405162461bcd60e51b8152602060048201526014602482015273466163746f72795f4d61783549524167656e747360601b6044820152606490fd5b60405162461bcd60e51b815260206004820152601760248201527f466163746f72795f4d617834546f6b656e4167656e74730000000000000000006044820152606490fd5b60405162461bcd60e51b815260206004820152601d60248201527f466163746f72795f4d6178537570706c794d6f64756c654e6f745365740000006044820152606490fd5b60405162461bcd60e51b815260206004820152601960248201527f466163746f72795f4d6178537570706c795265717569726564000000000000006044820152606490fd5b610732915060203d6020116107385761072a8183611997565b346103f35760203660031901126103f3576004356000526069602052602060018060a01b0360406000205416604051908152f35b346103f35760003660031901126103f3576020606854604051908152f35b346103f35760203660031901126103f357611081611921565b606c54604051631648d21360e11b81523360048201523060248201526001600160e01b031960003516604482015291906001600160a01b03906020908490606490829085165afa91821561073f576111046020937f01ed10e1ada9e2da8f9c7c64515cd91cd8a90523b7c96593cd7ad01b47904785956000916111225750611bfd565b16806001600160601b0360a01b6067541617606755604051908152a1005b6111399150853d81116107385761072a8183611997565b8661069d565b346103f35760003660031901126103f3576065546040516001600160a01b039091168152602090f35b346103f35760203660031901126103f3576001600160a01b03611189611921565b16600052606a6020526020604060002054604051908152f35b346103f35760003660031901126103f357606c546040516001600160a01b039091168152602090f35b346103f35760003660031901126103f3577f00000000000000000000000000000000000000000000000000000000000000006001600160a01b031630036112245760206040516000805160206124d08339815191528152f35b60405162461bcd60e51b815260206004820152603860248201527f555550535570677261646561626c653a206d757374206e6f742062652063616c60448201527f6c6564207468726f7567682064656c656761746563616c6c00000000000000006064820152608490fd5b60403660031901126103f3576112a3611921565b6024356001600160401b0381116103f3576112c2903690600401611a0a565b6001600160a01b0391907f000000000000000000000000000000000000000000000000000000000000000083166112fb30821415612339565b6113186000805160206124d083398151915291858354161461239a565b606c54604051631648d21360e11b8152336004820152306024820152631b2ce7f360e11b60448201526020959186908290606490829086165afa801561073f57611369916000916115e15750611bfd565b7f4910fdfa16fed3260ed0e7147f7cc6da11a60208b5b9406d12a635614ffd91435460ff16156113a2575050506113a091506123fb565b005b83929316906040516352d1902d60e01b81528581600481865afa600091816115b2575b506114265760405162461bcd60e51b815260048101879052602e60248201527f45524331393637557067726164653a206e657720696d706c656d656e7461746960448201526d6f6e206973206e6f74205555505360901b6064820152608490fd5b0361155b57611434826123fb565b604051907fbc7cd75a20ee27fd9adebab32041f755214dbc6bffa90cc0225b39da2e5c2d3b600080a2825115801590611553575b61146e57005b813b1561150257506000828192856113a09695519201905af43d156114fa573d90611498826119b8565b916114a66040519384611997565b82523d60008484013e5b7f416464726573733a206c6f772d6c6576656c2064656c65676174652063616c6c604051936114de85611961565b60278552840152660819985a5b195960ca1b604084015261248b565b6060906114b0565b62461bcd60e51b815260048101849052602660248201527f416464726573733a2064656c65676174652063616c6c20746f206e6f6e2d636f6044820152651b9d1c9858dd60d21b6064820152608490fd5b506001611468565b60405162461bcd60e51b815260048101859052602960248201527f45524331393637557067726164653a20756e737570706f727465642070726f786044820152681a58589b195555525160ba1b6064820152608490fd5b9091508681813d83116115da575b6115ca8183611997565b810103126103f3575190876113c5565b503d6115c0565b6115f89150873d89116107385761072a8183611997565b8761069d565b346103f3576020806003193601126103f357611618611921565b6001600160a01b037f0000000000000000000000000000000000000000000000000000000000000000811661164f30821415612339565b61166c6000805160206124d083398151915291838354161461239a565b606c54604051631648d21360e11b8152336004820152306024820152631b2ce7f360e11b60448201529085908290606490829087165afa801561073f576116ba916000916118e65750611bfd565b60405190848201928284106001600160401b03851117610d3457836040526000835260ff7f4910fdfa16fed3260ed0e7147f7cc6da11a60208b5b9406d12a635614ffd9143541660001461171657505050506113a091506123fb565b8416906040516352d1902d60e01b81528681600481865afa600091816118b7575b506117985760405162461bcd60e51b815260048101889052602e60248201527f45524331393637557067726164653a206e657720696d706c656d656e7461746960448201526d6f6e206973206e6f74205555505360901b6064820152608490fd5b03611860576117a6846123fb565b604051907fbc7cd75a20ee27fd9adebab32041f755214dbc6bffa90cc0225b39da2e5c2d3b600080a2815115801590611858575b6117e057005b833b1561180757506113a09392600092839251915af43d156114fa573d90611498826119b8565b62461bcd60e51b815260048101859052602660248201527f416464726573733a2064656c65676174652063616c6c20746f206e6f6e2d636f6044820152651b9d1c9858dd60d21b6064820152608490fd5b5060006117da565b60405162461bcd60e51b815260048101869052602960248201527f45524331393637557067726164653a20756e737570706f727465642070726f786044820152681a58589b195555525160ba1b6064820152608490fd5b9091508781813d83116118df575b6118cf8183611997565b810103126103f357519088611737565b503d6118c5565b6111399150863d88116107385761072a8183611997565b346103f35760003660031901126103f3576066546001600160a01b03168152602090f35b600435906001600160a01b03821682036103f357565b606435906001600160a01b03821682036103f357565b35906001600160a01b03821682036103f357565b606081019081106001600160401b03821117610d3457604052565b604081019081106001600160401b03821117610d3457604052565b90601f801991011681019081106001600160401b03821117610d3457604052565b6001600160401b038111610d3457601f01601f191660200190565b9291926119df826119b8565b916119ed6040519384611997565b8294818452818301116103f3578281602093846000960137010152565b9080601f830112156103f357816020611a25933591016119d3565b90565b9181601f840112156103f3578235916001600160401b0383116103f357602083818601950101116103f357565b9181601f840112156103f3578235916001600160401b0383116103f3576020808501948460051b0101116103f357565b6001600160401b038111610d345760051b60200190565b9291611aa782611a85565b91611ab56040519384611997565b829481845260208094019160051b81019283116103f357905b828210611adb5750505050565b838091611ae78461194d565b815201910190611ace565b9080601f830112156103f357816020611a2593359101611a9c565b9291611b1882611a85565b91611b266040519384611997565b829481845260208094019160051b81019283116103f357905b828210611b4c5750505050565b81358152908301908301611b3f565b9080601f830112156103f357816020611a2593359101611b0d565b92919092611b8384611a85565b91611b916040519384611997565b829480845260208094019060051b8301928284116103f35780915b848310611bbb57505050505050565b82356001600160401b0381116103f3578691611bda8684938601611b5b565b815201920191611bac565b908160209103126103f3575180151581036103f35790565b15611c0457565b60405162461bcd60e51b8152602060048201526015602482015274119858dd1bdc9e57d39bdd105d5d1a1bdc9a5e9959605a1b6044820152606490fd5b15611c4857565b60405162461bcd60e51b815260206004820152601d60248201527f466163746f72795f4e6f744f776e65724f6654524558466163746f72790000006044820152606490fd5b908160209103126103f357516001600160a01b03811681036103f35790565b9190811015611cbc5760051b0190565b634e487b7160e01b600052603260045260246000fd5b356001600160a01b03811681036103f35790565b805115611cbc5760200190565b8051821015611cbc5760209160051b010190565b606554604051638da5cb5b60e01b8152906001600160a01b03906020908390600490829085165afa91821561073f57600092611d45575b5016301490565b611d5e91925060203d8111610eeb57610edd8183611997565b9038611d3e565b60005b838110611d785750506000910152565b8181015183820152602001611d68565b90602091611da181518092818552858086019101611d65565b601f01601f1916010190565b90815180825260208080930193019160005b828110611dcd575050505090565b83516001600160a01b031685529381019392810192600101611dbf565b90815180825260208080930193019160005b828110611e0a575050505090565b835185529381019392810192600101611dfc565b9092919260408101516040516020810190611e5581611e47600095602086526040830190611d88565b03601f198101835282611997565b51902092838252606b60205260ff6040832054166122f457611eb36034606c54926040519381611e8f869351809260208087019101611d65565b8201906001600160601b03199060601b166020820152036014810184520182611997565b60655460405163182e67ed60e31b8082526020600483018190529098926001600160a01b031691908180611eea6024820188611d88565b0381855afa9081156122e95785916122ca575b506001600160a01b031661228557803b156122815760405163cf753d3760e01b8152606060048201529184918391611f386064840187611d88565b9060031984830301602485015260018060a01b038951168252611ff3611fdf611fcd8b60ff6060611f8d611f7b60208501516101408060208d01528b0190611d88565b60408501518a820360408c0152611d88565b9201511660608701528c608060018060a01b039101511660808701528c60a0600180821b039101511660a087015260c08d015186820360c0880152611dad565b60e08c015185820360e0870152611dad565b610100808c01519085830390860152611dad565b61012092838b015193818303910152825180825260208201916020808360051b83010195019288915b83831061224a575050505050600319848303016044850152604061205e61204c8351606086526060860190611dea565b60208401518582036020870152611dad565b910151916040818303910152815180825260208201916020808360051b83010194019287915b8383106122175750505050508383809203925af1801561220c576121da575b506020906120d3959660018060a01b03606554169060405180988194829383528660048401526024830190611d88565b03915afa9384156121cd5781946121a9575b5060409060016068540180606855815260696020528181209360018060a01b03861694856001600160601b0360a01b825416179055606854858352606a602052838320558152606b60205220600160ff198254161790557fa58361bbbbe6325d0b3f0cfcbb0c7f8106df813b0d1d015341082e99fe80916861218f6068549260208101519061219d60ff606060408401519301511691604051948594606086526060860190611d88565b908482036020860152611d88565b9060408301520390a390565b60409194506121c69060203d602011610eeb57610edd8183611997565b93906120e5565b50604051903d90823e3d90fd5b6001600160401b0381979397116121f85760405290949060206120a3565b634e487b7160e01b87526041600452602487fd5b6040513d85823e3d90fd5b9295975092955092602080612238600193601f198682030187528951611dea565b9701930193018795938a979592612084565b92956001929597995060209194985061226e8291601f198682030187528a51611d88565b9801930193018a9795938997959261201c565b8380fd5b60405162461bcd60e51b815260206004820152601760248201527f466163746f72795f53616c74416c7265616479557365640000000000000000006044820152606490fd5b6122e3915060203d602011610eeb57610edd8183611997565b38611efd565b6040513d87823e3d90fd5b60405162461bcd60e51b815260206004820152601960248201527f466163746f72795f53796d626f6c416c726561647955736564000000000000006044820152606490fd5b1561234057565b60405162461bcd60e51b815260206004820152602c60248201527f46756e6374696f6e206d7573742062652063616c6c6564207468726f7567682060448201526b19195b1959d85d1958d85b1b60a21b6064820152608490fd5b156123a157565b60405162461bcd60e51b815260206004820152602c60248201527f46756e6374696f6e206d7573742062652063616c6c6564207468726f7567682060448201526b6163746976652070726f787960a01b6064820152608490fd5b803b15612430576000805160206124d083398151915280546001600160a01b0319166001600160a01b03909216919091179055565b60405162461bcd60e51b815260206004820152602d60248201527f455243313936373a206e657720696d706c656d656e746174696f6e206973206e60448201526c1bdd08184818dbdb9d1c9858dd609a1b6064820152608490fd5b90919015612497575090565b8151156124a75750805190602001fd5b60405162461bcd60e51b8152602060048201529081906124cb906024830190611d88565b0390fdfe360894a13ba1a3210667c828492db98dca3e2076cc3735a920a3ca505d382bbca26469706673582212205afeb5a7fc2f2a1b3b64247bcd479b42b66071f5cba2ca0a5c82b97c18137c5164736f6c63430008110033","linkReferences":{}},"methodIdentifiers":{"createShare(string,string,uint8,address,address[],address[],address,uint256[],address[],uint256[][],uint256)":"cc672215","deployShareSuite(string,(address,string,string,uint8,address,address,address[],address[],address[],bytes[]),(uint256[],address[],uint256[][]))":"ee04562d","editMaxSupplyModule(address)":"9b937d47","governance()":"5aa6e675","idToShare(uint256)":"c89b023e","initialize(address,address,address,address)":"f8c8765e","isContractTrexFactoryOwner()":"ea248e95","maxSupplyModule()":"d58f5d7b","proxiableUUID()":"52d1902d","salesManagerAddress()":"03c19ca0","shareIdIndex()":"b22f103b","shareToId(address)":"915575b0","trexFactory()":"9a44f1b2","upgradeTo(address)":"3659cfe6","upgradeToAndCall(address,bytes)":"4f1ef286"},"id":0}