{"abi":[{"type":"constructor","inputs":[{"name":"idFactoryAddress","type":"address","internalType":"address"},{"name":"signersToApprove","type":"address[]","internalType":"address[]"}],"stateMutability":"nonpayable"},{"type":"function","name":"approveSignature","inputs":[{"name":"signature","type":"bytes","internalType":"bytes"}],"outputs":[],"stateMutability":"nonpayable"},{"type":"function","name":"approveSigner","inputs":[{"name":"signer","type":"address","internalType":"address"}],"outputs":[],"stateMutability":"nonpayable"},{"type":"function","name":"approvedSigners","inputs":[{"name":"","type":"address","internalType":"address"}],"outputs":[{"name":"","type":"bool","internalType":"bool"}],"stateMutability":"view"},{"type":"function","name":"callFactory","inputs":[{"name":"data","type":"bytes","internalType":"bytes"}],"outputs":[],"stateMutability":"nonpayable"},{"type":"function","name":"deployIdentityForWallet","inputs":[{"name":"identityOwner","type":"address","internalType":"address"}],"outputs":[{"name":"","type":"address","internalType":"address"}],"stateMutability":"nonpayable"},{"type":"function","name":"deployIdentityWithSalt","inputs":[{"name":"identityOwner","type":"address","internalType":"address"},{"name":"salt","type":"string","internalType":"string"},{"name":"signatureExpiry","type":"uint256","internalType":"uint256"},{"name":"signature","type":"bytes","internalType":"bytes"}],"outputs":[{"name":"","type":"address","internalType":"address"}],"stateMutability":"nonpayable"},{"type":"function","name":"deployIdentityWithSaltAndManagementKeys","inputs":[{"name":"identityOwner","type":"address","internalType":"address"},{"name":"salt","type":"string","internalType":"string"},{"name":"managementKeys","type":"bytes32[]","internalType":"bytes32[]"},{"name":"signatureExpiry","type":"uint256","internalType":"uint256"},{"name":"signature","type":"bytes","internalType":"bytes"}],"outputs":[{"name":"","type":"address","internalType":"address"}],"stateMutability":"nonpayable"},{"type":"function","name":"idFactory","inputs":[],"outputs":[{"name":"","type":"address","internalType":"contract IdFactory"}],"stateMutability":"view"},{"type":"function","name":"owner","inputs":[],"outputs":[{"name":"","type":"address","internalType":"address"}],"stateMutability":"view"},{"type":"function","name":"renounceOwnership","inputs":[],"outputs":[],"stateMutability":"nonpayable"},{"type":"function","name":"revokeSignature","inputs":[{"name":"signature","type":"bytes","internalType":"bytes"}],"outputs":[],"stateMutability":"nonpayable"},{"type":"function","name":"revokeSigner","inputs":[{"name":"signer","type":"address","internalType":"address"}],"outputs":[],"stateMutability":"nonpayable"},{"type":"function","name":"revokedSignatures","inputs":[{"name":"","type":"bytes","internalType":"bytes"}],"outputs":[{"name":"","type":"bool","internalType":"bool"}],"stateMutability":"view"},{"type":"function","name":"transferFactoryOwnership","inputs":[{"name":"newOwner","type":"address","internalType":"address"}],"outputs":[],"stateMutability":"nonpayable"},{"type":"function","name":"transferOwnership","inputs":[{"name":"newOwner","type":"address","internalType":"address"}],"outputs":[],"stateMutability":"nonpayable"},{"type":"event","name":"OwnershipTransferred","inputs":[{"name":"previousOwner","type":"address","indexed":true,"internalType":"address"},{"name":"newOwner","type":"address","indexed":true,"internalType":"address"}],"anonymous":false},{"type":"event","name":"SignatureApproved","inputs":[{"name":"signature","type":"bytes","indexed":true,"internalType":"bytes"}],"anonymous":false},{"type":"event","name":"SignatureRevoked","inputs":[{"name":"signature","type":"bytes","indexed":true,"internalType":"bytes"}],"anonymous":false},{"type":"event","name":"SignerApproved","inputs":[{"name":"signer","type":"address","indexed":true,"internalType":"address"}],"anonymous":false},{"type":"event","name":"SignerRevoked","inputs":[{"name":"signer","type":"address","indexed":true,"internalType":"address"}],"anonymous":false},{"type":"error","name":"ExpiredSignature","inputs":[{"name":"signature","type":"bytes","internalType":"bytes"}]},{"type":"error","name":"RevokedSignature","inputs":[{"name":"signature","type":"bytes","internalType":"bytes"}]},{"type":"error","name":"SignatureAlreadyRevoked","inputs":[{"name":"signature","type":"bytes","internalType":"bytes"}]},{"type":"error","name":"SignatureNotRevoked","inputs":[{"name":"signature","type":"bytes","internalType":"bytes"}]},{"type":"error","name":"SignerAlreadyApproved","inputs":[{"name":"signer","type":"address","internalType":"address"}]},{"type":"error","name":"SignerAlreadyNotApproved","inputs":[{"name":"signer","type":"address","internalType":"address"}]},{"type":"error","name":"TooManySigners","inputs":[]},{"type":"error","name":"UnapprovedSigner","inputs":[{"name":"signer","type":"address","internalType":"address"}]},{"type":"error","name":"ZeroAddress","inputs":[]}],"bytecode":{"object":"0x60406080815234620001a857620013fe803803806200001e81620001c3565b9283398101918082840312620001a8576200003982620001e9565b6020838101516001600160401b0394919291858211620001a857019480601f87011215620001a8578551948511620001ad5760059585871b90848062000081818501620001c3565b809981520192820101928311620001a85784809101915b8383106200018d575050505060009384549560018060a01b0319963388821617875585519060018060a01b03948591823391167f8be0079c531659141344cd1fd0a4f28419497f9722a3daafe3b4186f6b6457e08b80a3169081156200017e5750600a8351116200016d57865b8351811015620001545780831b84018601518516885260028652868820805460ff191660011790556000198114620001405760010162000105565b634e487b7160e01b88526011600452602488fd5b86828a6001541617600155516111ff9081620001ff8239f35b8551630dc92ed360e11b8152600490fd5b63d92e233d60e01b8152600490fd5b81906200019a84620001e9565b815201910190849062000098565b600080fd5b634e487b7160e01b600052604160045260246000fd5b6040519190601f01601f191682016001600160401b03811183821017620001ad57604052565b51906001600160a01b0382168203620001a85756fe604060808152600436101561001357600080fd5b600090813560e01c806309f29c0914610c8657806317f67a1514610ad15780633e8e6e8b146109055780634e2984e4146108c6578063715018a61461086957806378e751a6146108415780637d963e6f1461077a5780638a8755121461073d5780638da5cb5b146107165780639c5c5ce714610685578063c34b44a0146105ef578063ccbfc6ed14610521578063d70aa0ee14610479578063e9ba2363146101915763f2fde38b146100c457600080fd5b3461018d57602036600319011261018d576100dd610e19565b6100e5610e9b565b6001600160a01b0390811691821561013b5750600054826bffffffffffffffffffffffff60a01b821617600055167f8be0079c531659141344cd1fd0a4f28419497f9722a3daafe3b4186f6b6457e0600080a380f35b5162461bcd60e51b815260206004820152602660248201527f4f776e61626c653a206e6577206f776e657220697320746865207a65726f206160448201526564647265737360d01b6064820152608490fd5b5080fd5b503461018d5760a036600319011261018d576101ab610e19565b67ffffffffffffffff9190602435838111610475576101ce903690600401610e2f565b9280604435116104755736602360443501121561047557806044356004013511610475573660246044356004013560051b6044350101116104755760843590811161047557610221903690600401610e4a565b9093906001600160a01b0383161561046457606435151580610459575b61043c57835160a06020820152601e60c08201527f417574686f72697a65204f4e434841494e4944206465706c6f796d656e74000060e0808301919091526001600160a01b0385168287015260608201529461030b6103036102f26102a76101008a0187610f1b565b98601f19818b030160808201526102e6816102d06024604435019c8d60443560040135906111a5565b60643560a083015203601f198101835282610d60565b60208151910120611162565b6102fd368686610d9e565b9061109b565b919091610f81565b6001600160a01b031680885260026020528588205460ff1615610425575060ff855183838237602081858101600381520301902054166104065750506001548351637f2e6acd60e11b81526001600160a01b039384166004820152606060248201529460209386939216918391889183916103a89161038e906064850190610f1b565b9060031984830301604485015260443560040135906111a5565b03925af19182156103fc57602093926103cd575b50516001600160a01b039091168152f35b6103ee919250833d85116103f5575b6103e68183610d60565b810190610f40565b90386103bc565b503d6103dc565b81513d85823e3d90fd5b61042185519283926314dbff3f60e31b845260048401610ef3565b0390fd5b60249086519063579e40b960e11b82526004820152fd5b835163019fcfdb60e31b8152908190610421908760048401610ef3565b50426064351061023e565b835163d92e233d60e01b8152600490fd5b8480fd5b503461018d57602036600319011261018d57610493610e19565b61049b610e9b565b6001600160a01b031690811561051157818352600260205260ff81842054166104fa5781835260026020528220805460ff191660011790557fc031114b6ddff79d71c2554dbce316b1327bb3dad01c60b76d8e8b23ff27ea288280a280f35b602492505190630912922160e11b82526004820152fd5b5163d92e233d60e01b8152600490fd5b503461018d57602036600319011261018d5760043567ffffffffffffffff81116105eb57610553903690600401610e4a565b9161055c610e9b565b60ff815184848237602081868101600381520301902054166105cf5780839151828482376020818481016003815203019020600160ff198254161790555192839283378101600081520390207f2cb4d732f179a7333da89a4da3f3f9a9cbe3f6d7ac090ab062c69c303da32ff78280a280f35b51638bf3b1f160e01b8152918291610421919060048401610ef3565b8280fd5b503461018d57602036600319011261018d57610609610e19565b610611610e9b565b6001600160a01b031690811561051157818352600260205260ff81842054161561066e5781835260026020528220805460ff191690557f99a705a3c2c3339d0051f56b36a60fef91e30142c93353002617999f27aec4af8280a280f35b6024925051906309d0bb2d60e21b82526004820152fd5b503461018d57602036600319011261018d5761069f610e19565b906106a8610e9b565b6001546001600160a01b0390811692849190843b156105eb57602490838551968794859363f2fde38b60e01b85521660048401525af180156103fc576106ec578280f35b67ffffffffffffffff8211610702575238808280f35b634e487b7160e01b83526041600452602483fd5b503461018d578160031936011261018d57905490516001600160a01b039091168152602090f35b503461018d57602036600319011261018d5760209160ff9082906001600160a01b03610767610e19565b1681526002855220541690519015158152f35b503461018d57602036600319011261018d5760043567ffffffffffffffff81116105eb576107ac903690600401610e4a565b916107b5610e9b565b60ff8151848482376020818681016003815203019020541615610825578083915182848237602081848101600381520301902060ff19815416905551928392833781018381520390207fb54b0481f674d73e0a7e0805771909ebd61fadc85286160239121febb142fabf8280a280f35b516337d70afd60e11b8152918291610421919060048401610ef3565b503461018d578160031936011261018d5760015490516001600160a01b039091168152602090f35b82346108c357806003193601126108c357610882610e9b565b80546001600160a01b03198116825581906001600160a01b03167f8be0079c531659141344cd1fd0a4f28419497f9722a3daafe3b4186f6b6457e08280a380f35b80fd5b503461018d5760209060ff6108f0836108de36610dda565b81855193828580945193849201610e78565b81016003815203019020541690519015158152f35b5090346108c3576020918260031936011261018d57610922610e19565b6001600160a01b0391908281168015610ac057600191848354169184519361094985610d2e565b602a855288850186368237855115610aac57603090538451811015610a9857607860218601536029905b808211610a285750506109e6579186916109a39387865180968195829463474a95ff60e11b845260048401610f5f565b03925af19384156109db57936109bc575b505191168152f35b6109d4919350843d86116103f5576103e68183610d60565b91386109b4565b8251903d90823e3d90fd5b60648785519062461bcd60e51b825280600483015260248201527f537472696e67733a20686578206c656e67746820696e73756666696369656e746044820152fd5b9091600f81166010811015610a84578651841015610a84576f181899199a1a9b1b9c1cb0b131b232b360811b901a8684018b015360041c918015610a70576000190190610973565b634e487b7160e01b89526011600452602489fd5b634e487b7160e01b8a52603260045260248afd5b634e487b7160e01b88526032600452602488fd5b634e487b7160e01b89526032600452602489fd5b825163d92e233d60e01b8152600490fd5b5090346108c35760803660031901126108c357610aec610e19565b67ffffffffffffffff92602435848111610c8257610b0e903690600401610e2f565b6044359460643590811161047557610b2a903690600401610e4a565b6001600160a01b0380861697909592908815610c715780151580610c68575b610c4c578690865160209a818c8101936080855260a08201610b9690604090601e81527f417574686f72697a65204f4e434841494e4944206465706c6f796d656e74000060208201520190565b928b830152601f199283838203016060840152610bb3908b610f1b565b906080830152039081018252610bc99082610d60565b519020610bd590611162565b610be0368585610d9e565b610be99161109b565b610bf290610f81565b16808852600289528588205460ff1615610425575060ff8551838382378981858101600381520301902054166104065750506109a391869185600154169087865180968195829463474a95ff60e11b845260048401610f5f565b50610421855192839263019fcfdb60e31b845260048401610ef3565b50428110610b49565b855163d92e233d60e01b8152600490fd5b8380fd5b503461018d578180610c9736610dda565b610c9f610e9b565b6001548151916020019083906001600160a01b03165af13d15610d29573d610cc681610d82565b90610cd384519283610d60565b81528360203d92013e5b15610ce6575080f35b5162461bcd60e51b815260206004820152601f60248201527f476174657761793a2063616c6c20746f20666163746f7279206661696c6564006044820152606490fd5b610cdd565b6060810190811067ffffffffffffffff821117610d4a57604052565b634e487b7160e01b600052604160045260246000fd5b90601f8019910116810190811067ffffffffffffffff821117610d4a57604052565b67ffffffffffffffff8111610d4a57601f01601f191660200190565b929192610daa82610d82565b91610db86040519384610d60565b829481845281830111610dd5578281602093846000960137010152565b600080fd5b6020600319820112610dd5576004359067ffffffffffffffff8211610dd55780602383011215610dd557816024610e1693600401359101610d9e565b90565b600435906001600160a01b0382168203610dd557565b9080601f83011215610dd557816020610e1693359101610d9e565b9181601f84011215610dd55782359167ffffffffffffffff8311610dd55760208381860195010111610dd557565b60005b838110610e8b5750506000910152565b8181015183820152602001610e7b565b6000546001600160a01b03163303610eaf57565b606460405162461bcd60e51b815260206004820152602060248201527f4f776e61626c653a2063616c6c6572206973206e6f7420746865206f776e65726044820152fd5b90918060409360208452816020850152848401376000828201840152601f01601f1916010190565b90602091610f3481518092818552858086019101610e78565b601f01601f1916010190565b90816020910312610dd557516001600160a01b0381168103610dd55790565b6001600160a01b039091168152604060208201819052610e1692910190610f1b565b60058110156110855780610f925750565b60018103610fdf5760405162461bcd60e51b815260206004820152601860248201527f45434453413a20696e76616c6964207369676e617475726500000000000000006044820152606490fd5b6002810361102c5760405162461bcd60e51b815260206004820152601f60248201527f45434453413a20696e76616c6964207369676e6174757265206c656e677468006044820152606490fd5b60031461103557565b60405162461bcd60e51b815260206004820152602260248201527f45434453413a20696e76616c6964207369676e6174757265202773272076616c604482015261756560f01b6064820152608490fd5b634e487b7160e01b600052602160045260246000fd5b9060418151146000146110c9576110c5916020820151906060604084015193015160001a906110d3565b9091565b5050600090600290565b9291907f7fffffffffffffffffffffffffffffff5d576e7357a4501ddfe92f46681b20a083116111565791608094939160ff602094604051948552168484015260408301526060820152600093849182805260015afa156111495781516001600160a01b03811615611143579190565b50600190565b50604051903d90823e3d90fd5b50505050600090600390565b60405160208101917f19457468657265756d205369676e6564204d6573736167653a0a3332000000008352603c820152603c815261119f81610d2e565b51902090565b81835290916001600160fb1b038311610dd55760209260051b80928483013701019056fea264697066735822122018167b970e0b2eba672aff676137db426915ab6b907658de2a96c1f1428c50a064736f6c63430008110033","linkReferences":{}},"methodIdentifiers":{"approveSignature(bytes)":"7d963e6f","approveSigner(address)":"d70aa0ee","approvedSigners(address)":"8a875512","callFactory(bytes)":"09f29c09","deployIdentityForWallet(address)":"3e8e6e8b","deployIdentityWithSalt(address,string,uint256,bytes)":"17f67a15","deployIdentityWithSaltAndManagementKeys(address,string,bytes32[],uint256,bytes)":"e9ba2363","idFactory()":"78e751a6","owner()":"8da5cb5b","renounceOwnership()":"715018a6","revokeSignature(bytes)":"ccbfc6ed","revokeSigner(address)":"c34b44a0","revokedSignatures(bytes)":"4e2984e4","transferFactoryOwnership(address)":"9c5c5ce7","transferOwnership(address)":"f2fde38b"},"id":101}