{"abi":[{"type":"function","name":"BURNABLE_BIT","inputs":[],"outputs":[{"name":"","type":"uint256","internalType":"uint256"}],"stateMutability":"view"},{"type":"function","name":"FORCE_TRANSFERABLE_BIT","inputs":[],"outputs":[{"name":"","type":"uint256","internalType":"uint256"}],"stateMutability":"view"},{"type":"function","name":"FREEZABLE_BIT","inputs":[],"outputs":[{"name":"","type":"uint256","internalType":"uint256"}],"stateMutability":"view"},{"type":"function","name":"INITIALIZED_BIT","inputs":[],"outputs":[{"name":"","type":"uint256","internalType":"uint256"}],"stateMutability":"view"},{"type":"function","name":"MINTABLE_BIT","inputs":[],"outputs":[{"name":"","type":"uint256","internalType":"uint256"}],"stateMutability":"view"},{"type":"function","name":"PAUSABLE_BIT","inputs":[],"outputs":[{"name":"","type":"uint256","internalType":"uint256"}],"stateMutability":"view"},{"type":"function","name":"RECOVERABLE_BIT","inputs":[],"outputs":[{"name":"","type":"uint256","internalType":"uint256"}],"stateMutability":"view"},{"type":"function","name":"burn","inputs":[{"name":"token","type":"address","internalType":"address"},{"name":"user","type":"address","internalType":"address"},{"name":"amount","type":"uint256","internalType":"uint256"}],"outputs":[],"stateMutability":"nonpayable"},{"type":"function","name":"capabilitiesByToken","inputs":[{"name":"","type":"address","internalType":"address"}],"outputs":[{"name":"","type":"uint256","internalType":"uint256"}],"stateMutability":"view"},{"type":"function","name":"forceTransfer","inputs":[{"name":"token","type":"address","internalType":"address"},{"name":"from","type":"address","internalType":"address"},{"name":"to","type":"address","internalType":"address"},{"name":"amount","type":"uint256","internalType":"uint256"}],"outputs":[],"stateMutability":"nonpayable"},{"type":"function","name":"governance","inputs":[],"outputs":[{"name":"","type":"address","internalType":"contract IGovernance"}],"stateMutability":"view"},{"type":"function","name":"initialize","inputs":[{"name":"governance_","type":"address","internalType":"address"}],"outputs":[],"stateMutability":"nonpayable"},{"type":"function","name":"isBurnable","inputs":[{"name":"token","type":"address","internalType":"address"}],"outputs":[{"name":"","type":"bool","internalType":"bool"}],"stateMutability":"view"},{"type":"function","name":"isForceTransferable","inputs":[{"name":"token","type":"address","internalType":"address"}],"outputs":[{"name":"","type":"bool","internalType":"bool"}],"stateMutability":"view"},{"type":"function","name":"isFreezable","inputs":[{"name":"token","type":"address","internalType":"address"}],"outputs":[{"name":"","type":"bool","internalType":"bool"}],"stateMutability":"view"},{"type":"function","name":"isMintable","inputs":[{"name":"token","type":"address","internalType":"address"}],"outputs":[{"name":"","type":"bool","internalType":"bool"}],"stateMutability":"view"},{"type":"function","name":"isPausable","inputs":[{"name":"token","type":"address","internalType":"address"}],"outputs":[{"name":"","type":"bool","internalType":"bool"}],"stateMutability":"view"},{"type":"function","name":"isRecoverable","inputs":[{"name":"token","type":"address","internalType":"address"}],"outputs":[{"name":"","type":"bool","internalType":"bool"}],"stateMutability":"view"},{"type":"function","name":"mint","inputs":[{"name":"token","type":"address","internalType":"address"},{"name":"to","type":"address","internalType":"address"},{"name":"amount","type":"uint256","internalType":"uint256"}],"outputs":[],"stateMutability":"nonpayable"},{"type":"function","name":"pause","inputs":[{"name":"token","type":"address","internalType":"address"}],"outputs":[],"stateMutability":"nonpayable"},{"type":"function","name":"proxiableUUID","inputs":[],"outputs":[{"name":"","type":"bytes32","internalType":"bytes32"}],"stateMutability":"view"},{"type":"function","name":"recover","inputs":[{"name":"token","type":"address","internalType":"address"},{"name":"lostWallet","type":"address","internalType":"address"},{"name":"newWallet","type":"address","internalType":"address"},{"name":"investorOnchainID","type":"address","internalType":"address"}],"outputs":[],"stateMutability":"nonpayable"},{"type":"function","name":"setFrozen","inputs":[{"name":"token","type":"address","internalType":"address"},{"name":"user","type":"address","internalType":"address"},{"name":"freeze","type":"bool","internalType":"bool"}],"outputs":[],"stateMutability":"nonpayable"},{"type":"function","name":"setTokenCaps","inputs":[{"name":"token","type":"address","internalType":"address"},{"name":"caps","type":"uint256","internalType":"uint256"}],"outputs":[],"stateMutability":"nonpayable"},{"type":"function","name":"setTokenCapsInitial","inputs":[{"name":"token","type":"address","internalType":"address"},{"name":"caps","type":"uint256","internalType":"uint256"}],"outputs":[],"stateMutability":"nonpayable"},{"type":"function","name":"unpause","inputs":[{"name":"token","type":"address","internalType":"address"}],"outputs":[],"stateMutability":"nonpayable"},{"type":"function","name":"upgradeTo","inputs":[{"name":"newImplementation","type":"address","internalType":"address"}],"outputs":[],"stateMutability":"nonpayable"},{"type":"function","name":"upgradeToAndCall","inputs":[{"name":"newImplementation","type":"address","internalType":"address"},{"name":"data","type":"bytes","internalType":"bytes"}],"outputs":[],"stateMutability":"payable"},{"type":"event","name":"AdminChanged","inputs":[{"name":"previousAdmin","type":"address","indexed":false,"internalType":"address"},{"name":"newAdmin","type":"address","indexed":false,"internalType":"address"}],"anonymous":false},{"type":"event","name":"BeaconUpgraded","inputs":[{"name":"beacon","type":"address","indexed":true,"internalType":"address"}],"anonymous":false},{"type":"event","name":"Initialized","inputs":[{"name":"version","type":"uint8","indexed":false,"internalType":"uint8"}],"anonymous":false},{"type":"event","name":"TokenCapabilitiesSet","inputs":[{"name":"token","type":"address","indexed":true,"internalType":"address"},{"name":"caps","type":"uint256","indexed":false,"internalType":"uint256"}],"anonymous":false},{"type":"event","name":"Upgraded","inputs":[{"name":"implementation","type":"address","indexed":true,"internalType":"address"}],"anonymous":false}],"bytecode":{"object":"0x60a080604052346100315730608052611cba90816100378239608051818181610fc1015281816110e901526114e60152f35b600080fdfe6040608081526004908136101561001557600080fd5b60009182358060e01c918263222b15fb1461187f5782632851bbc91461183d5782632d5b00fc146118205782632ee1a59b146118045782633659cfe6146114be5782633d421ea21461147c578263459ab935146114435782634f1ef2861461106e57826352d1902d14610fab578263573ce3c414610ed95784836357b001f914610de1575082635aa6e67514610db75784836376a67a5114610cc3575082637cff9e0614610c8157826387cadc8e14610c6457826388fb891814610c4757826393e4d17514610c2a57826398b7318814610aab5782639c516eff14610a6b578263acf9651914610925578263c4d66de81461072c578263c6790990146106e1578263c6c3bbe6146105d4578263d69e70ba146104a0578263e2e0787414610311578263e354e6e4146102f4578263f6b911bc1461017b57505063f6f1616e1461015d57600080fd5b346101775781600319360112610177576020905160108152f35b5080fd5b849084346102f05761018c36611987565b909391956101c6602060018060a01b0392836065541687518080958194631648d21360e11b835263ffffffff60e01b1630338c85016119d4565b03915afa9081156102e657906101e39188916102b8575b506119ff565b6001600160a01b0387166000908152606660205260409020546008161561027557859616803b15610271578351632770a7eb60e21b81526001600160a01b03909516928501928352602083019190915284918491908290849082906040015b03925af190811561026857506102555750f35b61025e90611903565b6102655780f35b80fd5b513d84823e3d90fd5b8580fd5b835162461bcd60e51b8152602081850152601860248201527f6275726e206361706162696c6974792064697361626c656400000000000000006044820152606490fd5b6102d9915060203d81116102df575b6102d18183611949565b8101906119bc565b896101dd565b503d6102c7565b85513d89823e3d90fd5b8280fd5b505050346101775781600319360112610177578060209151908152f35b8491843461049c57608036600319011261049c5761032d6118c1565b6103356118d7565b61033d6118ed565b6001600160a01b039290606435848116919082900361049757879685606554169087518092631648d21360e11b8252818061038b60209e8f9663ffffffff60e01b16903090339085016119d4565b03915afa90811561048d57906103a7918b9161047057506119ff565b6001600160a01b0383166000908152606660205260409081902054161561042d57846064938195938a978c948a519b8c998a98634942ca4560e11b8a5216908801521660248601526044850152165af19081156104245750610407578280f35b8161041d92903d106102df576102d18183611949565b5081808280f35b513d85823e3d90fd5b855162461bcd60e51b8152808801899052601b60248201527f7265636f766572206361706162696c6974792064697361626c656400000000006044820152606490fd5b61048791508a3d8c116102df576102d18183611949565b8b6101dd565b87513d8c823e3d90fd5b600080fd5b8380fd5b849084346102f05760603660031901126102f0576104bc6118c1565b936104c56118d7565b9060443591821515809303610271576065548451631648d21360e11b81526001600160a01b03939091602091839186169082908190610512906001600160e01b03191630338e85016119d4565b03915afa9081156102e6579061052e9188916102b857506119ff565b6001600160a01b03871660009081526066602052604090205460101615610591578186971690813b1561058d578660449281958751988996879563c69c09cf60e01b8752169085015260248401525af190811561026857506102555750f35b8680fd5b835162461bcd60e51b8152602081870152601a60248201527f667265657a65206361706162696c6974792064697361626c65640000000000006044820152606490fd5b849084346102f0576105e536611987565b9093919561061f602060018060a01b0392836065541687518080958194631648d21360e11b835263ffffffff60e01b1630338c85016119d4565b03915afa9081156102e6579061063b9188916102b857506119ff565b6001600160a01b0387166000908152606660205260409020546004161561069e57859616803b156102715783516340c10f1960e01b81526001600160a01b0390951692850192835260208301919091528491849190829084908290604001610242565b835162461bcd60e51b8152602081850152601860248201527f6d696e74206361706162696c6974792064697361626c656400000000000000006044820152606490fd5b50505034610177576020366003190112610177576020906107236107036118c1565b6001600160a01b0316600090815260666020526040902054600216151590565b90519015158152f35b915050346102f05760203660031901126102f0576107486118c1565b9083549060ff8260081c161591828093610918575b8015610901575b156108a75760ff198116600117865582610896575b5084549260ff8460081c161561083f576001600160a01b03169081156107f257506bffffffffffffffffffffffff60a01b60655416176065556107ba578280f35b61ff001916825551600181527f7f26b83ff96e1f2b6a682f133852f6798a09c465da95921460cefb384740249890602090a138808280f35b608490602086519162461bcd60e51b8352820152602160248201527f546f6b656e436f6e74726f6c6c65725f496e76616c6964476f7665726e616e636044820152606560f81b6064820152fd5b845162461bcd60e51b8152602081840152602b60248201527f496e697469616c697a61626c653a20636f6e7472616374206973206e6f74206960448201526a6e697469616c697a696e6760a81b6064820152608490fd5b61ffff191661010117855538610779565b845162461bcd60e51b8152602081840152602e60248201527f496e697469616c697a61626c653a20636f6e747261637420697320616c72656160448201526d191e481a5b9a5d1a585b1a5e995960921b6064820152608490fd5b50303b1580156107645750600160ff821614610764565b50600160ff82161061075d565b8491843461049c578060031936011261049c57610982916109446118c1565b6065548351631648d21360e11b81526020956001600160a01b03949192879284929187169183918291906001600160e01b03191630338e85016119d4565b03915afa908115610a61579061099e918891610a4457506119ff565b16928385526066835260018286205416156109f85750907f6465de991f7b2a5d312fd541a44b76f46317ef082f123c205ded05641d9a0d42918385526066825260018019602435161781862055808520549051908152a280f35b82608492519162461bcd60e51b8352820152602260248201527f546f6b656e436f6e74726f6c6c65725f436170734e6f74496e697469616c697a604482015261195960f21b6064820152fd5b610a5b9150863d88116102df576102d18183611949565b886101dd565b84513d89823e3d90fd5b5050503461017757602036600319011261017757602090610723610a8d6118c1565b60018060a01b03166000526066602052602060406000205416151590565b9150913461049c57608036600319011261049c57610b1a92610acb6118c1565b610ad36118d7565b90610adc6118ed565b6065548551631648d21360e11b81526020986001600160a01b039691928a9284929189169183918291906001600160e01b03191630338f85016119d4565b03915afa908115610c205790610b36918a91610c0357506119ff565b6001600160a01b0382166000908152606660209081526040909120541615610bb557918784606493818a979689519a8b988997639fc1d0e760e01b8952169087015216602485015284356044850152165af19081156104245750610b98578280f35b81610bae92903d106102df576102d18183611949565b5038808280f35b845162461bcd60e51b8152808701889052602260248201527f666f726365207472616e73666572206361706162696c6974792064697361626c604482015261195960f21b6064820152608490fd5b610c1a9150893d8b116102df576102d18183611949565b386101dd565b86513d8b823e3d90fd5b505050346101775781600319360112610177576020905160018152f35b505050346101775781600319360112610177576020905160028152f35b849084346102f057826003193601126102f0576020925051908152f35b5050503461017757602036600319011261017757602090610723610ca36118c1565b6001600160a01b0316600090815260666020526040902054601016151590565b8091858434610d90576020366003190112610d9057610ce06118c1565b6065548351631648d21360e11b81526001600160a01b03939091602091839186169082908190610d1e906001600160e01b03191630338d85016119d4565b03915afa908115610dad5790610d3a918791610d9557506119ff565b6001600160a01b038116600090815260666020526040902054610d61906002161515611a4b565b1691823b15610d90578151638456cb5960e01b81529284918491829084905af190811561026857506102555750f35b505050fd5b610a5b915060203d81116102df576102d18183611949565b84513d88823e3d90fd5b5050503461017757816003193601126101775760655490516001600160a01b039091168152602090f35b9392509034610d90576020366003190112610d9057610dfe6118c1565b6065548451631648d21360e11b81526001600160a01b03939091602091839186169082908190610e3c906001600160e01b03191630338c85016119d4565b03915afa908115610ecf5790610e58918791610eb757506119ff565b6001600160a01b038116600090815260666020526040902054610e7f906002161515611a4b565b16803b15610d90578391835180958193631fa5d41d60e11b83525af19081156102685750610eab575080f35b610eb490611903565b80f35b610c1a915060203d81116102df576102d18183611949565b85513d88823e3d90fd5b8491843461049c578060031936011261049c57610ef8916109446118c1565b03915afa908115610a615790610f14918891610a4457506119ff565b16928385526066835260018286205416610f6a5750907f6465de991f7b2a5d312fd541a44b76f46317ef082f123c205ded05641d9a0d42918385526066825260016024351781862055808520549051908152a280f35b82606492519162461bcd60e51b8352820152601e60248201527f546f6b656e436f6e74726f6c6c65725f43617073416c726561647953657400006044820152fd5b83908534610265578060031936011261026557507f00000000000000000000000000000000000000000000000000000000000000006001600160a01b031630036110065760208251600080516020611c658339815191528152f35b6020608492519162461bcd60e51b8352820152603860248201527f555550535570677261646561626c653a206d757374206e6f742062652063616c60448201527f6c6564207468726f7567682064656c656761746563616c6c00000000000000006064820152fd5b849084806003193601126102f0576110846118c1565b9160249182359067ffffffffffffffff8211610271573660238301121561027157818301356110b28161196b565b6110be83519182611949565b8181528760209485830193368982840101116102f05780898893018637830101526001600160a01b037f000000000000000000000000000000000000000000000000000000000000000081169061111730831415611a97565b611134600080516020611c65833981519152928284541614611af8565b6065548551631648d21360e11b815233898201908152306020820152631b2ce7f360e11b60408201529091889183918516908290819060600103915afa9081156114395790611189918c9161141c57506119ff565b7f4910fdfa16fed3260ed0e7147f7cc6da11a60208b5b9406d12a635614ffd91435460ff16156111c4575050505050505050610eb490611b59565b88959799949698169086516352d1902d60e01b815288818b81865afa8691816113ed575b5061124657875162461bcd60e51b8152808b018a9052602e818d01527f45524331393637557067726164653a206e657720696d706c656d656e7461746960448201526d6f6e206973206e6f74205555505360901b6064820152608490fd5b99929498919395990361139b5761125c89611b59565b8551927fbc7cd75a20ee27fd9adebab32041f755214dbc6bffa90cc0225b39da2e5c2d3b8980a2835115801590611393575b61129f575b50505050505050905080f35b883b156113455750505093809581926113249651915af43d1561133257660819985a5b195960ca1b3d926112d28461196b565b936112df82519586611949565b84523d878686013e5b7f416464726573733a206c6f772d6c6576656c2064656c65676174652063616c6c8151956113158761192d565b60278752860152840152611be9565b508082808080808080611293565b660819985a5b195960ca1b6060926112e8565b62461bcd60e51b835282018690526026908201527f416464726573733a2064656c65676174652063616c6c20746f206e6f6e2d636f6044820152651b9d1c9858dd60d21b6064820152608490fd5b50600161128e565b60296084928888519362461bcd60e51b85528401528201527f45524331393637557067726164653a20756e737570706f727465642070726f786044820152681a58589b195555525160ba1b6064820152fd5b9091508981813d8311611415575b6114058183611949565b8101031261058d5751908c6111e8565b503d6113fb565b6114339150883d8a116102df576102d18183611949565b8c6101dd565b86513d8d823e3d90fd5b505050346101775760203660031901126101775760209181906001600160a01b0361146c6118c1565b1681526066845220549051908152f35b505050346101775760203660031901126101775760209061072361149e6118c1565b6001600160a01b0316600090815260666020526040902054600816151590565b915050346102f05760208060031936011261049c576114db6118c1565b926001600160a01b037f0000000000000000000000000000000000000000000000000000000000000000811661151330821415611a97565b611530600080516020611c65833981519152918383541614611af8565b6065548351631648d21360e11b815233878201908152306020820152631b2ce7f360e11b60408201529091869183918616908290819060600103915afa9081156117fa57906115859189916117e357506119ff565b8251908482019282841067ffffffffffffffff8511176117d0578385528883527f4910fdfa16fed3260ed0e7147f7cc6da11a60208b5b9406d12a635614ffd91435460ff16156115df5750505050505050610eb490611b59565b879894959697169085516352d1902d60e01b815287818a81865afa8691816117a1575b5061166157865162461bcd60e51b8152808a01899052602e60248201527f45524331393637557067726164653a206e657720696d706c656d656e7461746960448201526d6f6e206973206e6f74205555505360901b6064820152608490fd5b9791929394970361174c5761167588611b59565b8451917fbc7cd75a20ee27fd9adebab32041f755214dbc6bffa90cc0225b39da2e5c2d3b8880a2825115801590611745575b6116b7575b505050505050905080f35b873b156116f657505093809581926116e99651915af43d1561133257660819985a5b195960ca1b3d926112d28461196b565b50803880808080806116ac565b62461bcd60e51b82528101859052602660248201527f416464726573733a2064656c65676174652063616c6c20746f206e6f6e2d636f6044820152651b9d1c9858dd60d21b6064820152608490fd5b50866116a7565b845162461bcd60e51b8152908101869052602960248201527f45524331393637557067726164653a20756e737570706f727465642070726f786044820152681a58589b195555525160ba1b6064820152608490fd5b9091508881813d83116117c9575b6117b98183611949565b8101031261058d57519038611602565b503d6117af565b634e487b7160e01b895260418752602489fd5b610c1a9150863d88116102df576102d18183611949565b84513d8a823e3d90fd5b5050503461017757816003193601126101775760209051818152f35b505050346101775781600319360112610177576020905160088152f35b505050346101775760203660031901126101775760209061072361185f6118c1565b6001600160a01b0316600090815260666020526040908190205416151590565b50505034610177576020366003190112610177576020906107236118a16118c1565b6001600160a01b0316600090815260666020526040902054600416151590565b600435906001600160a01b038216820361049757565b602435906001600160a01b038216820361049757565b604435906001600160a01b038216820361049757565b67ffffffffffffffff811161191757604052565b634e487b7160e01b600052604160045260246000fd5b6060810190811067ffffffffffffffff82111761191757604052565b90601f8019910116810190811067ffffffffffffffff82111761191757604052565b67ffffffffffffffff811161191757601f01601f191660200190565b6060906003190112610497576001600160a01b0390600435828116810361049757916024359081168103610497579060443590565b90816020910312610497575180151581036104975790565b6001600160a01b039182168152911660208201526001600160e01b0319909116604082015260600190565b15611a0657565b60405162461bcd60e51b815260206004820152601d60248201527f546f6b656e436f6e74726f6c6c65725f4e6f74417574686f72697a65640000006044820152606490fd5b15611a5257565b60405162461bcd60e51b815260206004820152601960248201527f7061757365206361706162696c6974792064697361626c6564000000000000006044820152606490fd5b15611a9e57565b60405162461bcd60e51b815260206004820152602c60248201527f46756e6374696f6e206d7573742062652063616c6c6564207468726f7567682060448201526b19195b1959d85d1958d85b1b60a21b6064820152608490fd5b15611aff57565b60405162461bcd60e51b815260206004820152602c60248201527f46756e6374696f6e206d7573742062652063616c6c6564207468726f7567682060448201526b6163746976652070726f787960a01b6064820152608490fd5b803b15611b8e57600080516020611c6583398151915280546001600160a01b0319166001600160a01b03909216919091179055565b60405162461bcd60e51b815260206004820152602d60248201527f455243313936373a206e657720696d706c656d656e746174696f6e206973206e60448201526c1bdd08184818dbdb9d1c9858dd609a1b6064820152608490fd5b90919015611bf5575090565b815115611c055750805190602001fd5b6040519062461bcd60e51b82528160208060048301528251908160248401526000935b828510611c4b575050604492506000838284010152601f80199101168101030190fd5b8481018201518686016044015293810193859350611c2856fe360894a13ba1a3210667c828492db98dca3e2076cc3735a920a3ca505d382bbca264697066735822122015c24e4b26f4e254008441eacd551694fb8622d395c991893e6671352e47351964736f6c63430008110033","linkReferences":{}},"methodIdentifiers":{"BURNABLE_BIT()":"2d5b00fc","FORCE_TRANSFERABLE_BIT()":"2ee1a59b","FREEZABLE_BIT()":"f6f1616e","INITIALIZED_BIT()":"93e4d175","MINTABLE_BIT()":"87cadc8e","PAUSABLE_BIT()":"88fb8918","RECOVERABLE_BIT()":"e354e6e4","burn(address,address,uint256)":"f6b911bc","capabilitiesByToken(address)":"459ab935","forceTransfer(address,address,address,uint256)":"98b73188","governance()":"5aa6e675","initialize(address)":"c4d66de8","isBurnable(address)":"3d421ea2","isForceTransferable(address)":"9c516eff","isFreezable(address)":"7cff9e06","isMintable(address)":"222b15fb","isPausable(address)":"c6790990","isRecoverable(address)":"2851bbc9","mint(address,address,uint256)":"c6c3bbe6","pause(address)":"76a67a51","proxiableUUID()":"52d1902d","recover(address,address,address,address)":"e2e07874","setFrozen(address,address,bool)":"d69e70ba","setTokenCaps(address,uint256)":"acf96519","setTokenCapsInitial(address,uint256)":"573ce3c4","unpause(address)":"57b001f9","upgradeTo(address)":"3659cfe6","upgradeToAndCall(address,bytes)":"4f1ef286"},"id":5}