{"abi":[{"type":"function","name":"bindCompliance","inputs":[{"name":"_compliance","type":"address","internalType":"address"}],"outputs":[],"stateMutability":"nonpayable"},{"type":"function","name":"canComplianceBind","inputs":[{"name":"","type":"address","internalType":"address"}],"outputs":[{"name":"","type":"bool","internalType":"bool"}],"stateMutability":"pure"},{"type":"function","name":"getCurrentSupply","inputs":[{"name":"compliance","type":"address","internalType":"address"}],"outputs":[{"name":"","type":"uint256","internalType":"uint256"}],"stateMutability":"view"},{"type":"function","name":"getMaxSupply","inputs":[{"name":"compliance","type":"address","internalType":"address"}],"outputs":[{"name":"","type":"uint256","internalType":"uint256"}],"stateMutability":"view"},{"type":"function","name":"isComplianceBound","inputs":[{"name":"_compliance","type":"address","internalType":"address"}],"outputs":[{"name":"","type":"bool","internalType":"bool"}],"stateMutability":"view"},{"type":"function","name":"isPlugAndPlay","inputs":[],"outputs":[{"name":"","type":"bool","internalType":"bool"}],"stateMutability":"pure"},{"type":"function","name":"moduleBurnAction","inputs":[{"name":"","type":"address","internalType":"address"},{"name":"_value","type":"uint256","internalType":"uint256"}],"outputs":[],"stateMutability":"nonpayable"},{"type":"function","name":"moduleCheck","inputs":[{"name":"_from","type":"address","internalType":"address"},{"name":"","type":"address","internalType":"address"},{"name":"_value","type":"uint256","internalType":"uint256"},{"name":"_compliance","type":"address","internalType":"address"}],"outputs":[{"name":"","type":"bool","internalType":"bool"}],"stateMutability":"view"},{"type":"function","name":"moduleMintAction","inputs":[{"name":"","type":"address","internalType":"address"},{"name":"_value","type":"uint256","internalType":"uint256"}],"outputs":[],"stateMutability":"nonpayable"},{"type":"function","name":"moduleTransferAction","inputs":[{"name":"","type":"address","internalType":"address"},{"name":"","type":"address","internalType":"address"},{"name":"","type":"uint256","internalType":"uint256"}],"outputs":[],"stateMutability":"nonpayable"},{"type":"function","name":"name","inputs":[],"outputs":[{"name":"_name","type":"string","internalType":"string"}],"stateMutability":"pure"},{"type":"function","name":"setMaxSupply","inputs":[{"name":"maxSupply","type":"uint256","internalType":"uint256"}],"outputs":[],"stateMutability":"nonpayable"},{"type":"function","name":"unbindCompliance","inputs":[{"name":"_compliance","type":"address","internalType":"address"}],"outputs":[],"stateMutability":"nonpayable"},{"type":"event","name":"ComplianceBound","inputs":[{"name":"_compliance","type":"address","indexed":true,"internalType":"address"}],"anonymous":false},{"type":"event","name":"ComplianceUnbound","inputs":[{"name":"_compliance","type":"address","indexed":true,"internalType":"address"}],"anonymous":false}],"bytecode":{"object":"0x60808060405234610016576107d9908161001c8239f35b600080fdfe608060408181526004918236101561001657600080fd5b600092833560e01c918263013b7ce414610564575081630694a5fb146104db57816306fdde03146104355781630be5086b146103fd5781632cb7e1ec146103bf578163372491a2146103525781634a932544146102865781634cf4d295146102495781636f8b44b01461017a575080639517cf6814610143578063bcc210531461011e578063e6f5e807146101035763f104a8c9146100b457600080fd5b346100ff57806003193601126100ff576100cc610603565b50338252816020526100e360ff8284205416610634565b338252600260205281206100fa6024358254610680565b905580f35b5080fd5b50346100ff57816003193601126100ff576020905160018152f35b50346100ff5760203660031901126100ff5760209061013b610603565b505160018152f35b50346100ff5760203660031901126100ff5760209181906001600160a01b0361016a610603565b1681526002845220549051908152f35b9190503461024557602036600319011261024557813591338452836020526101a760ff8386205416610634565b338452600260205281842054831590811561023a575b50156101d25750338352600160205282205580f35b6020608492519162461bcd60e51b8352820152603e60248201527f4d6178537570706c794d6f64756c653a206e6577206d617820737570706c792060448201527f63616e6e6f742062652062656c6f772063757272656e7420737570706c7900006064820152fd5b9050831015386101bd565b8280fd5b5050346100ff5760203660031901126100ff5760209160ff9082906001600160a01b03610274610603565b16815280855220541690519015158152f35b91905034610245576020366003190112610245576001600160a01b036102aa610603565b16916102b7831515610701565b8284528360205260ff828520541661031057506102d582331461074d565b818352826020528220600160ff198254161790557f1f7b76c58fb697eb53c6c7c1becb96911516a136e24d7ced386b2355358b75a38280a280f35b6020606492519162461bcd60e51b8352820152601860248201527f636f6d706c69616e636520616c726561647920626f756e6400000000000000006044820152fd5b9190503461024557806003193601126102455761036d610603565b503383528260205261038460ff8285205416610634565b3383526002602052808320549160243583039283116103ac5750338352600260205282205580f35b634e487b7160e01b845260119052602483fd5b5050346100ff5760603660031901126100ff5760ff6103fa916103e0610603565b506103e961061e565b503384528360205283205416610634565b80f35b5050346100ff5760203660031901126100ff5760209181906001600160a01b03610425610603565b1681526001845220549051908152f35b9050346102455782600319360112610245578151908282019082821067ffffffffffffffff8311176104c857508252600f81526020906e4d6178537570706c794d6f64756c6560881b8282015282519382859384528251928382860152825b8481106104b257505050828201840152601f01601f19168101030190f35b8181018301518882018801528795508201610494565b634e487b7160e01b855260419052602484fd5b5050346100ff5760203660031901126100ff576104f6610603565b3383528260205261050c60ff8385205416610634565b6001600160a01b031690610521821515610701565b61052c82331461074d565b81835282602052822060ff1981541690557f408b49d9be1c914c52a0227e18a077e5a892dddf32a26cfa94a5d9708fad77188280a280f35b848491346100ff5760803660031901126100ff57610580610603565b9061058961061e565b50606435926001600160a01b0384168085036100ff5781869160ff935280602052205416156105cb576020846105c285604435866106a3565b90519015158152f35b62461bcd60e51b8152602085820152601460248201527318dbdb5c1b1a585b98d9481b9bdd08189bdd5b9960621b6044820152606490fd5b600435906001600160a01b038216820361061957565b600080fd5b602435906001600160a01b038216820361061957565b1561063b57565b60405162461bcd60e51b815260206004820152601e60248201527f6f6e6c7920626f756e6420636f6d706c69616e63652063616e2063616c6c00006044820152606490fd5b9190820180921161068d57565b634e487b7160e01b600052601160045260246000fd5b90916001600160a01b03918216156106be575b505050600190565b1660005260016020526040600020549081156106fa576106e8906002602052604060002054610680565b116106f5573880806106b6565b600090565b5050600190565b1561070857565b60405162461bcd60e51b815260206004820152601f60248201527f696e76616c696420617267756d656e74202d207a65726f2061646472657373006044820152606490fd5b1561075457565b60405162461bcd60e51b815260206004820152602160248201527f6f6e6c7920636f6d706c69616e636520636f6e74726163742063616e2063616c6044820152601b60fa1b6064820152608490fdfea264697066735822122055f2e04656eed14fde26a71fef716916befe7ce71afdbd85e2c7231cba9dac8264736f6c63430008110033","linkReferences":{}},"methodIdentifiers":{"bindCompliance(address)":"4a932544","canComplianceBind(address)":"bcc21053","getCurrentSupply(address)":"9517cf68","getMaxSupply(address)":"0be5086b","isComplianceBound(address)":"4cf4d295","isPlugAndPlay()":"e6f5e807","moduleBurnAction(address,uint256)":"372491a2","moduleCheck(address,address,uint256,address)":"013b7ce4","moduleMintAction(address,uint256)":"f104a8c9","moduleTransferAction(address,address,uint256)":"2cb7e1ec","name()":"06fdde03","setMaxSupply(uint256)":"6f8b44b0","unbindCompliance(address)":"0694a5fb"},"id":7}