{"abi":[{"type":"function","name":"allowedPaymentToken","inputs":[{"name":"","type":"address","internalType":"address"}],"outputs":[{"name":"","type":"bool","internalType":"bool"}],"stateMutability":"view"},{"type":"function","name":"buy","inputs":[{"name":"_saleId","type":"uint256","internalType":"uint256"},{"name":"_amount","type":"uint256","internalType":"uint256"},{"name":"_to","type":"address","internalType":"address"},{"name":"_paymentToken","type":"address","internalType":"address"},{"name":"_maxPayment","type":"uint256","internalType":"uint256"}],"outputs":[],"stateMutability":"nonpayable"},{"type":"function","name":"cancelSale","inputs":[{"name":"_saleId","type":"uint256","internalType":"uint256"}],"outputs":[],"stateMutability":"nonpayable"},{"type":"function","name":"createSale","inputs":[{"name":"_share","type":"address","internalType":"address"},{"name":"_paymentTokensAllowed","type":"address[]","internalType":"address[]"},{"name":"_fundsRecipient","type":"address","internalType":"address"},{"name":"_saleSupply","type":"uint256","internalType":"uint256"},{"name":"_priceUsdPerShare","type":"uint256","internalType":"uint256"},{"name":"_deadline","type":"uint64","internalType":"uint64"}],"outputs":[{"name":"saleId","type":"uint256","internalType":"uint256"}],"stateMutability":"nonpayable"},{"type":"function","name":"emergencyPaused","inputs":[],"outputs":[{"name":"","type":"bool","internalType":"bool"}],"stateMutability":"view"},{"type":"function","name":"fiatOrderReferenceFulfilled","inputs":[{"name":"","type":"bytes32","internalType":"bytes32"}],"outputs":[{"name":"","type":"bool","internalType":"bool"}],"stateMutability":"view"},{"type":"function","name":"fulfillFiatOrder","inputs":[{"name":"_saleId","type":"uint256","internalType":"uint256"},{"name":"_amount","type":"uint256","internalType":"uint256"},{"name":"_to","type":"address","internalType":"address"},{"name":"_reference","type":"bytes32","internalType":"bytes32"}],"outputs":[],"stateMutability":"nonpayable"},{"type":"function","name":"getSaleRemainingSupply","inputs":[{"name":"saleId","type":"uint256","internalType":"uint256"}],"outputs":[{"name":"","type":"uint256","internalType":"uint256"}],"stateMutability":"view"},{"type":"function","name":"getSaleTotalSupply","inputs":[{"name":"saleId","type":"uint256","internalType":"uint256"}],"outputs":[{"name":"","type":"uint256","internalType":"uint256"}],"stateMutability":"view"},{"type":"function","name":"governance","inputs":[],"outputs":[{"name":"","type":"address","internalType":"contract IGovernance"}],"stateMutability":"view"},{"type":"function","name":"initialize","inputs":[{"name":"governance_","type":"address","internalType":"address"}],"outputs":[],"stateMutability":"nonpayable"},{"type":"function","name":"isPaymentTokenAllowed","inputs":[{"name":"paymentToken","type":"address","internalType":"address"}],"outputs":[{"name":"","type":"bool","internalType":"bool"}],"stateMutability":"view"},{"type":"function","name":"maxOracleDelaySeconds","inputs":[],"outputs":[{"name":"","type":"uint256","internalType":"uint256"}],"stateMutability":"view"},{"type":"function","name":"pauseSale","inputs":[{"name":"_saleId","type":"uint256","internalType":"uint256"}],"outputs":[],"stateMutability":"nonpayable"},{"type":"function","name":"paymentTokenToUsdAggregator","inputs":[{"name":"","type":"address","internalType":"address"}],"outputs":[{"name":"","type":"address","internalType":"address"}],"stateMutability":"view"},{"type":"function","name":"proxiableUUID","inputs":[],"outputs":[{"name":"","type":"bytes32","internalType":"bytes32"}],"stateMutability":"view"},{"type":"function","name":"rescueTokens","inputs":[{"name":"_erc20","type":"address","internalType":"address"},{"name":"_to","type":"address","internalType":"address"},{"name":"_amount","type":"uint256","internalType":"uint256"}],"outputs":[],"stateMutability":"nonpayable"},{"type":"function","name":"saleCount","inputs":[],"outputs":[{"name":"","type":"uint256","internalType":"uint256"}],"stateMutability":"view"},{"type":"function","name":"saleIdToSold","inputs":[{"name":"","type":"uint256","internalType":"uint256"}],"outputs":[{"name":"","type":"uint256","internalType":"uint256"}],"stateMutability":"view"},{"type":"function","name":"sales","inputs":[{"name":"saleId","type":"uint256","internalType":"uint256"}],"outputs":[{"name":"share","type":"address","internalType":"address"},{"name":"paymentTokensAllowed","type":"address[]","internalType":"address[]"},{"name":"fundsRecipient","type":"address","internalType":"address"},{"name":"remainingSupply","type":"uint256","internalType":"uint256"},{"name":"priceUsdPerShare","type":"uint256","internalType":"uint256"},{"name":"deadline","type":"uint64","internalType":"uint64"},{"name":"shareDecimals","type":"uint8","internalType":"uint8"},{"name":"active","type":"bool","internalType":"bool"},{"name":"paused","type":"bool","internalType":"bool"}],"stateMutability":"view"},{"type":"function","name":"setAllowedPaymentToken","inputs":[{"name":"paymentToken","type":"address","internalType":"address"},{"name":"allowed","type":"bool","internalType":"bool"}],"outputs":[],"stateMutability":"nonpayable"},{"type":"function","name":"setEmergencyPause","inputs":[],"outputs":[],"stateMutability":"nonpayable"},{"type":"function","name":"setMaxOracleDelaySeconds","inputs":[{"name":"seconds_","type":"uint256","internalType":"uint256"}],"outputs":[],"stateMutability":"nonpayable"},{"type":"function","name":"setPaymentTokenOracle","inputs":[{"name":"paymentToken","type":"address","internalType":"address"},{"name":"aggregator","type":"address","internalType":"address"}],"outputs":[],"stateMutability":"nonpayable"},{"type":"function","name":"unpauseSale","inputs":[{"name":"_saleId","type":"uint256","internalType":"uint256"}],"outputs":[],"stateMutability":"nonpayable"},{"type":"function","name":"unsetEmergencyPause","inputs":[],"outputs":[],"stateMutability":"nonpayable"},{"type":"function","name":"updateSaleDeadline","inputs":[{"name":"_saleId","type":"uint256","internalType":"uint256"},{"name":"_newDeadline","type":"uint256","internalType":"uint256"}],"outputs":[],"stateMutability":"nonpayable"},{"type":"function","name":"updateSaleFundsRecipient","inputs":[{"name":"_saleId","type":"uint256","internalType":"uint256"},{"name":"_newRecipient","type":"address","internalType":"address"}],"outputs":[],"stateMutability":"nonpayable"},{"type":"function","name":"updateSalePaymentTokensAllowed","inputs":[{"name":"_saleId","type":"uint256","internalType":"uint256"},{"name":"_newPaymentTokensAllowed","type":"address[]","internalType":"address[]"}],"outputs":[],"stateMutability":"nonpayable"},{"type":"function","name":"updateSalePriceUsdPerShare","inputs":[{"name":"_saleId","type":"uint256","internalType":"uint256"},{"name":"_newPriceUsdPerShare","type":"uint256","internalType":"uint256"}],"outputs":[],"stateMutability":"nonpayable"},{"type":"function","name":"upgradeTo","inputs":[{"name":"newImplementation","type":"address","internalType":"address"}],"outputs":[],"stateMutability":"nonpayable"},{"type":"function","name":"upgradeToAndCall","inputs":[{"name":"newImplementation","type":"address","internalType":"address"},{"name":"data","type":"bytes","internalType":"bytes"}],"outputs":[],"stateMutability":"payable"},{"type":"function","name":"withdrawFunds","inputs":[{"name":"tokens","type":"address[]","internalType":"address[]"},{"name":"to","type":"address","internalType":"address"},{"name":"amounts","type":"uint256[]","internalType":"uint256[]"}],"outputs":[],"stateMutability":"nonpayable"},{"type":"event","name":"AdminChanged","inputs":[{"name":"previousAdmin","type":"address","indexed":false,"internalType":"address"},{"name":"newAdmin","type":"address","indexed":false,"internalType":"address"}],"anonymous":false},{"type":"event","name":"BeaconUpgraded","inputs":[{"name":"beacon","type":"address","indexed":true,"internalType":"address"}],"anonymous":false},{"type":"event","name":"EmergencyPauseSet","inputs":[{"name":"paused","type":"bool","indexed":false,"internalType":"bool"}],"anonymous":false},{"type":"event","name":"FiatOrderFulfilled","inputs":[{"name":"saleId","type":"uint256","indexed":true,"internalType":"uint256"},{"name":"recipient","type":"address","indexed":true,"internalType":"address"},{"name":"amount","type":"uint256","indexed":false,"internalType":"uint256"},{"name":"orderRef","type":"bytes32","indexed":true,"internalType":"bytes32"}],"anonymous":false},{"type":"event","name":"FundsWithdrawn","inputs":[{"name":"token","type":"address","indexed":true,"internalType":"address"},{"name":"to","type":"address","indexed":true,"internalType":"address"},{"name":"amount","type":"uint256","indexed":false,"internalType":"uint256"}],"anonymous":false},{"type":"event","name":"Initialized","inputs":[{"name":"version","type":"uint8","indexed":false,"internalType":"uint8"}],"anonymous":false},{"type":"event","name":"MaxOracleDelayUpdated","inputs":[{"name":"oldDelay","type":"uint256","indexed":false,"internalType":"uint256"},{"name":"newDelay","type":"uint256","indexed":false,"internalType":"uint256"}],"anonymous":false},{"type":"event","name":"PaymentTokenAllowed","inputs":[{"name":"paymentToken","type":"address","indexed":true,"internalType":"address"},{"name":"allowed","type":"bool","indexed":false,"internalType":"bool"}],"anonymous":false},{"type":"event","name":"PaymentTokenOracleSet","inputs":[{"name":"paymentToken","type":"address","indexed":true,"internalType":"address"},{"name":"aggregator","type":"address","indexed":false,"internalType":"address"}],"anonymous":false},{"type":"event","name":"SaleCancelled","inputs":[{"name":"saleId","type":"uint256","indexed":true,"internalType":"uint256"}],"anonymous":false},{"type":"event","name":"SaleCreated","inputs":[{"name":"saleId","type":"uint256","indexed":true,"internalType":"uint256"},{"name":"share","type":"address","indexed":true,"internalType":"address"},{"name":"paymentTokensAllowed","type":"address[]","indexed":false,"internalType":"address[]"},{"name":"fundsRecipient","type":"address","indexed":false,"internalType":"address"},{"name":"saleSupply","type":"uint256","indexed":false,"internalType":"uint256"},{"name":"priceUsdPerShare","type":"uint256","indexed":false,"internalType":"uint256"},{"name":"deadline","type":"uint64","indexed":false,"internalType":"uint64"},{"name":"shareDecimals","type":"uint8","indexed":false,"internalType":"uint8"}],"anonymous":false},{"type":"event","name":"SaleDeadlineUpdated","inputs":[{"name":"saleId","type":"uint256","indexed":true,"internalType":"uint256"},{"name":"oldDeadline","type":"uint64","indexed":false,"internalType":"uint64"},{"name":"newDeadline","type":"uint64","indexed":false,"internalType":"uint64"}],"anonymous":false},{"type":"event","name":"SaleFundsRecipientUpdated","inputs":[{"name":"saleId","type":"uint256","indexed":true,"internalType":"uint256"},{"name":"oldRecipient","type":"address","indexed":false,"internalType":"address"},{"name":"newRecipient","type":"address","indexed":false,"internalType":"address"}],"anonymous":false},{"type":"event","name":"SalePaused","inputs":[{"name":"saleId","type":"uint256","indexed":true,"internalType":"uint256"}],"anonymous":false},{"type":"event","name":"SalePaymentTokensAllowedUpdated","inputs":[{"name":"saleId","type":"uint256","indexed":true,"internalType":"uint256"},{"name":"oldPaymentTokensAllowed","type":"address[]","indexed":false,"internalType":"address[]"},{"name":"newPaymentTokensAllowed","type":"address[]","indexed":false,"internalType":"address[]"}],"anonymous":false},{"type":"event","name":"SalePriceUsdPerShareUpdated","inputs":[{"name":"saleId","type":"uint256","indexed":true,"internalType":"uint256"},{"name":"oldPriceUsdPerShare","type":"uint256","indexed":false,"internalType":"uint256"},{"name":"newPriceUsdPerShare","type":"uint256","indexed":false,"internalType":"uint256"}],"anonymous":false},{"type":"event","name":"SaleUnpaused","inputs":[{"name":"saleId","type":"uint256","indexed":true,"internalType":"uint256"}],"anonymous":false},{"type":"event","name":"SharePurchase","inputs":[{"name":"saleId","type":"uint256","indexed":true,"internalType":"uint256"},{"name":"buyer","type":"address","indexed":true,"internalType":"address"},{"name":"recipient","type":"address","indexed":true,"internalType":"address"},{"name":"paymentToken","type":"address","indexed":false,"internalType":"address"},{"name":"amount","type":"uint256","indexed":false,"internalType":"uint256"},{"name":"paidTokenAmount","type":"uint256","indexed":false,"internalType":"uint256"}],"anonymous":false},{"type":"event","name":"TokensRescued","inputs":[{"name":"token","type":"address","indexed":true,"internalType":"address"},{"name":"to","type":"address","indexed":true,"internalType":"address"},{"name":"amount","type":"uint256","indexed":false,"internalType":"uint256"}],"anonymous":false},{"type":"event","name":"Upgraded","inputs":[{"name":"implementation","type":"address","indexed":true,"internalType":"address"}],"anonymous":false}],"bytecode":{"object":"0x60a0806040523461003157306080526138c1908161003782396080518181816117e001528181611c9a01526121dc0152f35b600080fdfe608080604052600436101561001357600080fd5b60009081358060e01c9182631d3c66741461269957508163255f968e146125a557816326102887146124fe57816327c830a9146124db5781633659cfe6146121b65781633a66e4b6146120a15781633d1b610714611fba5781634f1ef28614611c1e578163526cc7a71461189157816352d1902d146117cd578163530603fc1461178c5781635aa6e67514611763578163646311351461172757816368c31e26146116045781637ea76a5c1461153957816388dda8951461150f5781638a095a57146114615781638c59f718146114a05781638de1de71146114615781639b4e2098146113b35781639b9ca4b6146112ca5781639ea9e1fd1461105d578163a1a660a714610ea6578163a1e89aec14610e88578163b5f522f714610dd4578163bd94b00514610ce5578163bfa2145a14610781578163c4d66de8146105e3578163cea9d26f146104fc578163d11bb22414610305578163dbf5cea7146101dd57508063dcb6b1dd146101ae5763fdd7fb7d1461018e57600080fd5b346101ab57806003193601126101ab576020609a54604051908152f35b80fd5b50346101ab5760203660031901126101ab5760ff60406020926004358152609e84522054166040519015158152f35b905034610301576040366003190112610301576004359061023e6101ff612794565b609754604051631648d21360e11b8152919391926001600160a01b0392602092859290851691839182916001600160e01b0319163033600485016128d9565b03915afa80156102f6577f4b4e2a8cacd25f828d9212133d45698e531f67615088b317c321db99cda131d29361027f839260409589916102c8575b50612904565b1661028b8115156129d5565b848652609f60205260028387206102a6848254161515612f6d565b0180546001600160a01b0319811683179091558351921682526020820152a280f35b6102e9915060203d81116102ef575b6102e18183612818565b8101906128c1565b38610279565b503d6102d7565b6040513d87823e3d90fd5b5080fd5b90503461030157604036600319011261030157600435906024356001600160401b03918282116104f857610340610381923690600401612854565b609754604051631648d21360e11b815260209592946001600160a01b039391928792849291861691839182916001600160e01b0319163033600485016128d9565b03915afa80156104ed5761039b9189916104d65750612904565b6103a6831515612992565b858752609f845260408720906103c0818354161515612f6d565b875b84811061047a57505060018091016103d981613035565b958411610466576103ea8482612baa565b875283872082885b85811061044d5789897f1b9d3df0e4aa73c12a6dd2a1ef684fd73705ea1fb0aaa6b2bcafe133476cc28261043a8b6104478c8c8c604051958695604087526040870190612884565b9285840390860152612bf2565b0390a280f35b83908761045984612ace565b93019281850155016103f2565b634e487b7160e01b88526041600452602488fd5b808261049261048d6104d1948989612aa8565b612ace565b1661049e811515612950565b808b52609888526104b560ff60408d205416612ae2565b8a52609987526104cc8360408c2054161515612b2e565b612a99565b6103c2565b6102e99150863d88116102ef576102e18183612818565b6040513d8a823e3d90fd5b8480fd5b90503461030157606036600319011261030157610517612779565b9061055c610523612794565b91604435602060018060a01b039283609754166040518080978194631648d21360e11b835263ffffffff60e01b163033600485016128d9565b03915afa9283156105d857816020936105a07f77023e19c7343ad491fd706c36335ca0e738340a91f29b1fd81e2673d44896c4966105b7948b916105c15750612904565b808716976105af89151561308f565b16958661364f565b604051908152a380f35b6102e99150873d81116102ef576102e18183612818565b6040513d88823e3d90fd5b82346101ab5760203660031901126101ab576105fd612779565b815460ff8160081c161590818092610774575b801561075d575b156107015760ff1981166001178455816106f0575b5082549161064860ff8460081c1661064381613511565b613511565b600180556001600160a01b031680156106ab576001600160601b0360a01b6097541617609755610676575080f35b61ff00191681557f7f26b83ff96e1f2b6a682f133852f6798a09c465da95921460cefb3847402498602060405160018152a180f35b60405162461bcd60e51b815260206004820152601e60248201527f53616c65734d616e616765725f496e76616c6964476f7665726e616e636500006044820152606490fd5b61ffff19166101011783558361062c565b60405162461bcd60e51b815260206004820152602e60248201527f496e697469616c697a61626c653a20636f6e747261637420697320616c72656160448201526d191e481a5b9a5d1a585b1a5e995960921b6064820152608490fd5b50303b1580156106175750600160ff821614610617565b50600160ff821610610610565b9050346103015760c03660031901126103015761079c612779565b6024356001600160401b038111610ce1576107bb903690600401612854565b6107c36127aa565b9260a435946001600160401b0386168603610cdd57609754604051631648d21360e11b81529160209183916001600160a01b039091169082908190610817906001600160e01b0319163033600485016128d9565b03915afa8015610bf357610831918891610cc45750612904565b6108456001600160a01b0382161515612950565b610850821515612992565b6108646001600160a01b03851615156129d5565b60643515610c8d576108796084351515612a19565b61088d426001600160401b03871611612a56565b855b828110610bfe575060405163313ce56760e01b81526020816004816001600160a01b0386165afa908115610bf3578791610bc4575b506108ce82612c43565b90610b79575b50609c5495604051806101208101106001600160401b0361012083011117610b635761012081016040526001600160a01b038416815261091385612b93565b6109206040519182612818565b85815260208101368760051b890111610b5f5787905b8760051b89018210610b47575050602082015260018060a01b0387166040820152606435606082015260843560808201526001600160401b03821660a082015260ff831660c0820152600160e082015288610100820152878952609f6020526040892060018060a01b038251166001600160601b0360a01b82541617815560208201518051906001600160401b038211610b3357602060018401916109db8484612baa565b01908c5260208c209b905b828210610b1657505060208a8a817f8febaf4f1c26c3bd39b530382cd87b14262db0c49fef3b994a9d44688585d5d18c8c8c60ff8d6001600160401b038e8e60058f6002810160018060a01b036040850151166001600160601b0360a01b825416179055606083015160038201556080830151600482015501908360a0820151169082549168ff000000000000000060c083015160401b169069ff00000000000000000060e0840151151560481b16926101008a60501b910151151560501b16936affffffffffffffffffffff1916171717179055610ad260405197889760c0895260c0890191612bf2565b6001600160a01b039a8b16878e01526064356040880152608435606088015291166080860152911660a08401529516940390a36001609c5401609c55604051908152f35b80516001600160a01b03168d8301556001909101906020016109e6565b634e487b7160e01b8c52604160045260248cfd5b60208091610b54846127c0565b815201910190610936565b8a80fd5b634e487b7160e01b600052604160045260246000fd5b60643511610b8757386108d4565b60405162461bcd60e51b8152602060048201526015602482015274053616c655f537570706c794578636565647343617605c1b6044820152606490fd5b610be6915060203d602011610bec575b610bde8183612818565b810190612b7a565b386108c4565b503d610bd4565b6040513d89823e3d90fd5b610c8890610c236001600160a01b03610c1b61048d84888a612aa8565b161515612950565b6001600160a01b03610c3961048d838789612aa8565b1688526098602052610c5160ff60408a205416612ae2565b6001600160a01b03610c6761048d838789612aa8565b168852609960205260408820546104cc906001600160a01b03161515612b2e565b61088f565b60405162461bcd60e51b815260206004820152600f60248201526e53616c655f5a65726f537570706c7960881b6044820152606490fd5b6102e9915060203d6020116102ef576102e18183612818565b8680fd5b8380fd5b9050346103015760203660031901126103015760043590610d34602060018060a01b039283609754166040518080958194631648d21360e11b835263ffffffff60e01b163033600485016128d9565b03915afa8015610dc957610d4e9185916102c85750612904565b818352609f6020526040832090610d7b600583019283549260ff8460481c169182610dbc575b5050612f6d565b69ff00ffffffffffffffff1916426001600160401b03161790557f2c56893f6f6026d19bd17b7d05c9f15c522de1ae2b1c3a825f91a73c799321f28280a280f35b5416151590503880610d74565b6040513d86823e3d90fd5b82346101ab5760203660031901126101ab576040906004358152609f6020522060018060a01b03808254169060028301541660ff6003840154936004810154610e24600160058401549301613035565b95610e4160405197889788526101208060208a0152880190612884565b946040870152606086015260808501526001600160401b03811660a0850152818160401c1660c0850152818160481c16151560e085015260501c1615156101008301520390f35b82346101ab57806003193601126101ab576020609c54604051908152f35b905034610301576060366003190112610301576001600160401b03600435818111610ce157610ed9903690600401612854565b919092610ee4612794565b60443592831161105957610eff610f42933690600401612854565b609754604051631648d21360e11b81526020966001600160a01b03969495949192889284929189169183918291906001600160e01b0319163033600485016128d9565b03915afa801561104e57610f5c918a916110375750612904565b83821695610f6b87151561308f565b818103610ffc5788805b828110610f80575080f35b88610ff5927fa92ff919b850e4909ab2261d907ef955f11bc1716733a6cbece38d163a69af8a8a89610fde8f60408e610fcb8a8e610fc58f8361048d9160ff99612aa8565b97612aa8565b3594169687815260988652205416612ae2565b610fe9818b8661364f565b604051908152a3612a99565b8990610f75565b60405162461bcd60e51b81526004810187905260136024820152720a6c2d8cabe98cadccee8d09ad2e6dac2e8c6d606b1b6044820152606490fd5b6102e99150873d89116102ef576102e18183612818565b6040513d8b823e3d90fd5b8580fd5b905034610301576080366003190112610301576024359060043561107f6127aa565b609754604051631648d21360e11b8152606435956001600160a01b039560209391929184918391891690829081906110c6906001600160e01b0319163033600485016128d9565b03915afa80156104ed576110e09189916112b35750612904565b6110e8613571565b6110f760ff609b541615612eaa565b838752609f8252604087209260058401549561111860ff8860481c16612ef6565b61112860ff8860501c1615612f33565b61115a6001600160401b038287541692611143841515612f6d565b8416986111518a15156129d5565b16421115612fad565b821515806112a5575b61116c90612fe6565b878952609e845260ff60408a20541661125057908189923b1561124c576040516340c10f1960e01b81526001600160a01b039290921660048301526024820184905282908290604490829084905af180156112415761122d575b505060037f17b66cecfe09ccff0412dd4b654bdcedcc812a17df921164ba635217404777d293016111f8828254612c36565b9055838752609d82526040808820805483019055868852609e8352808820805460ff1916600117905551908152a46001805580f35b611236906127ea565b610cdd5786386111c6565b6040513d84823e3d90fd5b8280fd5b60405162461bcd60e51b815260048101859052602760248201527f53616c655f466961744f726465725265666572656e6365416c726561647946756044820152661b199a5b1b195960ca1b6064820152608490fd5b506003850154831115611163565b6102e99150843d86116102ef576102e18183612818565b905034610301578160031936011261030157609754604051631648d21360e11b81529160209183916001600160a01b03909116908290819061131b906001600160e01b0319163033600485016128d9565b03915afa8015611241576113359183916102c85750612904565b609b5460ff8116156113755760ff1916609b557fc8b290589fc182b8da42313f406cbe272a988911356e5dfcf9d3afccfac6a8f26020604051838152a180f35b60405162461bcd60e51b815260206004820152601660248201527514d85b195cd3585b9859d95c97d39bdd14185d5cd95960521b6044820152606490fd5b905034610301576020366003190112610301576114019060206004359160018060a01b03609754166040518080968194631648d21360e11b835263ffffffff60e01b163033600485016128d9565b03915afa908115611456576114406040927f64f3bbec00490c62433a8b322724a74342a798b15822bcee0cadd8b8e42f307a9486916102c85750612904565b609a549080609a5582519182526020820152a180f35b6040513d85823e3d90fd5b82346101ab5760203660031901126101ab5760209060ff906040906001600160a01b0361148c612779565b168152609884522054166040519015158152f35b82346101ab5760203660031901126101ab57604060043591828152609f60205260038282206114d960018060a01b038254161515612f6d565b0154928152609d602052205481018091116114f957602090604051908152f35b634e487b7160e01b600052601160045260246000fd5b82346101ab5760203660031901126101ab5760406020916004358152609d83522054604051908152f35b9050346103015761158a9061154d366127d4565b609754604051631648d21360e11b815292946001600160a01b0394602092859290871691839182916001600160e01b0319163033600485016128d9565b03915afa80156102f6577f4fa4db589cbe3fc7472cedf851157c49cfa4e3a98487504053cbeacd3647abde936115cb60049260409589916102c85750612904565b6115d6831515612a19565b858752609f6020526115ef848820918254161515612f6d565b0190808254925582519182526020820152a280f35b9050346103015760208060031936011261124c57611653600435928260018060a01b039182609754166040518080968194631648d21360e11b835263ffffffff60e01b163033600485016128d9565b03915afa9182156102f6576005926116719187916117105750612904565b838552609f835261168a60408620918254161515612f6d565b019081549061169e60ff8360481c16612ef6565b60ff8260501c16156116db575060ff60501b191690557fdcba7a000ef2740d4daa9c60f3235ec53ea38eb4164b31d5470f76e01e52d7bd8280a280f35b6064906040519062461bcd60e51b82526004820152600e60248201526d14d85b1957d39bdd14185d5cd95960921b6044820152fd5b6102e99150853d87116102ef576102e18183612818565b82346101ab5760203660031901126101ab576020906001600160a01b039060409082611751612779565b16815260998452205416604051908152f35b82346101ab57806003193601126101ab576097546040516001600160a01b039091168152602090f35b82346101ab5760203660031901126101ab57600360406020926004358152609f8452206117c360018060a01b038254161515612f6d565b0154604051908152f35b82346101ab57806003193601126101ab577f00000000000000000000000000000000000000000000000000000000000000006001600160a01b0316300361182657602060405160008051602061386c8339815191528152f35b60405162461bcd60e51b815260206004820152603860248201527f555550535570677261646561626c653a206d757374206e6f742062652063616c60448201527f6c6564207468726f7567682064656c656761746563616c6c00000000000000006064820152608490fd5b82346101ab5760a03660031901126101ab5780602480356004356118b36127aa565b6064356001600160a01b038181169491859003610cdd576118d2613571565b6118e160ff609b541615612eaa565b838752602090609f8252604088209060058201549461190560ff8760481c16612ef6565b61191560ff8760501c1615612f33565b611923828454161515612f6d565b818116986119328a15156129d5565b6001600160401b03611948818916421115612fad565b86151580611c10575b61195a90612fe6565b8b8a8d60019e8f8901908154935b848210611bde575b505050505061197e90612ae2565b898d52609986528c60046119b66119b0876040852054169b6119a960ff858c01549260401c16613027565b908c6137e8565b9a613112565b91888d6040519384809263313ce56760e01b82525afa8015611bd1576119e69260ff9291611bb4575b5016613027565b6119f182828c6137e8565b998215611ba05709611b7c575b6084358811611b38576040516323b872dd60e01b87820152338382015230604482015260648082018a905281529160a0830191821183831017611b265750604052611a49908961368b565b8a8284541691823b15610301576040516340c10f1960e01b81526001600160a01b0391909116600482015260248101879052918290604490829084905af18015611b1b57611aff575b5090611aa7856003936002840154168961364f565b01611ab3838254612c36565b9055838852609d81526040882082815401905560405194855284015260408301527f10852711cde176a4b399fae912d5410ee8b1b3409d5de5779e7be36b46dbb05660603393a4805580f35b85600393929b611b11611aa7936127ea565b9b92935050611a92565b6040513d8d823e3d90fd5b634e487b7160e01b8e5260416004528dfd5b60405162461bcd60e51b8152600481018790526017818401527f53616c655f4d61785061796d656e7445786365656465640000000000000000006044820152606490fd5b968b8101809111611b8d57966119fe565b50634e487b7160e01b8c5260116004528bfd5b50634e487b7160e01b8f526012600452838ffd5b611bcb91508a3d8c11610bec57610bde8183612818565b386119df565b50604051903d90823e3d90fd5b82845289828d862001541614611bfd57611bf790612a99565b8e611968565b505050505061197e8c908e38808e611970565b506003850154871115611951565b8260403660031901126101ab57611c33612779565b9060249182356001600160401b03811161124c573660238201121561124c57806004013590611c6182612839565b611c6e6040519182612818565b8281526020928382019236888383010111610cdd57818792898793018637830101526001600160a01b037f0000000000000000000000000000000000000000000000000000000000000000811690611cc83083141561338f565b611ce560008051602061386c8339815191529282845416146133f0565b609754604051631648d21360e11b8152336004820152306024820152631b2ce7f360e11b60448201529086908290606490829086165afa9081156104ed5790611d34918991611f9d5750612904565b7f4910fdfa16fed3260ed0e7147f7cc6da11a60208b5b9406d12a635614ffd91435460ff1615611d71575050505050611d6e919250613451565b80f35b8596949616906040516352d1902d60e01b81528781600481865afa869181611f6e575b50611df45760405162461bcd60e51b815260048101899052602e818b01527f45524331393637557067726164653a206e657720696d706c656d656e7461746960448201526d6f6e206973206e6f74205555505360901b6064820152608490fd5b979192939496959703611f1957611e0a87613451565b604051917fbc7cd75a20ee27fd9adebab32041f755214dbc6bffa90cc0225b39da2e5c2d3b8780a2825115801590611f11575b611e4c575b5050505050905080f35b863b15611ec15750509280948192611eb59551915af4611e6a6134e1565b907f416464726573733a206c6f772d6c6576656c2064656c65676174652063616c6c60405193611e99856127fd565b60278552840152660819985a5b195960ca1b60408401526135c7565b50808280808080611e42565b62461bcd60e51b8252600482018590526026908201527f416464726573733a2064656c65676174652063616c6c20746f206e6f6e2d636f6044820152651b9d1c9858dd60d21b6064820152608490fd5b506001611e3d565b8460296084926040519262461bcd60e51b845260048401528201527f45524331393637557067726164653a20756e737570706f727465642070726f786044820152681a58589b195555525160ba1b6064820152fd5b9091508881813d8311611f96575b611f868183612818565b81010312610cdd5751908a611d94565b503d611f7c565b611fb49150873d89116102ef576102e18183612818565b8a610279565b90503461030157604036600319011261030157611fd5612779565b61201e611fe0612794565b609754604051631648d21360e11b81526001600160a01b0395909360209285929088169183918291906001600160e01b0319163033600485016128d9565b03915afa80156102f6577f9a3bd1362aa9c6ea42a4c379bf94a48d55702e30fd5ec7f439e45517b26899449361205e8692602095899161208a5750612904565b16938486526099835260408620911690816001600160601b0360a01b825416179055604051908152a280f35b6102e99150863d81116102ef576102e18183612818565b9050346103015760208060031936011261124c576120f0600435928260018060a01b039182609754166040518080968194631648d21360e11b835263ffffffff60e01b163033600485016128d9565b03915afa9182156102f65760059261210e9187916117105750612904565b838552609f835261212760408620918254161515612f6d565b019081549061213b60ff8360481c16612ef6565b60ff8260501c1661217d575060ff60501b1916600160501b1790557f4616a0782e5635981b28be1cd36934a60655b462c370d8bd8092c969abc990d08280a280f35b6064906040519062461bcd60e51b82526004820152601260248201527114d85b1957d05b1c9958591e54185d5cd95960721b6044820152fd5b82346101ab57602080600319360112610301576121d1612779565b906001600160a01b037f000000000000000000000000000000000000000000000000000000000000000081166122093082141561338f565b61222660008051602061386c8339815191529183835416146133f0565b609754604051631648d21360e11b8152336004820152306024820152631b2ce7f360e11b60448201529084908290606490829087165afa80156105d8576122739187916124be5750612904565b60405190838201928284106001600160401b038511176124aa578360405286835260ff7f4910fdfa16fed3260ed0e7147f7cc6da11a60208b5b9406d12a635614ffd914354166000146122ce575050505050611d6e90613451565b8596949516906040516352d1902d60e01b81528681600481865afa86918161247b575b506123525760405162461bcd60e51b815260048101889052602e60248201527f45524331393637557067726164653a206e657720696d706c656d656e7461746960448201526d6f6e206973206e6f74205555505360901b6064820152608490fd5b959495036124245761236386613451565b604051907fbc7cd75a20ee27fd9adebab32041f755214dbc6bffa90cc0225b39da2e5c2d3b8680a281511580159061241d575b6123a4575b50505050905080f35b853b156123cc575092809481926123c19551915af4611e6a6134e1565b50808280808061239b565b62461bcd60e51b815260048101849052602660248201527f416464726573733a2064656c65676174652063616c6c20746f206e6f6e2d636f6044820152651b9d1c9858dd60d21b6064820152608490fd5b5084612396565b60405162461bcd60e51b815260048101859052602960248201527f45524331393637557067726164653a20756e737570706f727465642070726f786044820152681a58589b195555525160ba1b6064820152608490fd5b9091508781813d83116124a3575b6124938183612818565b81010312610cdd575190896122f1565b503d612489565b634e487b7160e01b87526041600452602487fd5b6124d59150853d87116102ef576102e18183612818565b87610279565b82346101ab57806003193601126101ab57602060ff609b54166040519015158152f35b905034610301576125129061154d366127d4565b03915afa80156102f6577fa44c1c3b206948801908c02027e54dc105374c53265faf40d44dcece247f65b89361255360059260409589916102c85750612904565b61255e428411612a56565b858752609f602052612577848820918254161515612f6d565b0180546001600160401b0392831667ffffffffffffffff19821681179092558351921682526020820152a280f35b905034610301578160031936011261030157609754604051631648d21360e11b81529160209183916001600160a01b0390911690829081906125f6906001600160e01b0319163033600485016128d9565b03915afa8015611241576126109183916102c85750612904565b609b5460ff81166126545760019060ff191617609b557fc8b290589fc182b8da42313f406cbe272a988911356e5dfcf9d3afccfac6a8f2602060405160018152a180f35b60405162461bcd60e51b815260206004820152601a60248201527f53616c65734d616e616765725f416c72656164795061757365640000000000006044820152606490fd5b9091503461124c57604036600319011261124c576126b5612779565b602435928315158094036104f857609754631648d21360e11b84526001600160a01b0391602091859190841690829081906126ff906001600160e01b0319163033600485016128d9565b03915afa9182156102f65761273e6020937f44fd9e401d43b510a520ef2a3cee9de208a5ee753db6e62ed7b96714290e81e09588916127625750612904565b1692838552609882526040852060ff1981541660ff8316179055604051908152a280f35b6102e99150853d81116102ef576102e18183612818565b600435906001600160a01b038216820361278f57565b600080fd5b602435906001600160a01b038216820361278f57565b604435906001600160a01b038216820361278f57565b35906001600160a01b038216820361278f57565b604090600319011261278f576004359060243590565b6001600160401b038111610b6357604052565b606081019081106001600160401b03821117610b6357604052565b90601f801991011681019081106001600160401b03821117610b6357604052565b6001600160401b038111610b6357601f01601f191660200190565b9181601f8401121561278f578235916001600160401b03831161278f576020808501948460051b01011161278f57565b90815180825260208080930193019160005b8281106128a4575050505090565b83516001600160a01b031685529381019392810192600101612896565b9081602091031261278f5751801515810361278f5790565b6001600160a01b039182168152911660208201526001600160e01b0319909116604082015260600190565b1561290b57565b60405162461bcd60e51b815260206004820152601a60248201527f53616c65734d616e616765725f4e6f74417574686f72697a65640000000000006044820152606490fd5b1561295757565b60405162461bcd60e51b815260206004820152601360248201527253616c655f496e76616c69644164647265737360681b6044820152606490fd5b1561299957565b60405162461bcd60e51b815260206004820152601460248201527353616c655f4e6f5061796d656e74546f6b656e7360601b6044820152606490fd5b156129dc57565b60405162461bcd60e51b815260206004820152601560248201527414d85b1957d25b9d985b1a59149958da5c1a595b9d605a1b6044820152606490fd5b15612a2057565b60405162461bcd60e51b815260206004820152600e60248201526d53616c655f5a65726f507269636560901b6044820152606490fd5b15612a5d57565b60405162461bcd60e51b815260206004820152601460248201527353616c655f496e76616c6964446561646c696e6560601b6044820152606490fd5b60001981146114f95760010190565b9190811015612ab85760051b0190565b634e487b7160e01b600052603260045260246000fd5b356001600160a01b038116810361278f5790565b15612ae957565b60405162461bcd60e51b815260206004820152601b60248201527f53616c655f5061796d656e74546f6b656e4e6f74416c6c6f77656400000000006044820152606490fd5b15612b3557565b60405162461bcd60e51b815260206004820152601860248201527f53616c655f4f7261636c654e6f74436f6e6669677572656400000000000000006044820152606490fd5b9081602091031261278f575160ff8116810361278f5790565b6001600160401b038111610b635760051b60200190565b680100000000000000008211610b6357805491808255828110612bcc57505050565b60009182526020822092830192015b828110612be757505050565b818155600101612bdb565b91908082526020809201929160005b828110612c0f575050505090565b909192938280600192838060a01b03612c27896127c0565b16815201950193929101612c01565b919082039182116114f957565b60408051636290865d60e01b81526020916004918381848160018060a01b038099165afa908115612e9f57908591600091612e64575b50169281519463b2494df360e01b86526000868581885afa958615612e5957600096612dc1575b5060005b8651811015612d835781838260051b8901015116845190630be5086b60e01b82528787830152602485838281855afa60009381612d92575b50612cf257505050612ced90612a99565b612ca4565b92509692508097509492939415612d83578392855196879384926312a2f9ed60e31b84528301525afa918215612d795750600091612d4d575b508091508211612d3f575050600190600090565b612d4891612c36565b600191565b82813d8311612d72575b612d618183612818565b810103126101ab5750518038612d2b565b503d612d57565b513d6000823e3d90fd5b50505050505050600090600090565b90938782813d8311612dba575b612da98183612818565b810103126101ab5750519238612cdc565b503d612d9f565b9590953d8083833e612dd38183612818565b810190838183031261124c578051906001600160401b038211610ce157019181601f840112156101ab57825190612e0982612b93565b93612e1687519586612818565b828552858086019360051b820101938411610301578501915b838310612e4157505050509438612ca0565b82518a8116810361124c578152918501918501612e2f565b83513d6000823e3d90fd5b9091508481813d8311612e98575b612e7c8183612818565b8101031261030157519085821682036101ab5750849038612c79565b503d612e72565b82513d6000823e3d90fd5b15612eb157565b60405162461bcd60e51b815260206004820152601c60248201527f53616c65734d616e616765725f456d657267656e6379506175736564000000006044820152606490fd5b15612efd57565b60405162461bcd60e51b815260206004820152600e60248201526d53616c655f4e6f7441637469766560901b6044820152606490fd5b15612f3a57565b60405162461bcd60e51b815260206004820152600b60248201526a14d85b1957d4185d5cd95960aa1b6044820152606490fd5b15612f7457565b60405162461bcd60e51b815260206004820152601160248201527014d85b1957d11bd95cd39bdd115e1a5cdd607a1b6044820152606490fd5b15612fb457565b60405162461bcd60e51b815260206004820152600a60248201526914d85b1957d15b99195960b21b6044820152606490fd5b15612fed57565b60405162461bcd60e51b815260206004820152601260248201527114d85b1957d05b5bdd5b9d125b9d985b1a5960721b6044820152606490fd5b604d81116114f957600a0a90565b9060405191828154918282526020928383019160005283600020936000905b82821061306c5750505061306a92500383612818565b565b85546001600160a01b031684526001958601958895509381019390910190613054565b1561309657565b60405162461bcd60e51b815260206004820152601760248201527f5265736375655f496e76616c6964526563697069656e740000000000000000006044820152606490fd5b519069ffffffffffffffffffff8216820361278f57565b81156130fc570490565b634e487b7160e01b600052601260045260246000fd5b60408051633fabe5a360e21b815291600491906001600160a01b031660a0848481845afa938415612e9f576000948580928192613339575b5060008713156133025782156132c85769ffffffffffffffffffff809116911610613293576131799042612c36565b609a541061325e576020839183519283809263313ce56760e01b82525afa918215612d7957509060ff91600091613240575b5016600881036131ba57505090565b60088111156131ff57600719019060ff82116131ea5750906131e160ff6131e79316613027565b906130f2565b90565b601190634e487b7160e01b6000525260246000fd5b60080360ff811161322b5760ff6132169116613027565b918281029281840414901517156131ea575090565b601182634e487b7160e01b6000525260246000fd5b613258915060203d8111610bec57610bde8183612818565b386131ab565b815162461bcd60e51b8152602081850152600f60248201526e53616c655f5374616c65507269636560881b6044820152606490fd5b825162461bcd60e51b8152602081860152600f60248201526e14d85b1957d4dd185b19549bdd5b99608a1b6044820152606490fd5b845162461bcd60e51b8152602081880152601460248201527314d85b1957d41c9a58d9539bdd155c19185d195960621b6044820152606490fd5b845162461bcd60e51b8152602081880152601160248201527053616c655f496e76616c6964507269636560781b6044820152606490fd5b965091505060a0853d8211613387575b8161335660a09383612818565b810103126101ab5750613368846130db565b602085015161337e6080606088015197016130db565b9095913861314a565b3d9150613349565b1561339657565b60405162461bcd60e51b815260206004820152602c60248201527f46756e6374696f6e206d7573742062652063616c6c6564207468726f7567682060448201526b19195b1959d85d1958d85b1b60a21b6064820152608490fd5b156133f757565b60405162461bcd60e51b815260206004820152602c60248201527f46756e6374696f6e206d7573742062652063616c6c6564207468726f7567682060448201526b6163746976652070726f787960a01b6064820152608490fd5b803b156134865760008051602061386c83398151915280546001600160a01b0319166001600160a01b03909216919091179055565b60405162461bcd60e51b815260206004820152602d60248201527f455243313936373a206e657720696d706c656d656e746174696f6e206973206e60448201526c1bdd08184818dbdb9d1c9858dd609a1b6064820152608490fd5b3d1561350c573d906134f282612839565b916135006040519384612818565b82523d6000602084013e565b606090565b1561351857565b60405162461bcd60e51b815260206004820152602b60248201527f496e697469616c697a61626c653a20636f6e7472616374206973206e6f74206960448201526a6e697469616c697a696e6760a81b6064820152608490fd5b600260015414613582576002600155565b60405162461bcd60e51b815260206004820152601f60248201527f5265656e7472616e637947756172643a207265656e7472616e742063616c6c006044820152606490fd5b9091606091156135d657505090565b61306a9193925b8051909250156135f05750805190602001fd5b6040519062461bcd60e51b82528160208060048301528251908160248401526000935b828510613636575050604492506000838284010152601f80199101168101030190fd5b8481018201518686016044015293810193859350613613565b60405163a9059cbb60e01b60208201526001600160a01b0392909216602483015260448083019390935291815261306a9161368b606483612818565b60408051908101916001600160a01b03166001600160401b03831182841017610b63576136fa926040526000806020958685527f5361666545524332303a206c6f772d6c6576656c2063616c6c206661696c656487860152868151910182855af16136f46134e1565b91613776565b8051908161370757505050565b82806137179383010191016128c1565b1561371f5750565b6084906040519062461bcd60e51b82526004820152602a60248201527f5361666545524332303a204552433230206f7065726174696f6e20646964206e6044820152691bdd081cdd58d8d9595960b21b6064820152fd5b9192606091156137db57505081511561378d575090565b3b156137965790565b60405162461bcd60e51b815260206004820152601d60248201527f416464726573733a2063616c6c20746f206e6f6e2d636f6e74726163740000006044820152606490fd5b90939261306a92506135dd565b91600019828409928281029283808610950394808603951461385e578483111561278f578291096001821901821680920460028082600302188083028203028083028203028083028203028083028203028083028203028092029003029360018380600003040190848311900302920304170290565b5050906131e792506130f256fe360894a13ba1a3210667c828492db98dca3e2076cc3735a920a3ca505d382bbca2646970667358221220c936fe5d59cbf711f8dc51a9007a23ae6809c00adeab4c0d532fbd41fa0bfb1b64736f6c63430008110033","linkReferences":{}},"methodIdentifiers":{"allowedPaymentToken(address)":"8a095a57","buy(uint256,uint256,address,address,uint256)":"526cc7a7","cancelSale(uint256)":"bd94b005","createSale(address,address[],address,uint256,uint256,uint64)":"bfa2145a","emergencyPaused()":"27c830a9","fiatOrderReferenceFulfilled(bytes32)":"dcb6b1dd","fulfillFiatOrder(uint256,uint256,address,bytes32)":"9ea9e1fd","getSaleRemainingSupply(uint256)":"530603fc","getSaleTotalSupply(uint256)":"8c59f718","governance()":"5aa6e675","initialize(address)":"c4d66de8","isPaymentTokenAllowed(address)":"8de1de71","maxOracleDelaySeconds()":"fdd7fb7d","pauseSale(uint256)":"3a66e4b6","paymentTokenToUsdAggregator(address)":"64631135","proxiableUUID()":"52d1902d","rescueTokens(address,address,uint256)":"cea9d26f","saleCount()":"a1e89aec","saleIdToSold(uint256)":"88dda895","sales(uint256)":"b5f522f7","setAllowedPaymentToken(address,bool)":"1d3c6674","setEmergencyPause()":"255f968e","setMaxOracleDelaySeconds(uint256)":"9b4e2098","setPaymentTokenOracle(address,address)":"3d1b6107","unpauseSale(uint256)":"68c31e26","unsetEmergencyPause()":"9b9ca4b6","updateSaleDeadline(uint256,uint256)":"26102887","updateSaleFundsRecipient(uint256,address)":"dbf5cea7","updateSalePaymentTokensAllowed(uint256,address[])":"d11bb224","updateSalePriceUsdPerShare(uint256,uint256)":"7ea76a5c","upgradeTo(address)":"3659cfe6","upgradeToAndCall(address,bytes)":"4f1ef286","withdrawFunds(address[],address,uint256[])":"a1a660a7"},"id":4}