{"abi":[{"type":"function","name":"addAgent","inputs":[{"name":"_agent","type":"address","internalType":"address"}],"outputs":[],"stateMutability":"nonpayable"},{"type":"function","name":"allowance","inputs":[{"name":"_owner","type":"address","internalType":"address"},{"name":"_spender","type":"address","internalType":"address"}],"outputs":[{"name":"","type":"uint256","internalType":"uint256"}],"stateMutability":"view"},{"type":"function","name":"approve","inputs":[{"name":"_spender","type":"address","internalType":"address"},{"name":"_amount","type":"uint256","internalType":"uint256"}],"outputs":[{"name":"","type":"bool","internalType":"bool"}],"stateMutability":"nonpayable"},{"type":"function","name":"balanceOf","inputs":[{"name":"_userAddress","type":"address","internalType":"address"}],"outputs":[{"name":"","type":"uint256","internalType":"uint256"}],"stateMutability":"view"},{"type":"function","name":"batchBurn","inputs":[{"name":"_userAddresses","type":"address[]","internalType":"address[]"},{"name":"_amounts","type":"uint256[]","internalType":"uint256[]"}],"outputs":[],"stateMutability":"nonpayable"},{"type":"function","name":"batchForcedTransfer","inputs":[{"name":"_fromList","type":"address[]","internalType":"address[]"},{"name":"_toList","type":"address[]","internalType":"address[]"},{"name":"_amounts","type":"uint256[]","internalType":"uint256[]"}],"outputs":[],"stateMutability":"nonpayable"},{"type":"function","name":"batchFreezePartialTokens","inputs":[{"name":"_userAddresses","type":"address[]","internalType":"address[]"},{"name":"_amounts","type":"uint256[]","internalType":"uint256[]"}],"outputs":[],"stateMutability":"nonpayable"},{"type":"function","name":"batchMint","inputs":[{"name":"_toList","type":"address[]","internalType":"address[]"},{"name":"_amounts","type":"uint256[]","internalType":"uint256[]"}],"outputs":[],"stateMutability":"nonpayable"},{"type":"function","name":"batchSetAddressFrozen","inputs":[{"name":"_userAddresses","type":"address[]","internalType":"address[]"},{"name":"_freeze","type":"bool[]","internalType":"bool[]"}],"outputs":[],"stateMutability":"nonpayable"},{"type":"function","name":"batchTransfer","inputs":[{"name":"_toList","type":"address[]","internalType":"address[]"},{"name":"_amounts","type":"uint256[]","internalType":"uint256[]"}],"outputs":[],"stateMutability":"nonpayable"},{"type":"function","name":"batchUnfreezePartialTokens","inputs":[{"name":"_userAddresses","type":"address[]","internalType":"address[]"},{"name":"_amounts","type":"uint256[]","internalType":"uint256[]"}],"outputs":[],"stateMutability":"nonpayable"},{"type":"function","name":"burn","inputs":[{"name":"_userAddress","type":"address","internalType":"address"},{"name":"_amount","type":"uint256","internalType":"uint256"}],"outputs":[],"stateMutability":"nonpayable"},{"type":"function","name":"compliance","inputs":[],"outputs":[{"name":"","type":"address","internalType":"contract IModularCompliance"}],"stateMutability":"view"},{"type":"function","name":"decimals","inputs":[],"outputs":[{"name":"","type":"uint8","internalType":"uint8"}],"stateMutability":"view"},{"type":"function","name":"decreaseAllowance","inputs":[{"name":"_spender","type":"address","internalType":"address"},{"name":"_subtractedValue","type":"uint256","internalType":"uint256"}],"outputs":[{"name":"","type":"bool","internalType":"bool"}],"stateMutability":"nonpayable"},{"type":"function","name":"forcedTransfer","inputs":[{"name":"_from","type":"address","internalType":"address"},{"name":"_to","type":"address","internalType":"address"},{"name":"_amount","type":"uint256","internalType":"uint256"}],"outputs":[{"name":"","type":"bool","internalType":"bool"}],"stateMutability":"nonpayable"},{"type":"function","name":"freezePartialTokens","inputs":[{"name":"_userAddress","type":"address","internalType":"address"},{"name":"_amount","type":"uint256","internalType":"uint256"}],"outputs":[],"stateMutability":"nonpayable"},{"type":"function","name":"getFrozenTokens","inputs":[{"name":"_userAddress","type":"address","internalType":"address"}],"outputs":[{"name":"","type":"uint256","internalType":"uint256"}],"stateMutability":"view"},{"type":"function","name":"identityRegistry","inputs":[],"outputs":[{"name":"","type":"address","internalType":"contract IIdentityRegistry"}],"stateMutability":"view"},{"type":"function","name":"increaseAllowance","inputs":[{"name":"_spender","type":"address","internalType":"address"},{"name":"_addedValue","type":"uint256","internalType":"uint256"}],"outputs":[{"name":"","type":"bool","internalType":"bool"}],"stateMutability":"nonpayable"},{"type":"function","name":"init","inputs":[{"name":"_identityRegistry","type":"address","internalType":"address"},{"name":"_compliance","type":"address","internalType":"address"},{"name":"_name","type":"string","internalType":"string"},{"name":"_symbol","type":"string","internalType":"string"},{"name":"_decimals","type":"uint8","internalType":"uint8"},{"name":"_onchainID","type":"address","internalType":"address"}],"outputs":[],"stateMutability":"nonpayable"},{"type":"function","name":"isAgent","inputs":[{"name":"_agent","type":"address","internalType":"address"}],"outputs":[{"name":"","type":"bool","internalType":"bool"}],"stateMutability":"view"},{"type":"function","name":"isFrozen","inputs":[{"name":"_userAddress","type":"address","internalType":"address"}],"outputs":[{"name":"","type":"bool","internalType":"bool"}],"stateMutability":"view"},{"type":"function","name":"mint","inputs":[{"name":"_to","type":"address","internalType":"address"},{"name":"_amount","type":"uint256","internalType":"uint256"}],"outputs":[],"stateMutability":"nonpayable"},{"type":"function","name":"name","inputs":[],"outputs":[{"name":"","type":"string","internalType":"string"}],"stateMutability":"view"},{"type":"function","name":"onchainID","inputs":[],"outputs":[{"name":"","type":"address","internalType":"address"}],"stateMutability":"view"},{"type":"function","name":"owner","inputs":[],"outputs":[{"name":"","type":"address","internalType":"address"}],"stateMutability":"view"},{"type":"function","name":"pause","inputs":[],"outputs":[],"stateMutability":"nonpayable"},{"type":"function","name":"paused","inputs":[],"outputs":[{"name":"","type":"bool","internalType":"bool"}],"stateMutability":"view"},{"type":"function","name":"recoveryAddress","inputs":[{"name":"_lostWallet","type":"address","internalType":"address"},{"name":"_newWallet","type":"address","internalType":"address"},{"name":"_investorOnchainID","type":"address","internalType":"address"}],"outputs":[{"name":"","type":"bool","internalType":"bool"}],"stateMutability":"nonpayable"},{"type":"function","name":"removeAgent","inputs":[{"name":"_agent","type":"address","internalType":"address"}],"outputs":[],"stateMutability":"nonpayable"},{"type":"function","name":"renounceOwnership","inputs":[],"outputs":[],"stateMutability":"nonpayable"},{"type":"function","name":"setAddressFrozen","inputs":[{"name":"_userAddress","type":"address","internalType":"address"},{"name":"_freeze","type":"bool","internalType":"bool"}],"outputs":[],"stateMutability":"nonpayable"},{"type":"function","name":"setCompliance","inputs":[{"name":"_compliance","type":"address","internalType":"address"}],"outputs":[],"stateMutability":"nonpayable"},{"type":"function","name":"setIdentityRegistry","inputs":[{"name":"_identityRegistry","type":"address","internalType":"address"}],"outputs":[],"stateMutability":"nonpayable"},{"type":"function","name":"setName","inputs":[{"name":"_name","type":"string","internalType":"string"}],"outputs":[],"stateMutability":"nonpayable"},{"type":"function","name":"setOnchainID","inputs":[{"name":"_onchainID","type":"address","internalType":"address"}],"outputs":[],"stateMutability":"nonpayable"},{"type":"function","name":"setSymbol","inputs":[{"name":"_symbol","type":"string","internalType":"string"}],"outputs":[],"stateMutability":"nonpayable"},{"type":"function","name":"symbol","inputs":[],"outputs":[{"name":"","type":"string","internalType":"string"}],"stateMutability":"view"},{"type":"function","name":"totalSupply","inputs":[],"outputs":[{"name":"","type":"uint256","internalType":"uint256"}],"stateMutability":"view"},{"type":"function","name":"transfer","inputs":[{"name":"_to","type":"address","internalType":"address"},{"name":"_amount","type":"uint256","internalType":"uint256"}],"outputs":[{"name":"","type":"bool","internalType":"bool"}],"stateMutability":"nonpayable"},{"type":"function","name":"transferFrom","inputs":[{"name":"_from","type":"address","internalType":"address"},{"name":"_to","type":"address","internalType":"address"},{"name":"_amount","type":"uint256","internalType":"uint256"}],"outputs":[{"name":"","type":"bool","internalType":"bool"}],"stateMutability":"nonpayable"},{"type":"function","name":"transferOwnership","inputs":[{"name":"newOwner","type":"address","internalType":"address"}],"outputs":[],"stateMutability":"nonpayable"},{"type":"function","name":"unfreezePartialTokens","inputs":[{"name":"_userAddress","type":"address","internalType":"address"},{"name":"_amount","type":"uint256","internalType":"uint256"}],"outputs":[],"stateMutability":"nonpayable"},{"type":"function","name":"unpause","inputs":[],"outputs":[],"stateMutability":"nonpayable"},{"type":"function","name":"version","inputs":[],"outputs":[{"name":"","type":"string","internalType":"string"}],"stateMutability":"pure"},{"type":"event","name":"AddressFrozen","inputs":[{"name":"_userAddress","type":"address","indexed":true,"internalType":"address"},{"name":"_isFrozen","type":"bool","indexed":true,"internalType":"bool"},{"name":"_owner","type":"address","indexed":true,"internalType":"address"}],"anonymous":false},{"type":"event","name":"AgentAdded","inputs":[{"name":"_agent","type":"address","indexed":true,"internalType":"address"}],"anonymous":false},{"type":"event","name":"AgentRemoved","inputs":[{"name":"_agent","type":"address","indexed":true,"internalType":"address"}],"anonymous":false},{"type":"event","name":"Approval","inputs":[{"name":"owner","type":"address","indexed":true,"internalType":"address"},{"name":"spender","type":"address","indexed":true,"internalType":"address"},{"name":"value","type":"uint256","indexed":false,"internalType":"uint256"}],"anonymous":false},{"type":"event","name":"ComplianceAdded","inputs":[{"name":"_compliance","type":"address","indexed":true,"internalType":"address"}],"anonymous":false},{"type":"event","name":"IdentityRegistryAdded","inputs":[{"name":"_identityRegistry","type":"address","indexed":true,"internalType":"address"}],"anonymous":false},{"type":"event","name":"Initialized","inputs":[{"name":"version","type":"uint8","indexed":false,"internalType":"uint8"}],"anonymous":false},{"type":"event","name":"OwnershipTransferred","inputs":[{"name":"previousOwner","type":"address","indexed":true,"internalType":"address"},{"name":"newOwner","type":"address","indexed":true,"internalType":"address"}],"anonymous":false},{"type":"event","name":"Paused","inputs":[{"name":"_userAddress","type":"address","indexed":false,"internalType":"address"}],"anonymous":false},{"type":"event","name":"RecoverySuccess","inputs":[{"name":"_lostWallet","type":"address","indexed":true,"internalType":"address"},{"name":"_newWallet","type":"address","indexed":true,"internalType":"address"},{"name":"_investorOnchainID","type":"address","indexed":true,"internalType":"address"}],"anonymous":false},{"type":"event","name":"TokensFrozen","inputs":[{"name":"_userAddress","type":"address","indexed":true,"internalType":"address"},{"name":"_amount","type":"uint256","indexed":false,"internalType":"uint256"}],"anonymous":false},{"type":"event","name":"TokensUnfrozen","inputs":[{"name":"_userAddress","type":"address","indexed":true,"internalType":"address"},{"name":"_amount","type":"uint256","indexed":false,"internalType":"uint256"}],"anonymous":false},{"type":"event","name":"Transfer","inputs":[{"name":"from","type":"address","indexed":true,"internalType":"address"},{"name":"to","type":"address","indexed":true,"internalType":"address"},{"name":"value","type":"uint256","indexed":false,"internalType":"uint256"}],"anonymous":false},{"type":"event","name":"Unpaused","inputs":[{"name":"_userAddress","type":"address","indexed":false,"internalType":"address"}],"anonymous":false},{"type":"event","name":"UpdatedTokenInformation","inputs":[{"name":"_newName","type":"string","indexed":true,"internalType":"string"},{"name":"_newSymbol","type":"string","indexed":true,"internalType":"string"},{"name":"_newDecimals","type":"uint8","indexed":false,"internalType":"uint8"},{"name":"_newVersion","type":"string","indexed":false,"internalType":"string"},{"name":"_newOnchainID","type":"address","indexed":true,"internalType":"address"}],"anonymous":false}],"bytecode":{"object":"0x608080604052346100205760ff19606e5416606e55613ab190816100268239f35b600080fdfe608080604052600436101561001357600080fd5b600090813560e01c90816306fdde03146125b357508063095ea7b31461258c578063125c4a33146124b8578063134e18f41461248b578063158b1a571461245257806318160ddd146124345780631a7af379146123835780631fe56f7d1461229b5780631ffbb0641461227757806323b872dd1461224e578063313ce5671461222d57806339509351146121e45780633d1ddc5b1461213f5780633f4ba83a146120a657806340c10f1914611e3a57806342a47abc14611d825780634710362d14611c8a5780634a6cc67714611a5757806354fd4d5014611a3b5780635c975abb14611a185780636290865d146119ef578063685731071461171c57806370a08231146116e3578063715018a6146116855780638456cb591461162157806384e798421461154e57806388d695b2146114ef5780638da5cb5b146114c65780639285948a1461147857806395d89b41146113a157806397a6278e146112c65780639dc29fac146110c85780639fc1d0e7146110a2578063a457c2d714611046578063a9059cbb14611005578063aba6370514610fd8578063b84c824614610ed4578063c47f002714610d42578063c69c09cf14610cba578063cbf3f86114610c47578063dd62ed3e14610bf8578063e583983614610bb9578063f2fde38b14610b28578063f898178914610a1d578063f91b619c1461033a5763fc7e5fa81461021b57600080fd5b3461033757610229366126df565b929091845b818110610239578580f35b61024c610247828486612cba565b612ce0565b610257828787612cba565b359061026a610265336128ae565b612c09565b60018060a01b031690818852602090606682526040892054606d908184526102968360408d2054612bb1565b116102f457918184936102d87fa065e63c631c86f1b9f66a4a2f63f2093bf1c2168d23290259dbd969e0222a459460408e6102ef9a9981528487522054612bb1565b90858d52835260408c2055604051908152a2612cab565b61022e565b6064836040519062461bcd60e51b825280600483015260248201527f416d6f756e74206578636565647320617661696c61626c652062616c616e63656044820152fd5b80fd5b50346103375760c036600319011261033757610354612683565b61035c612699565b6044356001600160401b038111610a195761037b90369060040161280c565b916064356001600160401b038111610a155761039b90369060040161280c565b6084359060ff82168203610a115760a4356001600160a01b0381169003610a0c5785549460ff8660081c1615958680976109ff575b80156109e8575b1561098c5760ff19811660011788558661097b575b506033546001600160a01b0316610940576001600160a01b03841615158061092e575b61041890612862565b604051602081019060208252610443816104356040820186612643565b03601f1981018352826127eb565b5190206040516020810190602082526000604082015260408152610466816127d0565b5190201415806108de575b61047a90612921565b601260ff8416116108995761049e60ff885460081c16610499816138fa565b6138fa565b6104a7336139b2565b8051906001600160401b0382116108855781906104ce826104c960695461296d565b612a06565b602090601f831160011461080f578992610804575b50508160011b916000199060031b1c1916176069555b8051906001600160401b0382116107f05761051e82610519606a5461296d565b6129a7565b602090601f831160011461077957600193929188918361076e575b5050600019600383901b1c191690831b17606a555b606b546101008360a81b03916affffffffffffffffffffff60a81b918260ff8560a43560081b16931691161717606b55606e54918360ff19841617606e5561059461395a565b8460081b1691161717606e5560018060a01b03167fd2be862d755bca7e0d39772b2cab3a5578da9c285f69199f4c063c2294a7f36c8480a26105d461395a565b606f5483906001600160a01b03168061072a575b505060018060a01b0316828181606f54826bffffffffffffffffffffffff60a01b821617606f551617803b1561072657818091602460405180948193631ffad50160e11b83523060048401525af1801561071b57610703575b50807f7f3a888862559648ec01d97deb7b5012bff86dc91e654a1de397170db40e35b691a2606b54610671612a65565b610679612a96565b7f6a1105ac8148a3c319adbc369f9072573e8a11d3a3d195e067e7c40767ec54d16106c26106a5612b21565b9360405191829160ff60018060a01b038960081c16981683612b94565b0390a46106cc5780f35b61ff001981541681557f7f26b83ff96e1f2b6a682f133852f6798a09c465da95921460cefb3847402498602060405160018152a180f35b61070c906127a7565b610717578238610641565b8280fd5b6040513d84823e3d90fd5b5080fd5b803b156107265781809160246040518094819363040db3b560e41b83523060048401525af1801561071b57156105e857610763906127a7565b6107175782386105e8565b015190503880610539565b90606a8852600080516020613a5c83398151915291885b601f19851681106107d8575091839160019594938694601f198116106107bf575b505050811b01606a5561054e565b015160001960f88460031b161c191690553880806107b1565b91926020600181928685015181550194019201610790565b634e487b7160e01b87526041600452602487fd5b0151905038806104e3565b925060698952600080516020613a1c8339815191529089935b601f198416851061086a576001945083601f19811610610851575b505050811b016069556104f9565b015160001960f88460031b161c19169055388080610843565b81810151835560209485019460019093019290910190610828565b634e487b7160e01b88526041600452602488fd5b60405162461bcd60e51b815260206004820152601960248201527f646563696d616c73206265747765656e203020616e64203138000000000000006044820152606490fd5b5061047a6040516020810190602082526108ff816104356040820188612643565b5190206040516020810190602082526000604082015260408152610922816127d0565b51902014159050610471565b506001600160a01b038516151561040f565b60405162461bcd60e51b8152602060048201526013602482015272185b1c9958591e481a5b9a5d1a585b1a5e9959606a1b6044820152606490fd5b61ffff1916610101178755386103ec565b60405162461bcd60e51b815260206004820152602e60248201527f496e697469616c697a61626c653a20636f6e747261637420697320616c72656160448201526d191e481a5b9a5d1a585b1a5e995960921b6064820152608490fd5b50303b1580156103d75750600160ff8216146103d7565b50600160ff8216106103d0565b600080fd5b8580fd5b8480fd5b8380fd5b503461033757602036600319011261033757610a37612683565b610a3f61395a565b606f546001600160a01b0391908390831680610ae4575b505016818181606f54826bffffffffffffffffffffffff60a01b821617606f551617803b1561072657818091602460405180948193631ffad50160e11b83523060048401525af1801561071b57610ad0575b50807f7f3a888862559648ec01d97deb7b5012bff86dc91e654a1de397170db40e35b691a280f35b610ad9906127a7565b610726578138610aa8565b803b156107265781809160246040518094819363040db3b560e41b83523060048401525af1801561071b5715610a5657610b1d906127a7565b610717578238610a56565b503461033757602036600319011261033757610b42612683565b610b4a61395a565b6001600160a01b03811615610b6557610b62906139b2565b80f35b60405162461bcd60e51b815260206004820152602660248201527f4f776e61626c653a206e6577206f776e657220697320746865207a65726f206160448201526564647265737360d01b6064820152608490fd5b50346103375760203660031901126103375760209060ff906040906001600160a01b03610be4612683565b168152606c84522054166040519015158152f35b503461033757604036600319011261033757610c12612683565b6040610c1c612699565b9260018060a01b03809316815260676020522091166000526020526020604060002054604051908152f35b503461033757602036600319011261033757610c61612683565b610c6961395a565b606e8054610100600160a81b031916600883901b610100600160a81b03161790556001600160a01b03167fd2be862d755bca7e0d39772b2cab3a5578da9c285f69199f4c063c2294a7f36c8280a280f35b503461033757604036600319011261033757610cd4612683565b6024359081151590818303610a1957610d1990610cf3610265336128ae565b60018060a01b031692838552606c602052604085209060ff801983541691151516179055565b33917f7fa523c84ab8d7fc5b72f08b9e46dbbf10c39e119a075b3e317002d14bc9f4368480a480f35b503461033757610d513661275e565b610d5c92919261395a565b60405192602090610db482860186610d75868584612be1565b0396610d89601f19988981018352826127eb565b519020604051848101908582526000604082015260408152610daa816127d0565b5190201415612921565b6001600160401b038311610ec057610dd1836104c960695461296d565b8391601f8411600114610e505750838394955092610e45575b50508160011b916000199060031b1c1916176069555b606b54610e0b612a65565b610e13612a96565b7f6a1105ac8148a3c319adbc369f9072573e8a11d3a3d195e067e7c40767ec54d1610e3f6106a5612b21565b0390a480f35b013590503880610dea565b919483169460698552600080516020613a1c8339815191529285905b878210610ea8575050836001959610610e8e575b505050811b01606955610e00565b0135600019600384901b60f8161c19169055388080610e80565b80600184968294958701358155019501920190610e6c565b634e487b7160e01b84526041600452602484fd5b503461033757610ee33661275e565b610eee92919261395a565b60405192602090610f0782860186610d75868584612be1565b6001600160401b038311610ec057610f2483610519606a5461296d565b8391601f8411600114610f685750838394955092610f5d575b50508160011b916000199060031b1c191617606a55606b54610e0b612a65565b013590503880610f3d565b9194831694606a8552600080516020613a5c8339815191529285905b878210610fc0575050836001959610610fa6575b505050811b01606a55610e00565b0135600019600384901b60f8161c19169055388080610f98565b80600184968294958701358155019501920190610f84565b5034610337578060031936011261033757606b5460405160089190911c6001600160a01b03168152602090f35b503461033757604036600319011261033757602061103c611024612683565b61103360ff606e541615612c6c565b602435906133de565b6040519015158152f35b503461033757604036600319011261033757611097906040611066612683565b9133815260676020522060018060a01b038216600052602052611090602435604060002054612bd4565b90336137f8565b602060405160018152f35b503461033757602061103c6110b636612729565b916110c3610265336128ae565b613585565b5034610337576040366003190112610337576110e2612683565b906024356110f2610265336128ae565b60018060a01b039283811693848452602060668152836040862054106112825785855260668152856111316040872054606d8452604088205490612bd4565b82818711611239575b5050156111eb5785600080516020613a3c833981519152869792879384526066815261116a876040862054612bd4565b83855260668252604085205561118287606854612bd4565b606855604051878152a3606f541691823b156111e65760405163469753b960e11b81526001600160a01b0392909216600483015260248201529082908290604490829084905af1801561071b576111d65750f35b6111df906127a7565b6103375780f35b505050fd5b6084906040519062461bcd60e51b82526004820152602160248201527f45524332303a206275726e2066726f6d20746865207a65726f206164647265736044820152607360f81b6064820152fd5b6112526000805160206139fc8339815191529288612bd4565b838952606d82526112678160408b2054612bd4565b848a52606d835260408a2055604051908152a285388261113a565b6064906040519062461bcd60e51b82526004820152601d60248201527f63616e6e6f74206275726e206d6f7265207468616e2062616c616e63650000006044820152fd5b5034610337576020366003190112610337576112e0612683565b6112e861395a565b6001600160a01b038116906112fe821515612862565b611307816128ae565b15611352576001600160a01b03166000908152606560205260409020805460ff191690557fed9c8ad8d5a0a66898ea49d2956929c93ae2e8bd50281b2ed897c5d1a6737e0b8280a280f35b60405162461bcd60e51b815260206004820152602160248201527f526f6c65733a206163636f756e7420646f6573206e6f74206861766520726f6c6044820152606560f81b6064820152608490fd5b50346103375780600319360112610337576040519080606a546113c38161296d565b8085529160019180831690811561144e5750600114611405575b611401856113ed818703826127eb565b604051918291602083526020830190612643565b0390f35b9250606a8352600080516020613a5c8339815191525b8284106114365750505081016020016113ed826114016113dd565b8054602085870181019190915290930192810161141b565b869550611401969350602092506113ed94915060ff191682840152151560051b82010192936113dd565b503461033757606036600319011261033757611492612683565b61149a612699565b906044356001600160a01b0381168103610a0c5760209261103c926114c1610265336128ae565b612fcd565b50346103375780600319360112610337576033546040516001600160a01b039091168152602090f35b5034610337576114fe366126df565b9091845b81811061150d578580f35b8061154361152261024761154994868a612cba565b61152d838789612cba565b359061153e60ff606e541615612c6c565b6133de565b50612cab565b611502565b503461033757602036600319011261033757611568612683565b61157061395a565b6001600160a01b03811690611586821515612862565b61158f816128ae565b6115dc576001600160a01b03166000908152606560205260409020805460ff191660011790557ff68e73cec97f2d70aa641fb26e87a4383686e2efacb648f2165aeb02ac562ec58280a280f35b60405162461bcd60e51b815260206004820152601f60248201527f526f6c65733a206163636f756e7420616c72656164792068617320726f6c65006044820152606490fd5b503461033757806003193601126103375761163e610265336128ae565b6001606e5461165060ff821615612c6c565b60ff191617606e557f62e78cea01bee320cd4e420270b5ea74000d11b0c9f74754ebdbfc544b05a2586020604051338152a180f35b503461033757806003193601126103375761169e61395a565b603380546001600160a01b031981169091556000906001600160a01b03167f8be0079c531659141344cd1fd0a4f28419497f9722a3daafe3b4186f6b6457e08280a380f35b5034610337576020366003190112610337576020906040906001600160a01b0361170b612683565b168152606683522054604051908152f35b50346103375761172b366126df565b90939291835b81811061173c578480f35b61174a610247828487612cba565b611755828589612cba565b3590611763610265336128ae565b606e5460405163b9209e3360e01b81526001600160a01b03838116600483018190529092602492602091829082908690829060081c89165afa9081156119e4578c916119c7575b501561198857606f80546040516372331c7360e11b8152600060048201526001600160a01b038816602482015260448101899052919491908390829060649082908a165afa90811561197d578d91611950575b50156119135782156118d05750600080516020613a3c8339815191528b916068611828898254612bb1565b90558383526066808252611840896040862054612bb1565b9085855282526040842055604051888152a3541690813b156118cc57604051635f8dead360e01b81526001600160a01b03919091166004820152602481019290925286908290604490829084905af180156118c1579086916118ad575b50506118a890612cab565b611731565b6118b6906127a7565b610a1557843861189d565b6040513d88823e3d90fd5b8780fd5b90601f6064926040519262461bcd60e51b845260048401528201527f45524332303a206d696e7420746f20746865207a65726f2061646472657373006044820152fd5b9060176064926040519262461bcd60e51b845260048401528201527610dbdb5c1b1a585b98d9481b9bdd08199bdb1b1bddd959604a1b6044820152fd5b6119709150833d8511611976575b61196881836127eb565b810190612d76565b386117fd565b503d61195e565b6040513d8f823e3d90fd5b6064906019846040519262461bcd60e51b845260048401528201527824b232b73a34ba3c9034b9903737ba103b32b934b334b2b21760391b6044820152fd5b6119de9150823d84116119765761196881836127eb565b386117aa565b6040513d8e823e3d90fd5b5034610337578060031936011261033757606f546040516001600160a01b039091168152602090f35b5034610337578060031936011261033757602060ff606e54166040519015158152f35b50346103375780600319360112610337576114016113ed612a65565b503461033757611a66366126df565b90939291835b818110611a77578480f35b611a85610247828487612cba565b611a90828589612cba565b3590611a9e610265336128ae565b6001600160a01b038181168089526066602081815260408b20549091908611611c4557828b528082528260408c2054838d611ae3606d93848452604083205490612bd4565b92838b11611bfd575b5050505015611bae578291600080516020613a3c833981519152918c948552808252611b1c886040872054612bd4565b90848652825260408520556068611b34888254612bd4565b9055604051878152a3606f541690813b156118cc5760405163469753b960e11b81526001600160a01b03919091166004820152602481019290925286908290604490829084905af180156118c157908691611b9a575b5050611b9590612cab565b611a6c565b611ba3906127a7565b610a15578438611b8a565b60405162461bcd60e51b815260048101839052602160248201527f45524332303a206275726e2066726f6d20746865207a65726f206164647265736044820152607360f81b6064820152608490fd5b6040611c186000805160206139fc833981519152958d612bd4565b92868152828552611c2c8483832054612bd4565b9287825285522055604051908152a28238838d82611aec565b60405162461bcd60e51b815260048101839052601d60248201527f63616e6e6f74206275726e206d6f7265207468616e2062616c616e63650000006044820152606490fd5b503461033757611c99366126df565b929091845b818110611ca9578580f35b611cb7610247828486612cba565b611cc2828787612cba565b3590611cd0610265336128ae565b60018060a01b031690818852606d906020918083528160408b205410611d2057918184936102d86000805160206139fc8339815191529460408e611d1b9a9981528487522054612bd4565b611c9e565b60405162461bcd60e51b815260048101849052603460248201527f416d6f756e742073686f756c64206265206c657373207468616e206f7220657160448201527375616c20746f2066726f7a656e20746f6b656e7360601b6064820152608490fd5b5034610337576060366003190112610337576001600160401b0360043581811161071757611db49036906004016126af565b602492919235828111610a1557611dcf9036906004016126af565b9092604435908111610a1157611de99036906004016126af565b919092865b818110611df9578780f35b80611543611e0e610247611e3594868c612cba565b611e1c61024784888c612cba565b611e2784898b612cba565b35916110c3610265336128ae565b611dee565b503461033757604036600319011261033757611e54612683565b9060243591611e65610265336128ae565b606e5460405163b9209e3360e01b81526001600160a01b0383811660048301819052602096939192909187908290602490829060081c87165afa9081156118c1578691612089575b501561204857606f546040516372331c7360e11b8152600060048201526001600160a01b0386166024820152604481018590529087908290606490829087165afa9081156118c157869161202b575b5015611fec578015611fa75784600080516020613a3c8339815191528197611f2986606899989954612bb1565b60685583835260668152611f41866040852054612bb1565b848452606682526040842055604051868152a3606f5416803b1561071757604051635f8dead360e01b81526001600160a01b0394909416600485015260248401919091528290604490829084905af1801561071b57611f9e575080f35b610b62906127a7565b60405162461bcd60e51b815260048101879052601f60248201527f45524332303a206d696e7420746f20746865207a65726f2061646472657373006044820152606490fd5b60405162461bcd60e51b815260048101879052601760248201527610dbdb5c1b1a585b98d9481b9bdd08199bdb1b1bddd959604a1b6044820152606490fd5b6120429150873d89116119765761196881836127eb565b38611efc565b60405162461bcd60e51b815260048101879052601960248201527824b232b73a34ba3c9034b9903737ba103b32b934b334b2b21760391b6044820152606490fd5b6120a09150873d89116119765761196881836127eb565b38611ead565b50346103375780600319360112610337576120c3610265336128ae565b606e5460ff8116156121035760ff1916606e557f5db9ee0a495bf2e6ff9c91a7834c1ba4fdd244a5e8aa4e537bd38aeae4b073aa6020604051338152a180f35b60405162461bcd60e51b815260206004820152601460248201527314185d5cd8589b194e881b9bdd081c185d5cd95960621b6044820152606490fd5b503461033757602036600319011261033757612159612683565b61216161395a565b606b8054610100600160a81b0319811660089390931b610100600160a81b03169290921790819055612191612a65565b907f6a1105ac8148a3c319adbc369f9072573e8a11d3a3d195e067e7c40767ec54d160ff6121bd612a96565b92610e3f6121c9612b21565b9560405193849360018060a01b039060081c16981683612b94565b50346103375760403660031901126103375761109790611090612205612683565b9133815260676020526040812060018060a01b03841682526020526040602435912054612bb1565b5034610337578060031936011261033757602060ff606b5416604051908152f35b503461033757602061103c61226236612729565b9161227260ff606e541615612c6c565b612dbe565b503461033757602036600319011261033757602061103c612296612683565b6128ae565b5034610337576040366003190112610337576122b5612683565b602435906122c5610265336128ae565b6001600160a01b0316808352606d602052604083205490919081116123215760206000805160206139fc83398151915291838552606d825261230b816040872054612bd4565b848652606d83526040862055604051908152a280f35b60405162461bcd60e51b815260206004820152603460248201527f416d6f756e742073686f756c64206265206c657373207468616e206f7220657160448201527375616c20746f2066726f7a656e20746f6b656e7360601b6064820152608490fd5b503461033757612392366126df565b909291845b8181106123a2578580f35b6123b0610247828487612cba565b906123bc818588612cba565b358015158082036124305761240061242b946123da610265336128ae565b60018060a01b031692838b52606c60205260408b209060ff801983541691151516179055565b33917f7fa523c84ab8d7fc5b72f08b9e46dbbf10c39e119a075b3e317002d14bc9f4368a80a4612cab565b612397565b8880fd5b50346103375780600319360112610337576020606854604051908152f35b5034610337576020366003190112610337576020906040906001600160a01b0361247a612683565b168152606d83522054604051908152f35b5034610337578060031936011261033757606e5460405160089190911c6001600160a01b03168152602090f35b5034610337576040366003190112610337576124d2612683565b602435906124e2610265336128ae565b60018060a01b031690818352602090606682526040842054606d835261250c826040872054612bb1565b1161254957907fa065e63c631c86f1b9f66a4a2f63f2093bf1c2168d23290259dbd969e0222a4591838552606d825261230b816040872054612bb1565b6064826040519062461bcd60e51b825280600483015260248201527f416d6f756e74206578636565647320617661696c61626c652062616c616e63656044820152fd5b5034610337576040366003190112610337576110976125a9612683565b60243590336137f8565b8234610337578060031936011261033757806069546125d18161296d565b8085529160019180831690811561144e57506001146125fa57611401856113ed818703826127eb565b925060698352600080516020613a1c8339815191525b82841061262b5750505081016020016113ed826114016113dd565b80546020858701810191909152909301928101612610565b919082519283825260005b84811061266f575050826000602080949584010152601f8019910116010190565b60208183018101518483018201520161264e565b600435906001600160a01b0382168203610a0c57565b602435906001600160a01b0382168203610a0c57565b9181601f84011215610a0c578235916001600160401b038311610a0c576020808501948460051b010111610a0c57565b6040600319820112610a0c576001600160401b0391600435838111610a0c578261270b916004016126af565b93909392602435918211610a0c57612725916004016126af565b9091565b6060906003190112610a0c576001600160a01b03906004358281168103610a0c57916024359081168103610a0c579060443590565b906020600319830112610a0c576004356001600160401b0392838211610a0c5780602383011215610a0c578160040135938411610a0c5760248483010111610a0c576024019190565b6001600160401b0381116127ba57604052565b634e487b7160e01b600052604160045260246000fd5b606081019081106001600160401b038211176127ba57604052565b90601f801991011681019081106001600160401b038211176127ba57604052565b81601f82011215610a0c578035906001600160401b0382116127ba5760405192612840601f8401601f1916602001856127eb565b82845260208383010111610a0c57816000926020809301838601378301015290565b1561286957565b60405162461bcd60e51b815260206004820152601f60248201527f696e76616c696420617267756d656e74202d207a65726f2061646472657373006044820152606490fd5b6001600160a01b031680156128d157600052606560205260ff6040600020541690565b60405162461bcd60e51b815260206004820152602260248201527f526f6c65733a206163636f756e7420697320746865207a65726f206164647265604482015261737360f01b6064820152608490fd5b1561292857565b60405162461bcd60e51b815260206004820152601f60248201527f696e76616c696420617267756d656e74202d20656d70747920737472696e67006044820152606490fd5b90600182811c9216801561299d575b602083101461298757565b634e487b7160e01b600052602260045260246000fd5b91607f169161297c565b601f81116129b3575050565b600090606a8252600080516020613a5c833981519152906020601f850160051c830194106129fc575b601f0160051c01915b8281106129f157505050565b8181556001016129e5565b90925082906129dc565b601f8111612a12575050565b60009060698252600080516020613a1c833981519152906020601f850160051c83019410612a5b575b601f0160051c01915b828110612a5057505050565b818155600101612a44565b9092508290612a3b565b60405190604082018281106001600160401b038211176127ba576040526005825264342e312e3360d81b6020830152565b604051806000606954612aa88161296d565b90600190818116908115612b0a5750600114612ac7575b505003902090565b60696000908152919250600080516020613a1c8339815191525b838310612af45750505081013880612abf565b8054868401528594506020909201918101612ae1565b60ff19168552505080151502820190503880612abf565b604051806000606a54612b338161296d565b90600190818116908115612b0a5750600114612b5157505003902090565b606a6000908152919250600080516020613a5c8339815191525b838310612b7e5750505081013880612abf565b8054868401528594506020909201918101612b6b565b60409060ff612bae94931681528160208201520190612643565b90565b91908201809211612bbe57565b634e487b7160e01b600052601160045260246000fd5b91908203918211612bbe57565b90918060409360208452816020850152848401376000828201840152601f01601f1916010190565b15612c1057565b60405162461bcd60e51b815260206004820152602e60248201527f4167656e74526f6c653a2063616c6c657220646f6573206e6f7420686176652060448201526d746865204167656e7420726f6c6560901b6064820152608490fd5b15612c7357565b60405162461bcd60e51b815260206004820152601060248201526f14185d5cd8589b194e881c185d5cd95960821b6044820152606490fd5b6000198114612bbe5760010190565b9190811015612cca5760051b0190565b634e487b7160e01b600052603260045260246000fd5b356001600160a01b0381168103610a0c5790565b15612cfb57565b60405162461bcd60e51b815260206004820152601060248201526f3bb0b63632ba1034b990333937bd32b760811b6044820152606490fd5b15612d3a57565b60405162461bcd60e51b8152602060048201526014602482015273496e73756666696369656e742042616c616e636560601b6044820152606490fd5b90816020910312610a0c57518015158103610a0c5790565b6060906020815260156020820152745472616e73666572206e6f7420706f737369626c6560581b60408201520190565b9192909260009260018060a01b0394858116958686526020606c815260409760ff89892054161580612fba575b612df490612cf4565b8285169081895260668352612e1f612e178b8b2054606d86528c8c205490612bd4565b881115612d33565b8284606e5460081c169160248c518094819363b9209e3360e01b835260048301525afa908115612f93578991612f9d575b5080612f26575b612e7757885162461bcd60e51b815280612e7360048201612d8e565b0390fd5b8798969752606781528588209033895252612e9f612e9885878a2054612bd4565b33856137f8565b612eaa8483856136e0565b606f541691823b15612f225784516322ebca6d60e21b81526001600160a01b0391821660048201529116602482015260448101929092529293909281908490818381606481015b03925af1918215612f18575050612f09575b50600190565b612f12906127a7565b38612f03565b51903d90823e3d90fd5b8680fd5b50606f5489516372331c7360e11b81526001600160a01b03878116600483015286166024820152604481018890529083908290606490829088165afa908115612f93578991612f76575b50612e57565b612f8d9150833d85116119765761196881836127eb565b38612f70565b8a513d8b823e3d90fd5b612fb49150833d85116119765761196881836127eb565b38612e50565b5084831688528888205460ff1615612deb565b6001600160a01b03808216600081815260666020908152604080832054919790969491839190156133a35782169587519589870196848216978881528b82528a8201908282106001600160401b0383111761338f57818c528251902063d202158d60e01b82526044830152600160648301528b816044818d5afa918215613385578c8c918794613355575b5050505061309c57885162461bcd60e51b8152600481018b905260156024820152745265636f76657279206e6f7420706f737369626c6560581b6044820152606490fd5b85839a9495979996989a52606684528583205491606d8552868420549386606e5460081c16885190637e42683b60e01b82528b60048301528782602481845afa91821561334b578392613311575b50803b15610717578d60648e85809461ffff8f51978896879563022a501f60e51b8752600487015260248601521660448401525af18015613307576132ec575b50509061313e92916110c3610265336128ae565b508061322e575b50848452606c8152600160ff84862054161515146131df575b50606e5460081c16803b156107175790828092602483518095819363a8d29d1d60e01b83528960048401525af19081156131d657506131c2575b50807ff0c9129a94f30f1caaceb63e44b9811d0a3edf1d6c23757f346093af5553fed091a4600190565b6131cc82916127a7565b6103375738613198565b513d84823e3d90fd5b606c906131ee610265336128ae565b86855252818320600160ff19825416179055336001867f7fa523c84ab8d7fc5b72f08b9e46dbbf10c39e119a075b3e317002d14bc9f4368680a43861315e565b61323a610265336128ae565b8685526066825283852054606d83526132568286882054612bb1565b116132aa577fa065e63c631c86f1b9f66a4a2f63f2093bf1c2168d23290259dbd969e0222a45828892838852606d825261329381888a2054612bb1565b848952606d8352878920558651908152a238613145565b60648285519062461bcd60e51b825280600483015260248201527f416d6f756e74206578636565647320617661696c61626c652062616c616e63656044820152fd5b61313e94939299506132fd906127a7565b979091923861312a565b89513d84823e3d90fd5b9091508781813d8311613344575b61332981836127eb565b81010312610717575161ffff811681036107175790386130ea565b503d61331f565b8a513d85823e3d90fd5b6133749450813d1061337d575b61336c82856127eb565b010190612d76565b388a8c82613058565b3d9150613362565b8b513d87823e3d90fd5b634e487b7160e01b86526041600452602486fd5b875162461bcd60e51b8152600481018a905260146024820152733737903a37b5b2b739903a37903932b1b7bb32b960611b6044820152606490fd5b91600060018060a01b039384811694858352602095606c875260409660ff88862054161580613574575b61341190612cf4565b33855260668152613430612e1789872054606d84528a88205490612bd4565b8083606e5460081c169260248a518095819363b9209e3360e01b835260048301525afa91821561354b578592613555575b50816134dd575b5061348557855162461bcd60e51b815280612e7360048201612d8e565b613494858397959697336136e0565b606f541690813b156107175783516322ebca6d60e21b81523360048201526001600160a01b03909116602482015260448101959095529293928190849081838160648101612ef1565b606f5488516372331c7360e11b81523360048201526001600160a01b03861660248201526044810189905291925082908290606490829087165afa91821561354b57859261352e575b505038613468565b6135449250803d106119765761196881836127eb565b3880613526565b88513d87823e3d90fd5b8161356d9293503d84116119765761196881836127eb565b9038613461565b503385528785205460ff1615613408565b9192909260009260018060a01b0394858216958686526020606681526040978589892054106136a357808852606682526135ca89892054606d84528a8a205490612bd4565b8281881161365d575b90506024915083606e5460081c168a519283809263b9209e3360e01b825287891660048301525afa918215613653578892613636575b505061362757865162461bcd60e51b815280612e7360048201612d8e565b612eaa848385999798996136e0565b61364c9250803d106119765761196881836127eb565b3880613609565b89513d8a823e3d90fd5b6136766000805160206139fc8339815191529289612bd4565b838b52606d825261368a818d8d2054612bd4565b848c52606d83528c8c20558b51908152a23880826135d3565b885162461bcd60e51b815260048101839052601660248201527573656e6465722062616c616e636520746f6f206c6f7760501b6044820152606490fd5b6001600160a01b039081169182156137a55716918215613754576020600080516020613a3c83398151915291600084815260668352613723826040832054612bd4565b85825260668452604082205585815260406137418382842054612bb1565b91878152606685522055604051908152a3565b60405162461bcd60e51b815260206004820152602360248201527f45524332303a207472616e7366657220746f20746865207a65726f206164647260448201526265737360e81b6064820152608490fd5b60405162461bcd60e51b815260206004820152602560248201527f45524332303a207472616e736665722066726f6d20746865207a65726f206164604482015264647265737360d81b6064820152608490fd5b6001600160a01b039081169182156138a957169182156138595760207f8c5be1e5ebec7d5bd14f71427d1e84f3dd0314c0f7b2291e5b200ac8c7c3b925918360005260678252604060002085600052825280604060002055604051908152a3565b60405162461bcd60e51b815260206004820152602260248201527f45524332303a20617070726f766520746f20746865207a65726f206164647265604482015261737360f01b6064820152608490fd5b60405162461bcd60e51b8152602060048201526024808201527f45524332303a20617070726f76652066726f6d20746865207a65726f206164646044820152637265737360e01b6064820152608490fd5b1561390157565b60405162461bcd60e51b815260206004820152602b60248201527f496e697469616c697a61626c653a20636f6e7472616374206973206e6f74206960448201526a6e697469616c697a696e6760a81b6064820152608490fd5b6033546001600160a01b0316330361396e57565b606460405162461bcd60e51b815260206004820152602060248201527f4f776e61626c653a2063616c6c6572206973206e6f7420746865206f776e65726044820152fd5b603380546001600160a01b039283166001600160a01b0319821681179092559091167f8be0079c531659141344cd1fd0a4f28419497f9722a3daafe3b4186f6b6457e0600080a356fe9bed35cb62ad0dba04f9d5bfee4b5bc91443e77da8a65c4c84834c51bb08b0d67fb4302e8e91f9110a6554c2c0a24601252c2a42c2220ca988efcfe399914308ddf252ad1be2c89b69c2b068fc378daa952ba7f163c4a11628f55a4df523b3ef116fea137db6e131133e7f2bab296045d8f41cc5607279db17b218cab0929a51a2646970667358221220df0d9e91d836e5f43f822591463fe1800ee627e63d57c38b808aa79031e56d4a64736f6c63430008110033","linkReferences":{}},"methodIdentifiers":{"addAgent(address)":"84e79842","allowance(address,address)":"dd62ed3e","approve(address,uint256)":"095ea7b3","balanceOf(address)":"70a08231","batchBurn(address[],uint256[])":"4a6cc677","batchForcedTransfer(address[],address[],uint256[])":"42a47abc","batchFreezePartialTokens(address[],uint256[])":"fc7e5fa8","batchMint(address[],uint256[])":"68573107","batchSetAddressFrozen(address[],bool[])":"1a7af379","batchTransfer(address[],uint256[])":"88d695b2","batchUnfreezePartialTokens(address[],uint256[])":"4710362d","burn(address,uint256)":"9dc29fac","compliance()":"6290865d","decimals()":"313ce567","decreaseAllowance(address,uint256)":"a457c2d7","forcedTransfer(address,address,uint256)":"9fc1d0e7","freezePartialTokens(address,uint256)":"125c4a33","getFrozenTokens(address)":"158b1a57","identityRegistry()":"134e18f4","increaseAllowance(address,uint256)":"39509351","init(address,address,string,string,uint8,address)":"f91b619c","isAgent(address)":"1ffbb064","isFrozen(address)":"e5839836","mint(address,uint256)":"40c10f19","name()":"06fdde03","onchainID()":"aba63705","owner()":"8da5cb5b","pause()":"8456cb59","paused()":"5c975abb","recoveryAddress(address,address,address)":"9285948a","removeAgent(address)":"97a6278e","renounceOwnership()":"715018a6","setAddressFrozen(address,bool)":"c69c09cf","setCompliance(address)":"f8981789","setIdentityRegistry(address)":"cbf3f861","setName(string)":"c47f0027","setOnchainID(address)":"3d1ddc5b","setSymbol(string)":"b84c8246","symbol()":"95d89b41","totalSupply()":"18160ddd","transfer(address,uint256)":"a9059cbb","transferFrom(address,address,uint256)":"23b872dd","transferOwnership(address)":"f2fde38b","unfreezePartialTokens(address,uint256)":"1fe56f7d","unpause()":"3f4ba83a","version()":"54fd4d50"},"id":47}