{"abi":[{"type":"function","name":"canCall","inputs":[{"name":"caller","type":"address","internalType":"address"},{"name":"target","type":"address","internalType":"address"},{"name":"selector","type":"bytes4","internalType":"bytes4"}],"outputs":[{"name":"immediate","type":"bool","internalType":"bool"},{"name":"delay","type":"uint32","internalType":"uint32"}],"stateMutability":"view"},{"type":"function","name":"grantRole","inputs":[{"name":"roleId","type":"uint64","internalType":"uint64"},{"name":"account","type":"address","internalType":"address"},{"name":"","type":"uint64","internalType":"uint64"}],"outputs":[],"stateMutability":"nonpayable"},{"type":"function","name":"hasRole","inputs":[{"name":"","type":"uint64","internalType":"uint64"},{"name":"","type":"address","internalType":"address"}],"outputs":[{"name":"","type":"bool","internalType":"bool"}],"stateMutability":"view"},{"type":"function","name":"revokeRole","inputs":[{"name":"roleId","type":"uint64","internalType":"uint64"},{"name":"account","type":"address","internalType":"address"}],"outputs":[],"stateMutability":"nonpayable"},{"type":"function","name":"setTargetFunctionRole","inputs":[{"name":"target","type":"address","internalType":"address"},{"name":"selectors","type":"bytes4[]","internalType":"bytes4[]"},{"name":"roleId","type":"uint64","internalType":"uint64"}],"outputs":[],"stateMutability":"nonpayable"},{"type":"function","name":"targetRole","inputs":[{"name":"","type":"address","internalType":"address"},{"name":"","type":"bytes4","internalType":"bytes4"}],"outputs":[{"name":"","type":"uint64","internalType":"uint64"}],"stateMutability":"view"},{"type":"event","name":"RoleGranted","inputs":[{"name":"roleId","type":"uint64","indexed":true,"internalType":"uint64"},{"name":"account","type":"address","indexed":true,"internalType":"address"}],"anonymous":false},{"type":"event","name":"RoleRevoked","inputs":[{"name":"roleId","type":"uint64","indexed":true,"internalType":"uint64"},{"name":"account","type":"address","indexed":true,"internalType":"address"}],"anonymous":false},{"type":"event","name":"TargetFunctionRoleSet","inputs":[{"name":"target","type":"address","indexed":true,"internalType":"address"},{"name":"selector","type":"bytes4","indexed":true,"internalType":"bytes4"},{"name":"roleId","type":"uint64","indexed":false,"internalType":"uint64"}],"anonymous":false}],"bytecode":{"object":"0x6080806040523461001657610503908161001c8239f35b600080fdfe6080604081815260048036101561001557600080fd5b600092833560e01c91826308d6122d146102ad5750508063347b1612146102255780639f73dfe4146101c5578063b700961314610139578063b7d2b162146100be5763d1f856ee1461006657600080fd5b346100ba57806003193601126100ba5760ff8160209361008461048c565b67ffffffffffffffff61009561045f565b911682528186528282206001600160a01b039091168252855220549151911615158152f35b5080fd5b50346100ba57806003193601126100ba576100d761048c565b9067ffffffffffffffff6100e961045f565b921680845260208481528285206001600160a01b03909416808652939052908320805460ff191690557ff229baa593af28c41b1d16b748cd7688f0c83aaf92d4be41c44005defe84c1668380a380f35b5090346101c25760603660031901126101c257610154610444565b61015c61045f565b60443563ffffffff60e01b81168091036101be5760018060a01b038092168452600160205284842090845260205267ffffffffffffffff84842054168352826020528383209116825260205260ff828220541690825191151582526020820152f35b8380fd5b80fd5b50346100ba57806003193601126100ba576101de610444565b6024359063ffffffff60e01b82168092036101be576001600160a01b03168352600160209081528284209184529081529181902054905167ffffffffffffffff9091168152f35b50346100ba5760603660031901126100ba5761023f61048c565b9067ffffffffffffffff61025161045f565b9261025a610475565b501680845260208481528285206001600160a01b03909416808652939052908320805460ff191660011790557faad194d4c741066ed559517462aa599f8be124ae17cf4832c66a3a2958f277268380a380f35b848491346100ba5760603660031901126100ba576102c9610444565b92602494853567ffffffffffffffff91828211610440573660238301121561044057818501359183831161042e578260051b92601f19603f85011683018381108682111761041c5786528252602092898484019183010191368311610418579298928a01905b8282106103ee57505050610341610475565b6001600160a01b039091169216855b87518110156103ea57838752600183528487206001600160e01b03199081610378848c6104a3565b511689528452858820805467ffffffffffffffff19168417905561039c828a6104a3565b5116847f88a4a368203a08371f94d3174178d52ced61dc81ed49915710b9c2aba66f3a85858851868152a360001981146103d857600101610350565b634e487b7160e01b8752601186528887fd5b8680f35b92989281356001600160e01b03198116810361041457815292989290840190840161032f565b8980fd5b8880fd5b634e487b7160e01b8952604188528a89fd5b634e487b7160e01b8752604186528887fd5b8580fd5b600435906001600160a01b038216820361045a57565b600080fd5b602435906001600160a01b038216820361045a57565b6044359067ffffffffffffffff8216820361045a57565b6004359067ffffffffffffffff8216820361045a57565b80518210156104b75760209160051b010190565b634e487b7160e01b600052603260045260246000fdfea2646970667358221220e4175f35db7e88cb7ab316ea81b4120e7147ad8b77ded9e2728352d3386cd8f964736f6c63430008110033","linkReferences":{}},"methodIdentifiers":{"canCall(address,address,bytes4)":"b7009613","grantRole(uint64,address,uint64)":"347b1612","hasRole(uint64,address)":"d1f856ee","revokeRole(uint64,address)":"b7d2b162","setTargetFunctionRole(address,bytes4[],uint64)":"08d6122d","targetRole(address,bytes4)":"9f73dfe4"},"id":118}