{"abi":[{"type":"constructor","inputs":[{"name":"accessManager_","type":"address","internalType":"address"}],"stateMutability":"nonpayable"},{"type":"function","name":"ADMIN_ROLE","inputs":[],"outputs":[{"name":"","type":"uint64","internalType":"uint64"}],"stateMutability":"view"},{"type":"function","name":"BURNER_ROLE","inputs":[],"outputs":[{"name":"","type":"uint64","internalType":"uint64"}],"stateMutability":"view"},{"type":"function","name":"FIAT_ORDER_ROLE","inputs":[],"outputs":[{"name":"","type":"uint64","internalType":"uint64"}],"stateMutability":"view"},{"type":"function","name":"FORCE_ROLE","inputs":[],"outputs":[{"name":"","type":"uint64","internalType":"uint64"}],"stateMutability":"view"},{"type":"function","name":"FREEZER_ROLE","inputs":[],"outputs":[{"name":"","type":"uint64","internalType":"uint64"}],"stateMutability":"view"},{"type":"function","name":"FUNDS_ADMIN_ROLE","inputs":[],"outputs":[{"name":"","type":"uint64","internalType":"uint64"}],"stateMutability":"view"},{"type":"function","name":"MINTER_ROLE","inputs":[],"outputs":[{"name":"","type":"uint64","internalType":"uint64"}],"stateMutability":"view"},{"type":"function","name":"PAUSER_ROLE","inputs":[],"outputs":[{"name":"","type":"uint64","internalType":"uint64"}],"stateMutability":"view"},{"type":"function","name":"RECOVERY_ROLE","inputs":[],"outputs":[{"name":"","type":"uint64","internalType":"uint64"}],"stateMutability":"view"},{"type":"function","name":"SALES_CONFIG_ROLE","inputs":[],"outputs":[{"name":"","type":"uint64","internalType":"uint64"}],"stateMutability":"view"},{"type":"function","name":"SALES_OPERATOR_ROLE","inputs":[],"outputs":[{"name":"","type":"uint64","internalType":"uint64"}],"stateMutability":"view"},{"type":"function","name":"SHARE_DEPLOYER_ROLE","inputs":[],"outputs":[{"name":"","type":"uint64","internalType":"uint64"}],"stateMutability":"view"},{"type":"function","name":"UPGRADER_ROLE","inputs":[],"outputs":[{"name":"","type":"uint64","internalType":"uint64"}],"stateMutability":"view"},{"type":"function","name":"accessManager","inputs":[],"outputs":[{"name":"","type":"address","internalType":"address"}],"stateMutability":"view"},{"type":"function","name":"canCall","inputs":[{"name":"caller","type":"address","internalType":"address"},{"name":"target","type":"address","internalType":"address"},{"name":"selector","type":"bytes4","internalType":"bytes4"}],"outputs":[{"name":"immediate","type":"bool","internalType":"bool"},{"name":"delay","type":"uint32","internalType":"uint32"}],"stateMutability":"view"},{"type":"function","name":"hasRole","inputs":[{"name":"caller","type":"address","internalType":"address"},{"name":"target","type":"address","internalType":"address"},{"name":"selector","type":"bytes4","internalType":"bytes4"}],"outputs":[{"name":"","type":"bool","internalType":"bool"}],"stateMutability":"view"}],"bytecode":{"object":"0x60a0346100c457601f6105aa38819003918201601f19168301916001600160401b038311848410176100c8578084926020946040528339810103126100c457516001600160a01b038116908190036100c457801561007f576080526040516104cd90816100dd823960805181818160e10152818161021f01526103420152f35b60405162461bcd60e51b815260206004820152601f60248201527f476f7665726e616e63655f496e76616c69644163636573734d616e61676572006044820152606490fd5b5f80fd5b634e487b7160e01b5f52604160045260245ffdfe60806040908082526004361015610014575f80fd5b5f3560e01c9081630192dc92146103d55750806306a85f0f146103ba578063282c51f31461039f5780632c91a426146102f457806331993a1c146102d957806375b238fc146102bf57806397713592146102a4578063b7009613146101d1578063d19bf69d146101b6578063d53913931461019b578063e63ab1e914610180578063eb51b0d514610165578063f36b63171461014a578063f72c0d8b1461012f578063fa5d4f60146101145763fdcb6068146100ce575f80fd5b34610110575f36600319011261011057517f00000000000000000000000000000000000000000000000000000000000000006001600160a01b03168152602090f35b5f80fd5b5034610110575f3660031901126101105760209051600b8152f35b5034610110575f366003190112610110576020905160018152f35b5034610110575f366003190112610110576020905160038152f35b5034610110575f366003190112610110576020905160028152f35b5034610110575f366003190112610110576020905160078152f35b5034610110575f366003190112610110576020905160088152f35b5034610110575f366003190112610110576020905160048152f35b503461011057806101e1366103ee565b835163b700961360e01b81526001600160a01b03938416600482015291831660248301526001600160e01b03191660448201529190829060649082907f0000000000000000000000000000000000000000000000000000000000000000165afa801561029a575f915f91610265575b508251911515825263ffffffff166020820152f35b63ffffffff925061028c9150833d8511610293575b6102848183610434565b81019061046a565b9091610250565b503d61027a565b82513d5f823e3d90fd5b5034610110575f366003190112610110576020905160058152f35b5034610110575f36600319011261011057602090515f8152f35b5034610110575f3660031901126101105760209051600c8152f35b50346101105780610304366103ee565b835163b700961360e01b81526001600160a01b03938416600482015291831660248301526001600160e01b03191660448201529190829060649082907f0000000000000000000000000000000000000000000000000000000000000000165afa90811561029a57916020925f9261037f575b50519015158152f35b816103979293503d8411610293576102848183610434565b50905f610376565b5034610110575f366003190112610110576020905160098152f35b5034610110575f3660031901126101105760209051600a8152f35b34610110575f3660031901126101105780600660209252f35b6060906003190112610110576001600160a01b039060043582811681036101105791602435908116810361011057906044356001600160e01b0319811681036101105790565b90601f8019910116810190811067ffffffffffffffff82111761045657604052565b634e487b7160e01b5f52604160045260245ffd5b919082604091031261011057815180151581036101105760209092015163ffffffff81168103610110579056fea2646970667358221220d84d86bd9ecb66bec4ca8a7d36921a5fbb016d084ab2adea95ed6f6b74ff9f5264736f6c63430008160033","linkReferences":{}},"methodIdentifiers":{"ADMIN_ROLE()":"75b238fc","BURNER_ROLE()":"282c51f3","FIAT_ORDER_ROLE()":"0192dc92","FORCE_ROLE()":"fa5d4f60","FREEZER_ROLE()":"06a85f0f","FUNDS_ADMIN_ROLE()":"97713592","MINTER_ROLE()":"d5391393","PAUSER_ROLE()":"e63ab1e9","RECOVERY_ROLE()":"31993a1c","SALES_CONFIG_ROLE()":"f36b6317","SALES_OPERATOR_ROLE()":"d19bf69d","SHARE_DEPLOYER_ROLE()":"eb51b0d5","UPGRADER_ROLE()":"f72c0d8b","accessManager()":"fdcb6068","canCall(address,address,bytes4)":"b7009613","hasRole(address,address,bytes4)":"2c91a426"},"id":0}